:020000040800F2
:200000002008002001010008FF090008DD080008FD0900089F010008AD170008000000000F
:20002000000000000000000000000000950C000835060008000000007D0B00081901000822
:200040001B0100081B0100081B0100081B0100081B0100081B0100081B0100081B01000880
:200060001B0100081B0100081B0100081B0100081B0100081B0100081B0100081B01000860
:200080001B0100081B0100081B0100081B010008FD1600081B0100081B0100081B01000849
:2000A0001B0100081B0100081B0100081B0100081B0100081B0100081B0100081B01000820
:2000C0001B0100081B0100081B0100081B0100081B0100081B0100081B0100081B01000800
:2000E0001B0100081B0100081B010008DFF80CD000F018F800480047D51700082008002016
:200100000648804706480047FEE7FEE7FEE7FEE7FEE7FEE7FEE7FEE7FEE7FEE755140008D2
:20012000ED000008064C074D06E0E06840F0010394E8070098471034AC42F6D3FFF7DAFF96
:20014000F01800081019000870B58C1810F8015B15F0070301D110F8013B2A1106D110F8F2
:20016000012B03E010F8016B01F8016B5B1EF9D12B0705D40023521E0DD401F8013BFAE7BF
:2001800010F8013BCB1A921C03E013F8015B01F8015B521EF9D5A142D8D3002070BDFEE7EB
:2001A00040BA70472DE9F84F684C4B4E4B4F4E4DDFF830B1002043F63F784AF2A00948F6C4
:2001C0000F7AADF80200606C3080000458BFBDE8F88F308810F00F00387028D054F8201049
:2001E000ADF80210BDF90210B1F1FF3F0DDC54F8201040F68F72114044F820103849387816
:2002000001EB800050F8040C8047BDF802000006D9D5387854F8201001EA0A0144F820105A
:2002200038780BEB800050F8040C8047CBE720682880288800F030006880288800F44050AB
:200240002880206800EA080080EA0900206031882068C90612D5ADF80200BDF8020000052F
:2002600013D4BDF90200B0F1FF3FACDC206840F68F710840206000F0FBFB0DE048F60F7161
:200280000840206000F04AFB06E0206840F68F710840206000F0D2FD20684BF6BF710840F5
:2002A0002988C90448BF80F480502988890448BF80F400506988C90648BF80F01000698834
:2002C000890648BF80F0200048F28001084380B22060BDE8F88F00BF9E0100200402002070
:2002E0007401002058010020E0010020174951F82020520458BF704751F8202040F60F73A1
:200300001A404CF280031A4341F82020704700BF0E4951F82020520658BF704751F82020E7
:2003200040F60F731A4048F2C0031A4341F82020704700BF054940F60F6351F820201A4089
:2003400048F280031A4341F820207047005C0040B0B50C46054600F02DFB0849002009E043
:2003600015F8012B013C424080B2D2B231F8122082EA1020002CF3D180B2B0BD180200200F
:2003800010B5A74909688A8812B10224204610BD0A78062802F07F0208BF012A0AD0212ACF
:2003A000F3D103280DD00928EFD10B48092202700A4A09E08878212805D02228E5D1084AE3
:2003C00002E0044A00E0074A002400204C828A619047DBE70D0400080E0200203D05000893
:2003E0002104000801040008014900F015BF00BF00000020014900F00FBF00BFD40000201B
:20040000014900F009BF00BF4400002008B11948704783480121006801820020704700BF78
:20042000014900F0F9BE00BF680000207C490968C978032984BF00207047024A02EBC101CC
:2004400000F0EABE10010020084318BF02207047014602200B290BD1714909680A7802F0C0
:200460007F02212A18BF7047C878024908600020704700BF0802002010B569480021006870
:2004800041812649C9794172002000F005FC00204FF4007100F0AEFC0020102100F086FCF4
:2004A0000020182100F01AFC0020582100F066FC0020FFF73FFF1A4890F82C10002000F068
:2004C00019FC002000F04EFC01204FF4C061012400F090FC01204FF4807100F04FFC0120D6
:2004E0004FF4827100F0FAFB0120002100F052FC0120402100F0FEFB01204FF4405100F011
:2005000019FC0120202100F051FC002000F0CAFB184804604D48047010BD00BF08000020D1
:20052000DC0000203E480068807A10B111480521016070470F4804210160704708B10448E6
:20054000704737480221006801820020704700BF0C0200207047704710B500F0A5F930485A
:2005600000240068847200F02BFB01F0C9F80148046010BD140200202DE9F843DFF84C8E7F
:20058000D8F80060378ABFB9304610F8081F042912D126490A78012A3AD1C24A244C13681F
:2005A00004EA43031A440023C2F8B4330B701D4930220A8004212FE0B58ABD422C4688BFFD
:2005C0003C46B169204688478146002000F060F901464846224601F0EBF80020214600F092
:2005E000D9FB308A3021AF42A0EB04003082708A204470820B4801800B484FF4405101801E
:200600004FF0040188BF0221D8F80000083003E0044910220A8007210170BDE8F88300BFC0
:20062000B8010020E2010020E0010020B0010020FEFF0100704701E000BF01380028FBD18A
:200640007047000001480121017070470E0100202DE9F04792B002AC0120214601F05CF817
:200660009DF808004C4E4FF400580428C6F8048040F086809DF809009DF80A1041EA002567
:200680001DB3464F78883978E9B3002800F08280C5EB05118900814235D24148B1460F18CE
:2006A00000F0D0F8002005E0A119B819898800F0ABF8B01CC6B23B2EF6D900F09FF8681CC7
:2006C0004E4681B200294DD15AE0BDF80C103348BDF80E20B1F5604F4180828040D8012151
:2006E000017000F0AFF82E4D002405E060193C3000F066F804F58064B4F5604FF6D100F04F
:200700007DF801212EE03978D1B3C8B32449C5EB0510B1468A4601EB800500F093F800207F
:2007200005E0A119A819898800F06EF8B01CC6B23C2EF6D300F062F879880AF13C00FFF703
:2007400007FEBA884FF2020100284E460AD0824208D100204FF4704138700120787001E035
:200760004FF20101042003228DF80500080A8DF807100DF105018DF80600002000F0E2FE36
:2007800001204FF44051C6F8008000F0D3FA12B0BDE8F0873878F3E71010014096010020E9
:2007A000C41F00080448054A41681060006880F308880847704700BF0020000808ED00E06D
:2007C0001F4951F8042CD207FBD10A6841F6FE731A400A600A6842F002020A60486008688B
:2007E00040F04000086051F8040CC007FBD1086841F6FD72104008600420704710480168CB
:2008000041F08001016070470D4A52F8043CDB07FBD1D2F800C041F6FD7303EA0C031360DF
:20082000136843F001031360018052F8040CC007FBD1106841F6FE71084010600420704774
:2008400010200240044805490160054901608168C907FCD1704700BF04200240230167454A
:20086000AB89EFCDBA490A6892B202EBC00001EB4000B0F8B8037047B5490A6892B202EB3B
:20088000C00001EB4000D0F8BC036FF39F207047AF490A6892B202EBC00001EB4000B0F8DE
:2008A000B0037047505C00400A4908688A68801808BF7047B0B5084D4C680822A91C00F0CA
:2008C0005DF805F1120120460422BDE8B04000F055B800BFE8F7FF1F94000020FEE7000047
:2008E0000B48016841F0180101600A48016821F400610160016841F48061016006490A685E
:2009000042F440120A60416841F440314160704718100240000C01400410014010B5A54C7C
:200920002168084610F8082F022A03D0062A07D0042A12D1FFF720FE206810F8081F0DE0D2
:200940004878052804BF08785FEA40600BD07F480068806880472068083008210170BDE8C6
:20096000104000F00DB9C87800F09CF902480068006A8047EBE700BFC001002010B5013160
:200980004FF0000C4FF0370E10E00EEB1073040FB0F1204F81F800C0A2F101024FEA0010E1
:2009A00038BF04F1300301F8013C0231002AECD110BD0000B0B5DFF840C04FF0000E4AF236
:2009C0000101BEF5807F08BFB0BD1FFA8EF30022002009E083EA020581EA520401305B08A1
:2009E000ED0708BF540822460828F3D32CF81E200EF1010EE5E700BF18020020FEE77047B1
:200A000070470000C2781449D2B110B5174A0723126890F801E0847890F800C023EA12224D
:200A20000F23D340C2F1040223400EFA02F21A4301EB0C03120183F80023BDE8104000E07B
:200A400080310078012300F01F02C0F3421003FA02F241F82020704700E100E002490843BB
:200A600002490860704700BF0000FA050CED00E0F8B5504E3768384610F8081F032903D0DF
:200A8000072929D005292DD1388AB8B1B969A9B1BC8A844288BF0446204688470546388A7B
:200AA000001B3882788A204478820020FFF7DAFE01462846224600F04FF8388AA0B13E4826
:200AC0004FF4405101800020002100F063F93B4830210180398A08E01C480068C068804779
:200AE0003068083008210CE00021BA8A3068914204D2083051B10521017002E0032100F89C
:200B0000081F0170BDE8F84000F03AB8062101700E48006880688047306810F8081F082981
:200B200007D125494FF480520A80244910220A80D8E79D4A074C136804EA43031A4400237E
:200B4000C2F8B4331D4A30231380DAE7BC010020505C0040FEFF0100074B013203EB41016A
:200B60000023A3EB520203E008C9013220F8023B002AF9D1704700BF006000407047000073
:200B800080B50B4890F82C10002000F0B3F809480068007A082806D107494FF480520A8025
:200BA000064910220A800938B0FA80F0400980BDDC000020B8010020E0010020E201002070
:200BC000B0B5334C0120074D20600020288020606068002000F01CF94FF4E050288020606C
:200BE0000020B0BD1804002007281CBF274908702648017805293AD8DFE801F00307141825
:200C00001F2A416851B3052132E021494FF6FB730A681A400A604FF43F420A60042101708F
:200C2000012130E002214170032121E0417801394170417889B904211AE015490A6842F0C9
:200C4000100292B20A60052101700A2141707047417801394170417861B170470C494FF6EA
:200C6000FB730A681A400A604FF43F420A6006210170704706494FF6EF730A681A400A6027
:200C80000621017000214160704700BFA8010020405C004070470000434920F0070008601D
:200CA000704700BF10B50C49584A002340F60F7C48F2800E097809E052F8234004EA0C0441
:200CC0001C4344EA0E0442F8234001339942F3D140F08000D06410BD0C010020324A21F09A
:200CE000010113689BB203EBC00002EB4000C0F8B81370472C4A3F29136802F56F729BB297
:200D000003EBC0000DD3CB064FF0FF3C4FEA511308BF0CEB511399B24FF4004343EA81219B
:200D200004E001F0010303EB5101890242F81010704700BF10B5F74C44F2700254F82030F3
:200D400023EA0202CB0448BF82F48052890448BF82F4005248F28001114389B244F8201052
:200D600010BD00BFEB4943F60F7351F820201A404BF280035A4041F8202070470A4A21F026
:200D8000010113689BB203EBC00002EB4000C0F8B0137047044A13689BB203EBC00002EBCB
:200DA0004000C0F8B4137047505C004010B5D94C47F2400254F8203023EA0202CB0648BFE7
:200DC00082F01002890648BF82F0200248F28001114389B244F8201010BD00BFCD4940F6D7
:200DE0003F7351F820201A4048F2B0035A4041F82020704710B5C74C48F68F1254F8203054
:200E00001A40114344F8201010BD00BF005C004001490860704700BF445C00400548042215
:200E2000016841F0040101600348016862F313410160704718100240040801402DE9FC4133
:200E4000EB4EDFF88885B44FB44D306DD8F800100A7A092A01D1C8881EE007EA4000284480
:200E6000D0F8070007EA40008219441992F800240A70425D4A70B4F80300FFF791F9D8F8FA
:200E800000104880B4F80700FFF78AF9D8F800108880B4F80B00C880012200280A724C78DC
:200EA00027D0620842EAC412D2B2052A00F2D880DFE802F003D6D63F4F55022840F0D080DD
:200EC0004888002840F0CC800879002840F0C880087800F07F00022800F0A680012800F035
:200EE000B880002840F0BC808888002840F0B880C8E0087800F07F0002284CD0012851D05F
:200F000000286CD1601E082869D8DFE800F0056853685B6868686500C87801285FD18888FD
:200F200000285CD1487A800659D582480021416035E00878400640F093808878032869D0D8
:200F400002286BD0012840F08B80754800681C3067E00878400640F08380734A93E00A7865
:200F600002F07F02012A7BD18A7A002A78D04A88002A75D1012873D10879002870D14879B7
:200F8000674909688A6900219047002868D1D8F80010644A77E0032C09D0012C1FD100F0EA
:200FA000CDF81BE00B2C1AD100F0F0F916E000F0B3F913E0C878012811D1888878B900F075
:200FC0009DF916E091F90300002810DB887870B9888860B9887A09E000F07AF948B15048B4
:200FE000006841692046884703280ED008B108200CE0306D002107EA40002844C0F80310AE
:201000004D4830210180062000E00920D8F8001008724CE042480068243002E0404800689C
:20102000203002687ABB1BE04F7907F00F033A0656F823004FF0300258BF4FF4405217F0E0
:20104000700F0DD1D04F3F78BB4209D2104019D106E04879DE4909688A690021904760B110
:20106000DB49D8F800000968407809698847044603280DD1D8F8000017E0D8F80010887A16
:201080000028EDD0294A002000248A614C829047D8F800004FF6FF72018A914205D0022C3D
:2010A00018BF002907D1082100E009210172BDE8FC41FFF765BD90F90020B2F1FF3F06DD4B
:2010C000032101721A484FF440510180EFE7C2880192019B8B4202D20199018212E09142F0
:2010E00010D2BB4A126892F82C20914202D21149002206E0B1FBF2F303FB121111B90D49DE
:2011000001220A70B249096891F82C108182FFF733FACCE7005C0040FEFF010001600040ED
:20112000BC01002035120008F911000855120008E0010020B0010020E2010020F8B5A34895
:201140000168087800F07F00022806D048B9487A00F0DF004872002004E0488808B90879D5
:2011600010B1022001B0F0BD4879864F4FF4405500F07F0410F08002834857F8243018BF86
:20118000302506780220B442ECD22B40EAD0887A0028E6D057F824005AB100F030001028CB
:2011A00021D12046FFF7B4F820463021FFF7FEFD19E000F44050B0F5805F14D11CB1204674
:2011C000FFF794F805E00B4890F82C102046FFF791FD57F8240043F60F7108404BF2800175
:2011E000484047F824007B48006840698047B2E7005C0040DC00002040B180B575480068ED
:2012000000688047714800680A3080BD6F48012100680182002070476C4A002813685A8A2F
:2012200002D00868104470478888801A18820020704700BF40B180B566480068806880479C
:20124000624800680C3080BD60480121006801820020704710B55D490028096814D01B4C28
:2012600000202080087800F07F00022810D0012824D058B9487A022101EA1011C0F3801053
:2012800008441249087015E002200882002415E091F905103B4A01F00F00B1F1FF3F52F827
:2012A00020000DDD00F44050B0F5805F02D10748012101704748006800698047204610BD0D
:2012C00000F030001028F2D0F4E700BF100200203E482D4A00685278C178914203D8827818
:2012E0000AB982880AB10220704780B581723948006840688047002080BD00BF80B5334841
:201300000068417A41F02001417232480068C0698047002080BD00BFB0B52C48F34D1A4C38
:201320000368587900F07F0155F821202478A14226D210F0800C4FF440544FF0020018BF81
:20134000302414421BD05A88CAB9987AC0B143F60F70BCF1000F18BF40F63F7055F8212052
:2013600000EA020049F2800218BF48F29002504045F8210017480068806980470020B0BD2F
:201380000220B0BD005C00400C01002010B5104A0E4C12682068C17840799269904701466F
:2013A000022091B921688A7A7AB1087908B9887808B1022010BD07480068C06880472068F1
:2013C000C1784279C2720173002010BDB8010020BC010020C001002080B5F148DFF870E058
:2013E0000023D0F800C007E000EB830252F8402C92B24EF823200133082BF5D14CF4806219
:2014000092B202604FF6FE320CEA020C0CF2014303600CF58063036043685B05FCD54FF6A0
:20142000FF334360002307E05EF8231000EB8302013389B242F8401C082BF5D14CF48161B4
:201440000160016841F0040189B2016080BD00BFE401002082B03648364A016841F0010123
:20146000016041681140344A4160016811400160016821F480210160416821F4FE014160F9
:201480004FF41F018160002101910091016841F480310160016801F4003100910199013128
:2014A0000191009919B90199B1F5A06FF2D10168890354BF0021012100910099012930D17D
:2014C0001E490A6842F010020A600A6822F003020A600A6842F002020A604168416041688D
:2014E0004160416841F480614160416821F47C114160416841F4E8114160016841F08071FC
:20150000016001688901FCD5416821F003014160416841F002014160416801F00C010829F1
:20152000FAD107484FF00061016002B0704700BF001002400000FFF8FFFFF6FE00200240CB
:2015400008ED00E010B5094C207860B108480068052808D1812000F0F1F80120FFF73EFC6A
:201560000020207000E0FF2040B210BD0E0100201402002080B5FFF751FC00F019F8C64811
:20158000016841F400010160BDE88040AFF3008005480221054A0175564900F10C03C0E947
:2015A0000031826008680047B801002030010020E0B54FF4A060FFF751FA0348019001A899
:2015C000FFF720FA8CBD00BF1401000170B588B0464D474C4F4E686C608030886188014027
:2015E000090402D5FEF7DEFD308861880140490506D54FF6FF3068643E484068804730883F
:2016000061880140890444BF4DF6FF71696461880140C90406D54EF6FF7068640020FFF729
:20162000E3FA30886188014009050CD53248007810B1FFF7D1FE02E00220FFF7D5FA4FF27A
:20164000FF706864308861880140890505D54FF6FF51696421780131217061880840C00551
:2016600041D54FF6FF606864A86C000402D40020606035E0606801306060606804282FD352
:20168000286C00072CD4286C002180B2A060684605E055F8212092B240F821200131082987
:2016A000F7D1A16841F00101A160A16889B22964A16821F00101A160A16889B22964696C91
:2016C0004905FCD54FF6FF316964002105E050F8212092B245F8212001310829F7D1C6E780
:2016E0000720FFF781FA08B070BD00BF005C00409C010020DC00002054010020FFF766BFC9
:20170000274800214FF43F42416002490A800260002070471804002070B500F07F050C469F
:201720002846FFF7A9F806462846FFF79BF8014620463246FFF710FA304670BD70B500F084
:201740007F0614460D463046FFF7A2F8A4B201462846224600F02CF830462146FFF71AFBE2
:20176000002070BD0D484FF48011072301600C4800214160032101600A48016841F00401DC
:20178000016009490A6863F313420A604FF480520A61416821F400014160704780E100E037
:2017A000405C00401810024004080140FEE70000074B013203EB41010023A3EB520204E013
:2017C00030F8023B013221F8043B002AF8D1704700600040FFF784F86420FEF72CFF2E4942
:2017E0002E4B2F4A086840F0C0500860D05A48B1176847F4807717600027D752136823F4B2
:20180000807313600A68274B294C22F0C0520A6025491880254A096801F00401598012684C
:20182000224002F16047B7FA87F77F099F8044F24C23984206D029B9B2F1005F02D1FEF7D5
:20184000B1FFFEE7FFF796FE1B481A4C1D4E1F4F4FF40055814619488246194883461A48B3
:201860008046207850B95046C9F80050FEF7E3FE0D48C0F808545846FEF7DDFE30780028DD
:20188000EFD04046FEF7D7FEFFF76CFF3846FEF7D2FEFEF787FFE4E71C10024010FCFFFFD7
:2018A0000070004090010020080C0140002000080000FE2F960100201410014020A1070039
:2018C0008096980097010020A086010040420F0002E008C8121F08C1002AFAD170477047DB
:2018E000002001E001C1121F002AFBD1704700001019000800000020900100004801000814
:20190000181A00089001002090060000E01800082208332029140902291301012580320963
:20192000042B02031214211001140122191607058103401D01070501071410120132021632
:20194000408304BABE1602010203011A1A443209101005010904A1018504090675089502F5
:20196000811B090708133F9132C01A4C24321910080403090420034612721A6502124A1201
:201980006F127912201246126C126112731A68141272141A03531254124D1233F2325A2601
:2019A0001A12691A63281A6F2E1A6C0412633A740E3A6E1812731A316C32121359051408AE
:2019C00079041B0855081A57041381031B0851101A49041AF50C1AE9041A2D0C41324014D7
:2019E0000201011A703C32041AAE0832261A740832201A940819E81113010A1B08254C2934
:201A0000080912042A351C310B184506240A19511C00000000000000FFFFFFFFFFFFFFFFD9
:201A2000FFFFFFFFFFFFFFFFFFFFFFFFFFFFFFFFFFFFFFFFFFFFFFFFFFFFFFFFFFFFFFFFC6
:201A4000FFFFFFFFFFFFFFFFFFFFFFFFFFFFFFFFFFFFFFFFFFFFFFFFFFFFFFFFFFFFFFFFA6
:201A6000FFFFFFFFFFFFFFFFFFFFFFFFFFFFFFFFFFFFFFFFFFFFFFFFFFFFFFFFFFFFFFFF86
:201A8000FFFFFFFFFFFFFFFFFFFFFFFFFFFFFFFFFFFFFFFFFFFFFFFFFFFFFFFFFFFFFFFF66
:020000040800F2
:20200000F01E002001210008277C0008BD610008257C0008ED3D0008C79E0008000000004F
:20202000000000000000000000000000118500085D50000800000000C57F000891900008D8
:202040001B2100081B2100081B2100081B2100081B2100081B2100081B2100081B21000860
:202060001B2100081B2100081B2100081B210008A147000821490008C9490008C94A0008B9
:202080001B2100081B2100081B2100081B210008599E00081B2100081B2100081B21000865
:2020A0001B2100081B2100081B2100081B210008319100081B2100081B2100081B2100087A
:2020C0001B2100081B210008C16100081B2100081B2100081B2100081B2100081B210008FA
:2020E0001B2100081B2100081B210008DFF80CD000F036FB00480047ADA10008F01E00202D
:202100000648804706480047FEE7FEE7FEE7FEE7FEE7FEE7FEE7FEE7FEE7FEE7E1900008AA
:20212000ED20000840EA01039B0703D009E008C9121F08C0042AFAD203E011F8013B00F81A
:20214000013B521EF9D27047D2B201E000F8012B491EFBD270470022F6E710B513460A4670
:2021600004461946FFF7F0FF204610BD10B5002200E0521C835C8C5CA34201D1002BF8D1F7
:20218000D8B2E1B2401A10BDF0B480EA0102D40F4200B2EB410F02D20246084611464A00CD
:2021A00042D0C30DDDB2C1F3C752AD1A202D35DAC1F3160141F4000204B15242C5F1200697
:2021C00002FA06F12A411044B3EBD05F23D0C4B1012DA0EBC35009DCF0BC4FF0004202EA4E
:2021E000C352DBB200F5000000F02FBA400000F1807000EBC350A0F1807040EAD17049001B
:2022000009E0490841EAC071A0EBC35000F50000400800EBC350F0BC00F00EBA6142012225
:2022200002EB4101001BF6E7F0BC704781F00041AAE780F00040A7E780EA010210B502F06F
:202240000043400022D04A001FD0010E01EB1261C0F35600C2F3560240F4000042F40002E0
:20226000A0FB022000047F39140400D0401C50EA124001D44000491EC2B20C0604EBD01044
:20228000401C4008802A02D003E0002010BD20F00100002900DA0020184310BD30B480EAA4
:2022A000010202F0004530F0004221F0004013D090B1C30DD40DC2F31601C0F31600E41AC9
:2022C00041F4000140F400027D34914201D3641C00E04900002C02DA30BC002070474FF483
:2022E00000000023914201D3891A034340084FEA4101F7D151B1914202D14FF0004105E093
:2023000002D24FF0010101E06FF0010103EBC450284430BC00F090B9420005D0C0F3C752F0
:202320005242914201DC0020704700EBC15070472DE9FE4F81EA030404F0004421F0004170
:2023400000944FF0000B23F0004350EA01045ED052EA03045BD0C3F30A54C1F30A552C44D7
:20236000A4F2F3340194A0FB0254C1F3130141F48011C3F3130343F4801301FB024400FBB9
:20238000034E840A970A44EA815447EA8357A4FB076802958D0A05FB07854FEA932C04FBF0
:2023A0000C542705029D4FEA065847EA1637B5EB08056EEB070C870E920E47EA811742EA9A
:2023C0008312A7FB0201B6EB0B0164EB00042B0D43EA0C335E1844EB1C50DA465146E7FB75
:2023E0000201C5F313044FEA0B3343EA14534FEA0432019C43EA0603A4F10C040294009CE7
:20240000CDE900B400F05EF903B0BDE8F08F00200146F9E72DE9F04D81EA030404F0004BE9
:2024200021F0004514464FF0000A23F0004150EA050220D054EA01021DD0C5F30A5702468F
:20244000C5F31303C1F31300C1F30A5640F4801543F48013A7EB0608101BD64608F2FD382A
:2024600073EB050002D308F1010801E092185B41B8F1000F03DA00200146BDE8F08D0020BD
:202480004FF48011064684460EE0171B73EB050705D3121B63EB050306434CEA010C490890
:2024A0004FEA300092185B4150EA0107EDD152EA030012D082EA040083EA0501084305D049
:2024C000101BAB4106D20122002306E000224FF0004302E06FF0010253101AEB06004CEB54
:2024E000085110EB0A0041EB0B01BDE8F04D00F0DAB870B521F0004303430CD0C1F30A5534
:202500000024D5EB040564EB0403D617AD1AB34102DB0020014670BD201841EB025170BD7B
:20252000C10F80EAE0700844CA079623002100F08CB896230022114600F087B80EB540F290
:20254000334102910021CDE900110A460B4600F0B9F803B000BD00F0004220F00040C10D8A
:20256000C0F3160040F400007F2901DA00207047962903DCC1F19601C84001E0963988409D
:20258000002AF4D040427047C1F30A5210B5C1F3130140F2FF3341F480119A4201DA002076
:2025A00010BD40F233439A42A2F2334203DC524200F032F810BD904010BD00F0004230F078
:2025C00000400AD0C10D01F56071C0F3160042EA0151C208400711437047002001467047CB
:2025E00001F0004330B421F0004150EA010206D00A0DA2F56072C1F31301002A02DC30BC22
:2026000000207047440F44EAC104C100E01830BC00EBC25000F010B8202A04DB203A21FAA5
:2026200002F00021704721FA02F3D040C2F1200291400843194670470029A8BF7047401C06
:20264000490008BF20F00100704710B4B0FA80FC00FA0CF050EA010404BF10BC704749B143
:20266000CCF1200421FA04F411FA0CF118BF012121430843A3EB0C01CB1D4FEA00614FEA60
:20268000102042BF002010BC704700EBC35010440029A4BF10BC7047401C490008BF20F089
:2026A000010010BC704710B5141E73F1000408DA401C41F1000192185B411A4301D120F041
:2026C000010010BD2DE9F04D92469B4611B1B1FA81F202E0B0FA80F22032904600F052F8E0
:2026E00004460F4640EA0A0041EA0B0153465A46084313D0114653EA010019D0C8F14002F0
:202700005046FFF789FF05460E4650465946424600F038F8084305D0012004E0204639461F
:20272000BDE8F08D0020054346EAE0762C4337430A986305E40AA0EB08000022FD0A44EABE
:2027400047540A3002D500200146E9E7010510196941DDE9084500196941BDE8F04DA2E77C
:20276000064C074D06E0E06840F0010394E8070098471034AC42F6D3FFF7BCFC68A800082E
:2027800088A80008202A04DB203A00FA02F1002070479140C2F1200320FA03F319439040D7
:2027A000704770B58C1810F8015B15F0070301D110F8013B2A1106D110F8012B03E010F8DF
:2027C000016B01F8016B5B1EF9D12B0705D40023521E0DD401F8013BFAE710F8013BCB1A27
:2027E000921C03E013F8015B01F8015B521EF9D5A142D8D3002070BD0029816802D041F05E
:20280000010101E021F00101816070472DE9F05F2D490878002854D000202C4C024600BFE4
:2028200024F81020401CC0B20828F9D3DFF8A080264E0025DFF898B0DFF898A0894608F1FC
:2028400008081036CBF8146099F800104746404602F075FA0121384602F0AAF901215746E2
:202860005046FFF7C9FF0121384600F0B0F8022002F020FA0028FAD0022002F081F90021FD
:202880003846FFF7B9FF0021404602F091F9002034F8101036F81020114424F81010401C32
:2028A000C0B20828F4D36D1CEDB2082DCAD3002034F81010C90824F81010401CC0B208283E
:2028C000F6D3BDE8F09F0000280100209C0A002000000240002401400029816802D041F42C
:2028E000807101E021F4807181607047014600208968490700D501207047014600208968BB
:20290000090700D50120704710B542680E4B0C791A400B6842EA04221343436083680B4A55
:202920001340D1E9024222434C7943EA44031A438260C26A097C22F47002491EC9B242EA22
:202940000151C16210BD0000FFFEF0FFFDF7F1FF70B5072409290AD9C568A1F10A0606EB40
:202960004606B440A543B3401D43C56007E0056901EB4106B440A543B3401D4305611F2358
:20298000072A09D2446B521E02EB820293409C4391400C43446370BD0D2A09D2046BD21F83
:2029A00002EB820293409C4391400C43046370BDC46A0D3A02EB820293409C4391400C4388
:2029C000C46270BD816841F00801816070470029816802D041F4A00101E021F4A0018160B7
:2029E0007047816841F004018160704700EB4100B0F8110040BA00B270471CB50446C32023
:202A00008DF80400E3208DF80500607B022301AA012103F0B3FE00218DF804108DF80510DB
:202A2000002806D10091607B022301AA012103F0CBFC1CBD70B5044601250E468573C320E2
:202A400040EA0610E073E320207400206072607B032204F10E0103F005FF10B16572257230
:202A600070BDA67270BD38B5044600202072012504EB41020095607B02230021113203F0B7
:202A800069FD002804D06168491C61606572257238BD00002DE9F041124C0E460746002517
:202AA000204602F003F90028FAD1B07BF17B41EA0024C4F30D003880600404D5304607F0C3
:202AC00049FC4FF0FF3584EA142080EA101080EA900080EA5000C00701D06FF001052846F3
:202AE000BDE8F0811C00024030B400210172012141720C493F220A70FF224A7090F90B1066
:202B0000094A52F83130DC6802EBC10189888C43DC60012300F10E0130BC0222014805F036
:202B20009DBB00009A0200203800002010B504460021094802F03CF894F90B00074951F851
:202B40003020D36801EBC00080880343D36001202072607210BD00001C00024038000020B5
:202B6000008A40BA00B27047704738B504460020207201250095607B042304F10E020C21D9
:202B800003F0E8FC002803D06168491C6160257238BD000070B514460B00054604D010220D
:202BA0000A491846FFF7BEFA002C0DD00749102210312046FFF7B6FA2846BDE870400349CF
:202BC00010222031FFF7AEBA70BD0000BC0A002002490A6802604968416070478402002033
:202BE000F0B5654900224FF0FF340A704A708A70CA700A715FF00105C2EB021300EB4303C3
:202C000093F84430DB0707D00B7805FA02F633430B704B785B1C4B70521CD2B2082AEBD3BA
:202C20005FF0000303EB4302024492F82F5105F01F05072D1ED0052D1CD0082D1AD0062D14
:202C400018D00C2D20D00A2D1ED00D2D1CD00B2D1AD0112D22D00F2D20D0122D1ED0102D30
:202C60001CD0152D24D0132D22D0162D20D0142D1ED027E092F8305145F0020582F8305155
:202C8000CD7845F001051CE092F8305145F0020582F83051CD7845F0020512E092F83051F8
:202CA00045F0020582F83051CD7845F0040508E092F8305145F0020582F83051CD7845F0B6
:202CC0000805CD70CD78C5F3C006C5F380073E44C5F340073E4405F0010535440D7192F829
:202CE0003051AD0706D492F92E21002A02DB8A78521C8A705B1CDBB2802B93D390F8282095
:202D0000062A06D190F82920062A02D18B795B1C8B71002303EB4302024492F82F2102F0F9
:202D20001F02172A17D1A34215DD91F80550002202EB4206064496F82F6106F01F06182E74
:202D400006D1A24204DD0F2D02D26D1C4D7102E0521C802AECDB5B1C802BDBDB002283182A
:202D600093F82030152B02D1CB795B1CCB71521CD2B21E2AF3D3F0BD840200202DE9F04FC6
:202D80000546012191B0084605F064F901214FF4017005F077F90020FF4E421E4FF0010994
:202DA00000EB800106EBC101401CCA7281F808904F4681F809900828F2DBDFF8E083002449
:202DC000281990F92000052812D00B2831D00C2847D00D2859D00E2876D00F286FD01028F3
:202DE0006ED01B286DD011286CD012286BD003E198F8011000204246C0EB001305EB43030A
:202E000093F95230A3420FD108290DD201EB810006EBC00000230373C472491C5170107834
:202E2000401C88F80000E7E0401CC0B20828E3D3E2E098F801100020C0EB001305EB4303C4
:202E400093F95230A34207D1082905D201EB810006EBC00007735FE0401CC0B20828EBD30C
:202E6000CAE098F801100020C0EB001305EB430393F95230A34203D1082901D20B2312E008
:202E8000401CC0B20828EFD3B6E098F801100020C0EB001305EB430393F95230A34208D15B
:202EA000082906D2022301EB810006EBC000037332E0401CC0B20828EAD39DE004E018E02A
:202EC00034E048E063E084E098F80110002000BFC0EB001305EB430393F95230A34203D1D4
:202EE000082901D20323DEE7401CC0B20828EFD382E098F801100020C0EB001205EB42020F
:202F000092F95220A2420CD108290AD201EB810006EBC00004220273C472491C88F8011001
:202F20006AE0401CC0B20828E6D365E098F80110002000BFC0EB001305EB430393F95230C9
:202F4000A34203D1082901D20523ACE7401CC0B20828EFD350E098F801100020C0EB00138A
:202F600005EB430393F95230A3420BD1082909D201EB810006EBC0000C230373C47204F053
:202F8000B3FB1BE0401CC0B20828E7D334E098F801100020C0EB001305EB430393F95230F9
:202FA000A34211D108290FD201EB810106EBC10106200873CC72002004F01CFC98F801007B
:202FC000401C88F8010017E0401CC0B20828E1D312E098F801100020C0EB001305EB4303C4
:202FE00093F95230A34203D1082901D20A235AE7401CC0B20828EFD3641C1E2CFFF6E0AE8B
:2030000095F83500192845D195F836001A2841D148246FF0010A0020C0EB001105EB41019C
:2030200091F95220921C1BD191F85810A14217D1C0EB001005EB4000474690F8581098F846
:20304000010000EB800006EBC00041730821017380F80BA0FFF7D1FC7878401C787003E005
:20306000401CC0B20828D7D3641CE4B24B2CD2D95FF00000C0EB001105EB410797F952103B
:20308000891C03D197F85810362910D0401CC0B20828EFD3414698F80080B8F1000F79D029
:2030A00000224F7810468A460023194648E0C0EB001005EB4000444690F8581098F8010061
:2030C000B34600EB800206EBC20047F6FF7241730921017380F80BA040F6FF700090B7F9CF
:2030E0003E000023514207F0C9F81FFA80FA40F6FF70009047F6FF72B7F942000023514206
:2031000007F0BCF882B2607800EB80010BEBC1005146FFF729FD6078401C6070BAE700BFBE
:2031200001EB810406EBC40494F80CC0BCF1000F05D194F90BC0844501D1A2720123491CEB
:20314000B942EDDB0BB1521CD2B2401CC0B20828AAD300264FF460208DF84080CDE90E068B
:20316000DFF83C808DF834900C968DF835900CA944464046FFF7C8FB01212046FFF7ACFBE4
:203180000127DFF820900024281990F82000052822D109E053E000005C0900202801002069
:2031A00000240140440200205FF00000C0EB001105EB410191F95210A14209D13A467F1C43
:2031C000FFB219F8341007234046FFF7C1FB03E0401CC0B20828E9D3641C082CD4DB194C22
:2031E000204601F0F1FC184801901848CDE902069AF80000CDE9040680200690400007901D
:203200008000CDE90806C000CDE90A0601A9204601F078FD012144464046FFF7EDFA2046F9
:20322000FFF7D0FB2046FFF768FB0028FAD12046FFF7D7FB2046FFF759FB0028FAD111B089
:20324000BDE8F08F080002404C2401409C0A00202DE9F04F97B0064600240DF1100A00BFA6
:20326000C4EB041006EB400595F8501095F952000A0995F8581000287EDB311891F92010FC
:20328000052912D00B294BD00C2976D00D2975D00E2973D00F2971D010296FD01B296ED0EC
:2032A00011296DD012296CD0C6E1F94A002100BF01EB810302EBC30393F90B30834203D0D4
:2032C000491CC9B20829F3D395F85300C30816D001EB810102EBC1018A7AEE4931F81210E3
:2032E000C2086FF05400424301EB4200A0E000BF00F6FF70A6E000BFA0F6FF70A2E001EB42
:20330000810002EBC000817AE24830F811108AE147F6FF70E04B00905AF824001A0D63E15E
:203320000021DB4ACDF83C1001EB810302EBC30393F90B30834203D0491CC9B20829F3D3DD
:2033400001EB810802EBC800914607460FA906F031FA44E059F83810491C49F8381095F80E
:203360005300C10819D0C008C0EB0010FFF7E1F80F99FEF75EFF05E0EDE018E036E067E0F5
:203380008CE0A7E0C5490F9088422BD8C449884203DDC449FEF74AFF0F90C3490F98FEF777
:2033A0004BFF0F90FFF7D7F806F0C0FFB1E10021B74A0F9101EB810302EBC30393F90B306C
:2033C000834203D0491CC9B20829F3D301EB810802EBC800914607460FA906F0A1FA0028BF
:2033E000B8D091E0AF49FEF7CFFED5E7A84B002101EB810703EBC70797F90B70874203D073
:20340000491CC9B20829F3D395F85300C00801EB810003EBC000114617D004F0A2F80146FF
:2034200095F853006FF05402C008504301EB40004AF824000028FFF65BAFB0F5805FFFF66A
:2034400067AF59E74AF8240062E704F08AF8F9E700218F4BADF80C1001EB810703EBC70725
:2034600097F90B70874203D0491CC9B20829F3D301EB810803EBC80199460F4603A804F0CF
:2034800013F924E059F83810491C49F8381044E04FF6FF721044CDE0401CCBE000217C4BCB
:2034A000ADF80C1001EB810703EBC70797F90B70874203D0491CC9B20829F3D301EB810828
:2034C00003EBC80199460F4603A804F05DF90028D8D019E000216E4BADF80C1001EB810734
:2034E00003EBC70797F90B70874203D0491CC9B20829F3D301EB810803EBC80199460F4632
:2035000003A8FFF7C7FA18B17868401C786093E059F83800401C49F8380095F85300C108F2
:2035200016D0C008A0EBC00000EB4000BDF80C1000EB801001EB4000564900B2303110F538
:20354000004F21F81400A3DDB0F5004FA4DA73E0BDF80C00DDE0831C02D0C01C7DD06BE047
:203560004B4B002000EB800703EBC7077F7B8F4203D0401CC0B20828F4D300EB800003EBAB
:20358000C003187B082802D0092831D054E095F853001146C00818461CD0FFF727FA95F880
:2035A0005310C908A1EBC10101EB410101EB811110EB41004AF8240003D547F6FF72104461
:2035C00005E0B0F5004F09DBA0F5FE40FF384AF8240003E0FFF70AFA4AF8240047F6FF72CD
:2035E00000925AF824005342002106F047FE90E095F85300C008184618D0FFF7B1FA95F846
:2036000053106FF05402C908514310EB41014AF8241002D501F6FF7105E0B1F5805FFFF6DD
:2036200013AFA1F6FF714AF8241071E6FFF798FA0146F8E721F8140095F84400154942099F
:2036400004EB8400503101EBC0011248303030F9140002F00DFA574600E027E04AF82400EF
:2036600095F851100A065FD401F07F0C47F6FF7200215342CDE90031CDE9022CB5F942304E
:20368000B5F94020B5F93E1006F00AFE7BE000005C0900209C0A00200180FFFF000034C306
:2036A000000034430000B44300007A44FF4902EB420001EB8000B5F942204368934200DD8E
:2036C0004260B5F93E204368934200DA426095F85300C2081FD095F85020C008120902EBDA
:2036E000420201EB82016FF054024968504311EB40014AF8241002D5520C114405E0B1F556
:20370000004F04DBA1F5FE41FF394AF824103AF82400E7498EE795F85000000900EB4000EC
:2037200001EB80004168F0E747F6FF72534200210093CDE901120391B5F94230B5F940201B
:2037400035F93E1F06F0ACFDDFF8648347F82400A8F1100838F91410401A06F023FDE97C43
:203760003E3D01F07F0202EBC20188420DD208F5B87000EB041137F8240000B203F0FAFAF2
:2037800018B138F9140047F8240037F82400BA4601B205F13E000B2205F0CCF847F8240035
:2037A00095F8501001F00F01491C04F0D7FF024647F8240095F84400810702D552424AF83B
:2037C000242095F85A10642964D095F95420002A05DB95F8593003F00703012B15D095F92F
:2037E0005530002B05DB95F85930C3F3C103012B09D095F95630002B39DB95F85930012713
:20380000B7EB531F33D1002A0DDBAA4A04EB440302EBC3021279D20605D595F8592002F06D
:203820000702012A23D095F95520002A0DDBA14A04EB440302EBC302127BD20605D595F8AD
:203840005920C2F3C102012A11D095F95620002A20DB984A04EB440302EBC302127DD20611
:2038600018D595F859300122B2EB531F12D15AF82420400704D54A43642192FBF1F107E012
:2038800047F6FF731A444A43642192FBF1F1C91A4AF8241002F094FA002395F95470864680
:2038A0001A4699461946002F06DB95F8590000F00700052800D1012395F95600002808DB6C
:2038C00095F859C04FF00508B8EB5C1F01D143F00403002F07DB95F859C00CF0070CBCF159
:2038E000030F00D1012295F955C05FEA0C0B08D495F859C0CCF3C10CBCF1030F01D142F0EE
:203900000202002808DB95F859C04FF00308B8EB5C1F01D142F00402002F08DB95F859C0C8
:203920000CF0070CBCF1040F01D14FF00109002808DB95F859C04FF00408B8EB5C1F01D1B1
:2039400049F00409002F06DB95F8597007F00707022F00D10121BBF1000F07DB95F859709F
:20396000C7F3C107022F01D141F00201002807DB95F859000227B7EB501F01D141F004015C
:20398000DFF830B104EB44070BEBC700109707794FEA171C6CF3410707711497077B4FEA60
:2039A000171C6CF3410707731197077D4FEA171C6CF34107077595F954C0BCF1000F0DDBB2
:2039C000DFF8F48008EBCC0C9CF804C04FEA1C18DDF850C068F3041C80F804C095F955C0CD
:2039E000BCF1000F0DDBDFF8D08008EBCC0C9CF804C04FEA1C18DDF844C068F3041C80F8A0
:203A00000CC095F956C0BCF1000F0ADBDFF8A88008EBCC0C9CF804C04FEA1C1C6CF3041788
:203A2000077543EA020757EA090772D0DF071AD00779C7F3001CC7F34008C44505D9109F83
:203A40000EF5FA734BF8373023E0DC46BF070AD5109F5CF83780AEEB0807322F03D9109F34
:203A60004BF837E015E05B072AD5037DC3F30017C3F3400C674503D90EF5FA73036108E003
:203A80009B071DD50769AEEB0703322B18D9C0F810E095F857704FF6FF73B3FBF7F7054B92
:203AA000C03353F824C0674408E0000050160020CC0A0020AC0C00200C12002043F82470F0
:203AC0005FEAC97326D003795F46C3F3001CC3F34008C4450FD9109B0EF5FA7C4BF833C02F
:203AE00095F857504FF6FF73B3FBF5F7974B53F82450ED1B2FE09B070CD5109B57F833C019
:203B0000AEEB0C03322B05D9DDF840C04BF83CE017E035E05FEA49731FD5037DC3F300173C
:203B2000C3F3400C674503D90EF5FA73036108E09B0712D50769AEEB0703322B0DD9C0F8A8
:203B400010E095F857504FF6FF73B3FBF5F57F4B53F824707D1B43F82450D30702D00379DA
:203B6000DB0609D4930702D5037BDB0604D4520706D5027DD20603D5744B002243F824201C
:203B8000A1B1CA0702D00279D20609D48A0702D5027BD20604D4490708D5007DC00605D521
:203BA0005AF824006949404241F82400674A5AF824004FF4004752F8243051460344BB42D4
:203BC00004DB7B1E181A42F824000BE013F5004F08DCA0F5FE40FF3842F824005C4841F872
:203BE000240001E041F82430641CE4B2082CFFF437AB584C00205B4604F1200500EB400268
:203C000003EBC20292F804C05FEACC6C08D5C0EB001C06EB4C0C9CF859C05FEA4C7C26D082
:203C200092F80CC05FEACC6C08D5C0EB001C06EB4C0C9CF859C01CF0180F18D0127DD20691
:203C400007D5C0EB001206EB420292F8592052090DD0C0EB001206EB420292F859205FEA1D
:203C6000427C58D012F0180F55D0520953D0C0EB001206EB420292F844C01CF0180F4AD0C5
:203C8000CCF3C108B8F1010F08D0B8F1020F15D0B8F1030F32D051F820202AE092F853201F
:203CA0005FEA4C7C02F0070251F820C051F8222062441CD447F6FF7C624418E092F853205B
:203CC0005FEA4C7C02F0070251F820C051F8222008D50CEBDC7C4FEA6C0C02EBD272ACEB7F
:203CE000620204E0ACEB0202A2F5FE42FF3A41F82020BA4209DB47F6FF720AE092F85320E3
:203D000002F0070251F82220F1E712F5004F02DC0F4A41F8202031F82020C0EB001C12B24B
:203D200006EB4C0C24F810209CF844C05FEACC7C0AD000BF25F81020401CC0B20828FFF4EE
:203D40005DAF17B0BDE8F08F0022F3E76C0D00200180FFFFBC0A00202DE9FF5F14468846D6
:203D60008346002269461046FEF714FF5FF00005C5EBC50108EB410797F8C30208B33DF901
:203D8000150047F6FF710844C0EB002A002607F2B62912E02078802813D24946524630468E
:203DA00002F018F82278014601290BF8020020780DD0401C761C2070F6B297F8C302B04210
:203DC000E8D86D1CEDB2082DD2D3BDE8FF9F97F8C3022178801BC6B20BF10100084431461E
:203DE000FEF7B9F9207830442070EAE7FEE700002DE9F047814601F0E3FF2649DFF8988085
:203E000000224E788F7808F1800ABE4206D0B24204D9BA4202D8B9F8B45201E0B9F81C50FE
:203E20000AEBC20494F804C061466CF3410118F802C06CF3000121715FEA017C0AD401F0D6
:203E40000105C1F3400C65451DD04AF8320041F0080117E001F00103C1F3400C63450AD1A8
:203E60005AF83230C31AAB4205D921F0080363F38203237107E05AF83230C31AAB4202D91B
:203E800021F008012171521CD2B2802ABDD3BDE8F08700008C0200208C0D00202DE9F04180
:203EA000124C1D4616460F4628B1E17819B910220F49FEF737F93FB1E07828B90C4910222D
:203EC00010393846FEF72EF93EB1E07828B90849102220393046FEF725F9002D04D0E07819
:203EE000002801D120782870BDE8F0818C0200202C1600202DE9F05FDFF8B8930025DFF8EF
:203F0000B0830646A9F5806AAB4696F93603002700280FDA96F9370300280BDA96F9380309
:203F2000002807DA96F93903002803DA96F93A0300284EDB5FF0000404EB4400304490F908
:203F40002E11A94233D190F82F114A092FD04F09791E01228A4098F800100A4217D009EB76
:203F6000C40C23469CF8041061F341018CF8041090F92E210AEBC20032460079800860F3D7
:203F800000018CF80410CA49604608310DE009EBC4000179CB060AD521F07D010171C449B9
:203FA00049F834B023463246083103F007F8641CE4B2802CC0D367B15FF0000404EB4400DD
:203FC000304490F92E11A9422BD198F8002022B327E0002404EB4400821992F92E01A8429C
:203FE00016D109EBC40723463979084661F34100387192F92E210AEBC20132460979890857
:020000040800F2
:2040000061F30000AA4938713846083102F0D6FF641CE4B2802CDDD377E090F82F21520936
:2040200032D0A94207D198F80020D20703D090F82F21520942D0A94207D198F8002092070E
:2040400003D590F82F21520938D0A94207D198F80020520703D590F82F2152092ED0A9428D
:2040600007D198F80020120703D590F82F2152092AD0A94244D198F80010C90640D590F88E
:204080002F0140092BD03BE009EBC407234639790A4661F341023A7190F92E110AEBC100A7
:2040A00083490079800860F300023A7132460831384623E022F07D0202710DE009EBC40058
:2040C0000279D306F6D41BE009EBC4000179CB0616D521F07D01017149F834B00AE009EBD5
:2040E000C4073879C2060BD520F07D00387149F834B038466E4923463246083102F05EFFA3
:20410000641CE4B2802CFFF459AF6D1CEDB2802DFFF4FBAE5A46404688F800B000214C4668
:20412000731893F93633002B08DB04EBC30305781B79C3F300138B402B430370491CC9B2D6
:204140000529EDD35C494FF0010980F803900A624A628A62CA620A614A618A61CA610A60B2
:204160004A608A60DFF850B10023CA60DFF848E119460BF1100B00BF01EB4105354495F819
:2041800030C15FEA8C771DD495F92E71002F19DB5FEACC7704EBC1073F7959D047F3001C27
:2041A00003F007070CF1010C0CFA07FC424F203707EBD3075B1C97F80080DBB24CEA080CDA
:2041C00087F800C095F83051ED0704EBC1052D7943D0C1F3C40C45F3001501F007076D1CD7
:2041E0001BF80C80BD4045EA08050BF80C5000BF0AEBC1052D79C5F3800701F00705AF403D
:20420000C1F3C405491C1EF80580802947EA08070EF80570B0DB264BC2700833002006240A
:204220000726191F4FF0040A4FF0050B4FF0020E4D46FF2713F800C0BCF10D0F32D2DFE816
:204240000CF0311B1D20233126312B2D31312F00C7F3001C03F00707A6E7C5F3001C01F01C
:2042600007050CFA05FCC1F3C4051BF805804CEA080C0BF805C0BBE70C5414E001F800A075
:2042800011E001F800B00EE001F800E00BE04FF0030C01F800C006E00A5404E00E5402E05F
:2042A0000D5400E00F54401C0428C3DBBDE8F09F8C0200200C1200200C160020F8B50446DB
:2042C0000E4600208DF800006A462146304603F06BFC6A462146304604F03AFC094D9DF85C
:2042E00000006A46687021463046FFF735FD9DF80000A8706A462146304604F0D9FC9DF899
:204300000000F8BD8C020020C1B2000A40EA0120704700002DE9F84F0020ADF80000DFF8C2
:2043200034A14BF6BF7648F280074A4D4A4C40F68F7848F60F7BDFF824910AF1440A31E059
:204340000888474A10F00F00107034D0454901EB8001D1F8002CADF80020BDF80020120409
:204360000BD5D1F8002C02EA0802C1F8002C3E4901EB800050F8040C8047BDF800000006C0
:2043800010D537483749007801EB8001D1F8002C02EA0B02C1F8002C344901EB800050F850
:2043A000040C8047DAF800004946A9F800000004C6D4BDE8F88F28682080208800F0300062
:2043C0006080208800F4405020802868304080F4005080F02000384328600888C0062868F4
:2043E00015D400EA0B00286002F070FC26E02188890401D580F400506188C90626D4618888
:20440000890601D580F0200038432860D1E7ADF80000BDF80000000506D5286800EA080030
:20442000286004F053FA09E0BDF800000004B9D5286800EA0800286003F0E8FC2868218869
:204440003040C904D3D580F48050D0E780F01000D5E70000005C00406605002036040020BF
:2044600054050020005000405C04002040040020810008480844D0F8001C490409D5D0F85B
:20448000001C48F68F7211404CF280021143C0F8001C704700500040810008480844D0F85C
:2044A000001C490609D5D0F8001C48F68F72114048F2C0021143C0F8001C704700500040D4
:2044C000810006480144D1F8000C48F68F62104048F280021043C1F8000C70470050004059
:2044E0001C4910B50A680628117801F07F0101D1012902D0212918D029E09078222802D0CB
:20450000212809D023E0507910B1012802D01EE0114915E0114913E0507910B1012802D0D2
:2045200015E00F490CE00F490AE0032802D009280DD101E00C4903E00D4B0C49092018707D
:2045400029B10020916150828847002010BD022010BD000058050020E56D0008B545000819
:20456000D96D00088D450008994500084947000878040020014904F04BBC00008804002008
:20458000014904F045BC000080040020014904F03FBC0000A804002008B10448704704492A
:2045A0000120096808820020704700007C04002058050020014904F02BBC0000980400200A
:2045C00005490968C978042901D300207047034A02EBC10104F01CBC58050020E0040020BA
:2045E00009B9002800D002207047000006490968097801F07F01212901D10B2801D0022034
:20460000704700F095B800005805002070B53848002100688172C1723649C9794172002041
:2046200003F0BAFF4FF40071002004F083F81021002004F055F81821002003F0D9FF58215C
:20464000002004F02FF80020FFF73AFF2A4890F82C10002003F0DCFF002004F011F84FF44C
:20466000C0642146012004F065F84FF48C71012004F018F84FF48E71012003F0B9FF0021A9
:20468000012004F01FF84021012003F0C1FFE5002946012003F0DCFF2021012004F020F808
:2046A0002146022004F046F89821022003F0FAFFD821022003F09CFF0021022004F002F89E
:2046C0004021022003F0A4FF2946022003F0C0FF2021022004F004F8002003F065FF074964
:2046E00001200860064908700649087070BD000058050020C3020020B004002028050020F3
:20470000AF020020B002002004480068807A002802D0034905200860704700005805002041
:2047200028050020014904200860704728050020034804490068C07848600020704700009B
:20474000580500207804002008B104487047044902200968088200207047000079040020A6
:20476000580500207047704710B501F0F7FC01F0A5FB01F00DFD01F0BDFB064900248880F5
:2047800005480068847203F04DFC05F067FB0348046010BD900400205805002028050020E1
:2047A00070B5202000F096FA00281BD0202000F0F3F90021574800F0FBF957480189090609
:2047C000FCD4564E002400BF04EB840006EBC00595F90B00002801DB287A20B1641CE4B233
:2047E000082CF1D370BD082CFCD204EB840006EBC000007B012810D00B2814D0022818D0C1
:2048000003281CD0042821D0052828D00C2832D0062836D00A283AD040E0641C2846E4B2F5
:2048200005F04CF838E0641C2846E4B205F0D2F832E0641C2846E4B202F0E6FE2CE02846FE
:2048400002F0E2FEA87A98B9012106E0284602F0DBFEA87A032808D30AE028464CE02846B8
:2048600002F0D2FEA87A072802D2401CC1B2F4E7641CE4B210E0641C2846E4B202F06AFFC2
:204880000AE0641C2846E4B203F038F904E0641C2846E4B2FEF74AF9082CA3D204EB8400CA
:2048A00006EBC00090F90B100029E1DB017A0029DED0417A0029DBD0017B012913D00B2920
:2048C00015D0022917D0032915D0042913D0052911D00C2914D0062916D00A29C8D1BDE812
:2048E0007040FEF701B9BDE8704004F0BBBFBDE8704005F053B80021BDE8704002F046BED5
:20490000BDE8704002F010BFBDE870400146002003F0BCB81C000240003001405C0900200A
:2049200038B54FF40074204600F0D4F900281BD0204600F031F900211F4800F039F91F480C
:20494000018901890906FCD41D49002000EB800201EBC20494F90B20002A01DB627A22B152
:20496000401CC0B20828F1D338BD00EB800001EBC0000122427200202072207B012804D147
:2049800004F11000062103F0CBFC207B0B28EBD103208DF802002020ADF8000004208DF86F
:2049A00003006946074801F00BF904F110000122042103F0B5FC38BD300002400030014038
:2049C0005C090020000C01402DE9F0474FF4FA784FF4005400274646204600F06BF90028D7
:2049E00035D0204600F0CCF8DFF8CC900021484601F03AFC0021314800F0DAF82E48012597
:204A00002F4C14300188490702D4761EFAD118E0BEB146460121C846484601F043FC404662
:204A20000188890502D5761EFAD10AE04EB1002000EB800104EBC10191F90B20921C08D0C8
:204A400009E007EB870004EBC00045720572BDE8F087497A21B1401CC0B20828E8D3F6E7D0
:204A600000EB800104EBC101401C4D72C5B2154E1EE000BF05EB850004EBC00090F90B109F
:204A8000891C13D1017A89B1417A79B1017B092902D0082903D009E0FEF767F802E0817A55
:204AA000FDF7E1FF3062306A0028D0D06D1CEDB2082DDFD3CBE7000000580040440002404F
:204AC0005C090020040000202DE9F0414FF4003600244FF4FA75304600F0ECF800282AD02B
:204AE000304600F04DF8224F0021384601F0BCFB0021204800F05CF80121384601F0D2FB28
:204B00001D4801263988890502D56D1EFAD10CE05DB100254FEA000405EB850104EBC1000B
:204B200090F90B20921C08D01DE004EB840100EBC10046720672BDE8F081027A9AB954F8BD
:204B40003120521C44F831200672017B08290AD1817A032901D2491C00E00021C9B2FDF73A
:204B600069FF064908626D1CEDB2082DD4D3E2E700580040580002405C090020040000206C
:204B8000C10002D50249086070470249486070470404024000000240C10002D50249086092
:204BA000704702494860704704040240000002400029016802D041F0010102E04FF6FE72DA
:204BC000114001607047000001684FF6FE72114001600021016041608160C1603149314A82
:204BE0000839904203D1486840F00F0006E02D4A1432904204D1486840F0F0004860704766
:204C0000284A2832904203D1486840F47060F5E7244A3C32904203D1486840F47040EDE7A8
:204C2000204A5032904203D1486840F47020E5E71C4A6432904203D1486840F47000DDE7E8
:204C4000184A7832904203D1486840F07060D5E7154A111F904203D1086840F00F0006E06C
:204C6000114A1432904204D1086840F0F000086070470D4A2832904203D1086840F4706072
:204C8000F5E7094A3C32904203D1086840F47040EDE7054A50329042EAD1086840F4702017
:204CA000E5E700000800024008040240406880B27047000001460020CA0001D5034A00E0CB
:204CC000034A12680A4200D001207047000402400000024001460020CA0001D5034A00E05D
:204CE000034A12680A4200D0012070470004024000000240002A026801D00A4300E08A4312
:204D00000260704730B5036847F6F07293430C6A8A682243D1E904452C4322438C692243B7
:204D2000CC6922434C6A22438C6A22431A430260CA6842600A6882604968C16030BD41601C
:204D4000704700002DE9F047DFF89480254F4FF03009D8F8001001F11005088A0E7A08B9B6
:204D6000042E04D0AC88A04215D8042614E01E480178012903D00726102038802BE01B4AAB
:204D8000002112681A4B120403EBD2325160A7F8009001701FE00226844200D90446A96899
:204DA000204688478246002000F0FCFF01462246504605F089F82146002003F083FC288887
:204DC000001B2880688820446880A7F8009009494FF440500880D8F800000672BDE8F08794
:204DE00058050020680500204C050020505C004000600040660500202DE9F0472A4EDFF885
:204E0000AC802B4F35684FF0300935F8100FA968A9B100B3AC88844200D90446204688471B
:204E200082462888001B2880688820446880002000F098FF01462246504603F00BF8288869
:204E400048B14FF44051A8F800100021084603F039FCA7F800902888A988884201D303206D
:204E600001E020B1052031680872BDE8F0873168062008720F480068806880473068007A73
:204E800008280AD00C49002009680C4A090402EBD131486048463880E7E74FF48051A8F860
:204EA00000101020F7E700005805002066050020680500205C050020505C00400060004032
:204EC000F8B55D4C5D4D09262068002729684278062A05D0AAB1082A4DD00A2A50D06BE05B
:204EE0000278520668D18078012804D0022804D0032804D060E0C96956E0096A54E0496AB3
:204F000052E04288B2BBC288022A55D102798ABB0278530601D1838833B102F07F02012A9A
:204F200004D0022A0CD047E045493DE08A69407900219047F0B92068807A0028F4D13BE0EC
:204F4000417901F00F0001F070020B063D4901EB8001D1F8001C03D5C1F30111090102E0C1
:204F6000C1F301310903384B1B78834224D90AB90029D9D120E0007840061DD1334913E0B6
:204F8000027802F07F02012A16D1827AA2B1428892B9027982B9C288012A0DD18A694079F9
:204FA0000021904740B92A4931B120684782816100208847002006E0296820680969407840
:204FC0008847032813D021680A8AA2F57F43FF3B0BD002280ED06AB10878000626D5C88875
:204FE000009082420AD9088218E00E72F8BD20680672F8BD4FF008000872F8BD0ED2286828
:20500000144B90F82C00824201D21F7006E0B2FBF0F400FB142008B901201870286890F82F
:205020002C008882BDE8F840FFF78CBE03200872094900030880F8BD580500205C050020F0
:20504000558E00080050004000050020E98D00082D8E00084C0500206605002070470000BC
:205060000249086008680028FCD170472800002000EB800000E0401E0028FCDC70470100B8
:205080004FF0000000D101207047000010B5002808D0054A00214FF4627354584450091D75
:2050A0009942FAD310BD000000FC00082DE9F0410546FFF7E4FF002813D10B4E00F0BAFC01
:2050C000304600F055FC00244FF462772959301900F088FC241DBC42F8D3BDE8F04100F0CA
:2050E00079BCBDE8F081000000FC000810B501440A4A91F8203002EBC00152F830008988F1
:20510000022B04D000F0DAFD28B1002010BDBDE8104000F0D3BD012010BD00003800002046
:205120000149012008707047AF0200204FF44051012003F08DBA00000149012048707047FB
:20514000AF0200202DE9F043A5B06946022004F095FE9DF800604FF44058022E34D000F094
:205160002FFE4FF4FA6140186F49086000F028FE4FF4FA6140186D490018086000F020FE9C
:205180004FF4FA6140186A490018086000F018FE4FF4FA61401867490018086000F010FEBC
:2051A0004FF4FA614018644900180860634D4FF0240905F55974032E0ED001276946042ED1
:2051C0002FD0052E4BD198E000F0FAFD47F2305140185B490860A0E09DF80160002E3ED052
:2051E0000F2E3CD85548FFF751FF402110A8FCF7B2FF03208DF840008DF8416010A80F2EBB
:205200000BD0C6EB461105EB41013E22801C3E39FCF788FF402210A91EE021464A46801CE0
:20522000F6E79DF8010004260F2819D060B1C0EB401005EB40003E223E38891CFCF772FF96
:205240009DF801000F2810D2C0B2401C8DF880608DF88100022220A9022004F0D7FC58E058
:2052600020464A46891CFCF75DFF288840F27111B1EB101F31D08DF88460FE208DF8850083
:20528000022221A9104604F0C1FC10208DF883008DF8827040022B4DADF8800020A9284654
:2052A00000F08EFCA814ADF8800020A9264800F087FC254E0024254F0C36306880F48050C0
:2052C0003060E86880F40050E8603846FFF7D0FE641CE4B2062CF0D31BE041F2137028803C
:2052E0001648FFF7E3FE1A4801681A4A01F4E06111430160BFF34F8FFEE717A420AD1DCC79
:2053000085E81D0020A8491CFCF730FF08B91648077040216846FCF71EFF4146022003F063
:2053200097F925B0BDE8F0830C000020140000201C0000201800002010000020281700208D
:205340002000002000100140000C0140400D03000CED00E00400FA05626F6F746C6F6164EF
:2053600065722072756E0000000000202DE9F34FFF480C4693B090F90910002907DB90F957
:205380000A10002903DBFB49B1F900104160012101EB410200EB820292F90930002B7DDB46
:2053A00092F90A208046002A78DB00200490059006900790089009900A9004AE451E08AFE8
:2053C0000B9035543D54401C1028FADB4FF0000AD14600F0F5FC834600214FF0010E4046B0
:2053E00001EB410200EB820292F9093003EB4303234493F82FC15FEA5C1812D005EB5C1832
:205400000EFA08FCDFF8708398F800801CEA080F07D093F82EC106F80AC00AF1010303F07E
:20542000FF0A92F90A2002EB4202131993F82F215FEA521C12D005EB521C0EFA0CF2DFF8A2
:2054400038C39CF800C012EA0C0F07D093F82E3107F8093009F1010202F0FF09491C102958
:20546000BEDB01214FEA000A01EB41020AEB820090F909C05FEA0C097ED490F90AC0CDF86E
:2054800038C0BCF1000F77DB037A9B064FEA136C09EB490380F808C0234400E034E00F93B3
:2054A00093F92E81B54B13F8083013B14CF001030372DDF838C00CEB4C0CA444CDF840C02C
:2054C0009CF92E81DFF8B4C21CF808C0BCF1000F05D090F808C04CF0020C80F808C0037A77
:2054E000009303F0030CC3F381039C457CD0631893F87833012B0ED0022B009B03F00F0328
:2055000019D0DFF87CC20DE0491C1029FFF640AF15B0BDE8F08F009BDFF864C203F00F0398
:205520000CF1100C1CF903300C93002B7ED007DD4FF0010805E0DFF848C20CF1200CF1E7FF
:20554000A84690F90B3068F30303C3725AF82280ABEB080CBCF1320F04D843F30308B8EBB7
:20556000231F73D10C9B002B2EDD0F9B93F82F315FEA531C0DD000E035E105EB531C0EFA41
:205580000CF3DFF8F4C19CF800C013EA0C0F0CD115E0DDF83CC000239CF92EC116F9038038
:2055A000C4450CD05B1C102BF8DBDDF84CC00CEBC90393F804C04CF0100C83F804C0C37ABA
:2055C00023F0F00310332AE0109B93F82F315FEA531C0AD005EB53130EFA03FC664B1B78AF
:2055E0001CEA030F0DD117E08FE0DDF840C000239CF92EC117F90380C4450DD05B1C102BA8
:20560000F8DBDDF84CC00E9B0CEBC30393F804C04CF0100C83F804C0C37A43F0F003C372F2
:205620004AF822B0D0F804C00C9B00E053E063444360B3F5004F02DB47F6FF7303E013F558
:20564000004F66DC4F4B436063E0FFE74AF822B0D0F804C00CEB231CC0F804C0DDF800C06C
:205660001B114FEA8C0C80F808C0002B22DD0F9B93F82F315FEA531C0FD005EB531C0EFA30
:205680000CF3DFF8F4C09CF800C013EA0C0F48D0DDF84CC00CEBC9031EE0DDF83CC0002366
:2056A0009CF92EC116F90380C44532D05B1C102BF8DBEDE7109B93F82F315FEA531C12D040
:2056C00005EB531C0EFA0CF3DFF8ACC09CF800C013EA0C0F13D124E093F804C04CF0100C26
:2056E00083F804C015E0DDF840C000239CF92EC117F90380C4450CD05B1C102BF8DBDDF828
:205700004CC00E9B0CEBC303E6E7009B9B08037207E090F90930002B65DB90F90A30002B95
:2057200061DB90F909300E9303EB4303234493F830315B09012B27D0022B28D0032B29D070
:2057400094F81E3090F90A8008EB4808A04498F830814FEA5818B8F1010F1ED0B8F1020FEA
:205760001ED0B8F1030F43D094F81E801AE0000050160020242C01408C0200208C0D0020CB
:2057800038A700080180FFFFB4F8AE32DAE7B4F8B032D7E7B4F8B232D4E7B4F8AE8201E002
:2057A000B4F8B082C1465AF82280ABEB080C9C450AD9DDF84CC00E9B0CEBC30393F804C00C
:2057C0002CF0100C83F804C05AF82230ABEB03034B4508D990F90A20139800EBC20002791B
:2057E00022F010020271491C1029FFF63DAE8FE6B4F8B282D6E700002DE9F04707464FF0A9
:20580000FF3080460021434D88B04FF0010944460E4600BF01EB410305EB8302491C5072F8
:205820009072167245F823601029F3DB97F82800062833D197F8290006282FD10821697244
:205840000921A97203A802F029FC0121C80202F019FC4FF6FF70ADF80400ADF800601020BC
:20586000DFF8B4A0ADF80200ADF806606946504603F048FF97F878034FF0020302281A46F4
:2058800001D0012100E00321504603F039FE2248243006800121504603F01DFE5FF00001F7
:2058A00001EB4100384490F82F0100F01F00172829D1414527DD002000EB40023A4492F860
:2058C0002F2102F01F02182A1AD1A04218DDB9F1100F15D209EB490205EB82024BB253723C
:2058E00044B29472D07A984620F00F00401C20F0F0001030D07209F1010000F0FF0902E0B2
:20590000401C8028D8DB491C8029C9DB08B0BDE8F087000050160020002C01400F48C169D6
:2059200041F0C051C1610E490A6842F480720A600C4B44F24C221A800A6822F480720A602F
:20594000C16921F0C051C16107480168074A01F4E06111430160BFF34F8FFEE7001002401E
:2059600000700040106C00400CED00E00400FA0570B505464FF43026304600F067F80428E5
:2059800011D1094C206940F0020020616561206940F040002061304600F058F8216941F6DD
:2059A000FD721140216170BD0020024008490420CA68D20701D001207047CA68520701D58C
:2059C00002207047C968C906FBD5032070470000002002400248016941F080010161704763
:2059E000002002402DE9F841064600204FF4005700900D46384600F029F8042816D10C4C13
:205A0000206940F0010020613580B846384600F01DF8BF1E042806D1B61C280C00963080E9
:205A2000404600F013F8216939402161BDE8F8810020024003480249416003494160704705
:205A40002301674500200240AB89EFCD00B50346FFF7ACFF03E000BFFFF7A8FF5B1E0128A4
:205A600003D0002B00D1052000BD002BF4D1FAE730B5082A71D2DFE802F0A004182E445A09
:205A800071864E4BB3F900204243132001EB400434F9024C21F8104033F91050401E04FBF5
:205AA000052210F0FF00F1D182E0444B2833B3F9002042435FF0130001EB400434F9024C54
:205AC00021F8104033F91050401E04FB052210F0FF00F1D16CE0394B5033B3F900204243E8
:205AE0005FF0130001EB400434F9024C21F8104033F91050401E04FB052210F0FF00F1D15F
:205B000056E02E4B7833B3F9002042435FF0130001EB400434F9024C21F8104033F91050D8
:205B2000401E04FB052210F0FF00F1D140E0234BA033B3F9002042435FF0130001EB4004DC
:205B400034F9024C21F8104033F91050401E04FB052210F0FF00F1D12AE02EE0174BC8331B
:205B6000B3F900204243132001EB400434F9024C21F8104033F91050401E04FB052210F07D
:205B8000FF00F1D114E00D4BF033B3F9002042435FF0130001EB400434F9024C21F810400E
:205BA00033F91050401E04FB052210F0FF00F1D1642092FBF0F000B2088030BD2A010020B1
:205BC000F0B5CA78002502F00F03D20601D58A7813430A784FF00F0E12F0FF0F4FF001027F
:205BE0001CD004680F8802FA05F63740B74211D14FEA850C0EFA0CF724EA070703FA0CF47F
:205C00003C43CF78282F02D0482F02D002E0466100E006616D1C082DE4D304600C88FF2CE4
:205C20001ED944685FF0000606F1080702FA07F50F882F40AF420FD14FEA860C0EFA0CF7C1
:205C4000BC4303FA0CF73C43CF78282F00D14561CF78482F00D10561761C082EE4D3446099
:205C6000F0BD0000F0B5144C002801DAE36900E06368420D120185B2C0F301579540C0F34C
:205C80000346032F05D0C2020AD50322B240934307E023F07062636823F07063636002E002
:205CA000AB4343F0706201B12A43002801DAE261F0BD6260F0BD00000000014002460020C7
:205CC00092680A4200D0012070470AB1016170474161704730B589B00121042002F0C6F994
:205CE0000121082002F0CEF911200024ADF814001A4DADF81040ADF81640ADF8124004A998
:205D0000284603F0FFFC6020ADF800000120ADF802000920ADF80600ADF80840694628465C
:205D200003F01CFC0821284603F05EFC0121284603F0C4FB4020ADF81C0018208DF81F0035
:205D400003208DF81E0007A90548FFF739FF0121284603F0C0FB09B030BD00000008004026
:205D6000000C01400549096889B201EBC000044901EB4000008980B270470000505C004059
:205D8000006000400549096889B201EBC000044901EB40008089C0F309007047505C0040DC
:205DA000006000400449096889B201EBC000034931F8100080B27047505C004000600040A4
:205DC00003488268C06841084FEA3200704700002800002003004FF0000021D0012B26D05E
:205DE000022B2BD0032B30D0042B35D0052B3AD0062B3FD0072B44D0082B49D0092B4ED0BB
:205E00000A2B53D00B2B0AD1CB7AC3EB0343934205D2097BC1EB0141914200D30120704744
:205E20000B78C3EB03439342F9D84978F2E74B78C3EB03439342F2D28978EBE78B78C3EBD7
:205E400003439342EBD2C978E4E7CB78C3EB03439342E4D20979DDE70B79C3EB0343934209
:205E6000DDD24979D6E74B79C3EB03439342D6D28979CFE78B79C3EB03439342CFD2C97957
:205E8000C8E7CB79C3EB03439342C8D2097AC1E70B7AC3EB03439342C1D2497ABAE74B7A77
:205EA000C3EB03439342BAD2897AB3E78B7AC3EB03439342B3D2C97AACE7000030B5ADF540
:205EC000637D6846FFF7E2F81A230949002004460DF10202155C01F8105001EB4005401C12
:205EE000C0B26C709842F5D30DF5637D30BD0000E70300202DE9FC5F6846FCF769FE954C7F
:205F000005200126207066700920A0700420E070A120207166718520A0710227E671082596
:205F2000684600F01DFF4FF075084FF0950B8121D8B105202072092060721920A072E6728C
:205F40002920207366731520A0730020E07325202074667484F81280E674082084F814B04E
:205F60006075A175E7751825E9E09DF8020000B305222272092262721922A272E6722922DE
:205F8000227360731522A2730022E27325222274401EC21700EB52706674C01084F812805D
:205FA000C000E674083084F814B06075A175E77518259DF80100B0F1000E5DD0052060557F
:205FC0006D1C002066559DF800204FF0090C6D1C06FA00F31A4208D004F805C06D1CABB2FD
:205FE00000F13005E5545B1C9DB2401CC0B20628EED306204FF036094FEA060A0AFA00F3DB
:020000040800F2
:206000001A4207D004F805C06D1CABB204F803905B1C9DB2401CC0B20828EFD316206055A6
:206020006D1CA8B2802204F800A0401C80B22254401C80B226222254401C80B2FF222254CA
:20604000401C80B27F222254401C80B2102204F80080401C80B22254401C80B204F800B021
:20606000401C80B204F800E0401C80B22154401C80B22754401C85B29DF80420002A5ED006
:206080004FF0090904F805906D1CA8B24FF0390C04F800C0401C80B215232354401C80B230
:2060A00000252554401C80B225232354401C80B207232354401C80B235232354401C80B2DB
:2060C00046232554401C80B22354401C80B23B232354401C80B265232654401C80B22354E1
:2060E000401C80B212232354401C80B2082304F80080401C80B22354401C80B24B4604F811
:2061000000B0401C80B22654401C80B22154401C80B22754401C85B201200EE063556D1CD8
:20612000ADB204F805C06D1CADB261556D1CADB267556D1C401CADB2C0B28242EED8C020DD
:2061400060556D1C0449E8B22A0A48768A76BDE8FC9F000005030020C30200200A4810B5C4
:206160000168001D0468001D006808180BD00822064900F0D9FD054920460422BDE810409F
:20618000103100F0D1BD10BDE8F7FF1F1B04002000B5ADF5637D6846FEF778FF0648BDF8E3
:2061A0003C130172090A4172BDF83E138172090AC1720DF5637D00BDB1020020FEE70000C1
:2061C000184882B0002102880092520504D5028822F4806202800091009A920504D5028897
:2061E00022F4806202800091009AD20504D5028822F4807202800091009A120504D5028891
:2062000022F400620280009106481438018841F400410180018821F40041018002B000F0D7
:2062200079BA0000145800400029018802D041F4806101E021F4806101807047024600206E
:20624000938A128B43EA024323F07F42914300D1012070470029018802D041F0010101E029
:2062600021F00101018070470029818802D041F4006101E021F400618180704700298188F8
:2062800002D041F4805101E021F48051818070470029018802D041F4807101E021F4807116
:2062A000018070470029018802D041F4007101E021F40071018070470CB502460020009222
:2062C0000A0F21F07F41019202D0009A143202E0009A090C1832009212680A4200D001206B
:2062E0000CBD002A828801D00A4300E08A4382807047000070B50446808886B00D4620F00D
:206300003F06684601F0CAFE27490298B0FBF1F189B20E43A680228822F001022280234BB9
:206320002A689A421CD85200B0FBF2F080B2042800D20420491C2184A083208840F00100C2
:20634000208021884FF6F5300140A8886A89104308432080A88929890843208106B070BD36
:20636000EB88A3F53F46FF3E0BD002EBC20303EB0212B0FBF2F080B240F48040020506D031
:2063800007E002EB4202B0FBF2F080B2F6E740F001004FF4967251434FF47A72B1FBF2F17B
:2063A00040F40040C6E7000040420F00A0860100B1F5006F018803D021F4006101807047E5
:2063C00041F40061FAE700002DE9FF5F5E4F8B4681464FF4FA741E46254600213846FFF778
:2063E00043FF01213846FFF71FFF01213846FFF74FFFDFF85881BA46474641465046FFF773
:206400001DFFA0B3002D31D04FEA4909254609F0FF010022D046504600F072F9DFF830A11F
:2064200040465146FFF70AFF28B3002D1ED025465946404600F06CF9DFF814A10AF1020AD2
:2064400051464046FFF7FAFEC0B1002D78D0254601214046FFF726FFC2464FF40038414613
:206460005046FFF729FF60B16D1EF8D168E0FFE76D1EC1D164E06D1ED2D161E06D1EDFD1CA
:206480005EE03DB3254601215046FFF701FF39465046FFF7D3FED8B1E5B1274609F0FF0154
:2064A00001225546504600F02BF9DFF8A09009F1010949462846FFF7C1FE60B157B1DFF8C7
:2064C0008C90002709F13F09A346A6F1020A20E06D1EDCD134E07F1EEBD131E049462846F8
:2064E000FFF7ACFE20B314B317485C46103000880299C8550E9850B1574508D10021284636
:20650000FFF792FE4FF2FF712846FFF751FF7F1CFFB2B742E2D301212846FFF7C3FE4646C3
:2065200031462846FFF7C8FE28B1641EF8D107E0641ED3D104E01CB1002004B0BDE8F09FD0
:206540004FF0FF30F9E700000058004001000300820007002DE9FF4F654E82464FF4FA7438
:206560008BB099469046274600213046FFF77CFE604D00212846FEF71BFB5E485838816D4C
:20658000C907FCD14FF47020FEF7FAFA584880211030CDE900080020CDE902090A90079051
:2065A000CDE90510049008904801AB46099069465846FEF7A7FB012202212846FEF79AFBEF
:2065C00002210F2001F0A4FB0F2001F039FB4FF4003529463046FFF76FFE10B17F1EF8D19E
:2065E00000E04FB9308840F400403080308820F40040308000F08EF81898274618B101219D
:206600003046FFF73BFE0121B0463046FFF740FE394E40463146FFF711FE90B3002F64D0E4
:206620004FEA4A07A146F9B20022404600F068F8DFF8C8A040465146FFF700FE28B3FCB16E
:2066400001214046FFF706FE40460C9900F060F8C2462A495046891CFFF7F0FDC0B17CB1EE
:20666000C8464C460121D1465046FFF71BFEAA464D4651462846FFF71FFE60B1641EF8D1A5
:2066800033E0FFE77F1EC4D12FE0641ED2D12CE0641EDED129E02CB301212846FFF7E4FD0F
:2066A00001215846FEF784FA01212846FFF7F0FD31462846FFF7C2FD90B19CB14446F9B2D7
:2066C0000122284600F01CF80B4E761C31462846FFF7B4FD38B12CB100200FB0BDE8F08FE5
:2066E000641EE5D101E0641EF0D14FF0FF30F4E70058004058000240010003008200070036
:2067000012B141F0010101E001F0FE0101827047018270471FB50121880501F0A7FC012105
:20672000084601F097FC4FF48060ADF80A000001ADF80C00ADF806000020ADF804000D4939
:2067400007200D4C0091ADF8080069462046FFF7D1FD01212046FFF77DFD0122110220460E
:20676000FFF7BFFD222001F06BFA0221222001F0CFFA1FBD801A0600005800402DE9FF5F28
:20678000354D07464FF4FA7498469246264600212846FFF769FD01212846FFF745FD012182
:2067A0002846FFF775FDDFF8B4904FF0FF3B49462846FFF743FDF0B1FEB17806010E2646F3
:2067C00000222846FFF79CFF254F28463946FFF735FD98B18EB1264628460199FFF798FF86
:2067E0001F4FBF1C39462846FFF728FD48B126B10026A14616E0761ED9D12BE0761EE4D1E3
:2068000028E0761EEED125E01AF806102846FFF77FFF39462846FFF711FD98B1D4B1761CBD
:206820004C46B6B24645EFD301212846FFF73AFD4FF4003631462846FFF73EFD28B1641E6A
:20684000F8D107E0641EE4D104E01CB1002004B0BDE8F09F5846FAE700580040010003007D
:20686000820007002DE9F0438BB080463448CDE900011020CDE9020200200A908021079036
:20688000CDE905100490089048012E4F4FF4FA740990264669463846FEF734FA01220221EF
:2068A0003846FEF727FA02210E2001F031FA0E2001F0C6F9224D4FF40039103D49462846C4
:2068C000FFF7FAFC10B1761EF8D100E04EB9288840F400402880288820F400402880FFF759
:2068E00019FF264601213846FEF762F901212846FFF7BAFC01212846FFF7CAFC124F4FF0FC
:20690000FF3939462846FFF799FC90B1B6B14FEA4860010E00222846FFF7F2FE0B4E2846F2
:206920003146FFF78BFC38B144B100200BB0BDE8F083761EE5D101E0641EF0D14846F5E7BA
:20694000105800404400024001000300820007002DE9FC5F07460121084601F093FB0121AD
:20696000D348FFF77FF90121D248FFF77BF90121D148FFF777F90121042001F083FB012170
:20698000082001F07FFB0121102001F07BFB4FF48050ADF800004FF01009C84D8DF803906E
:2069A00001268DF8026069462846FFF709F96814C34CADF8000069462046FFF701F9BF4A76
:2069C0004FF496780C3240F271130AE0106880F480501060E06880F40050E0604046FEF795
:2069E0003FFB3888B3EB101FF0D1B6494FF044300860091D0860B34B4FF0000A0C33C3F826
:206A000000A0AB462860AD4B1B1D1860C2F800A020606060C4F80CA0AB4D54464FF0480892
:206A2000381990F9200001283DD0022836D0042839D003283AD005283CD007283DD00928E6
:206A40004ED008285FD0192875D01A2871D00B2870D00C286ED00D286CD00E286AD00F28B3
:206A600068D0102866D01B2864D0112862D0122860D00A2874D01C2873D013285AD0142886
:206A800070D015286FD016286ED017286DD018286CD006286BD000286AD004E1282006E0E8
:206AA0008DF80260F5E08DF80380F9E714208DF80300F5E78DF803A0F2E70E2C7ED10320ED
:206AC0008DF8020080486946B0F87400ADF8000018208DF803005846FFF772F80F249FE780
:206AE0000F2C6BD103208DF8020077486946B0F87C00ADF8000004208DF803005846FFF7FE
:206B00005FF810248CE7102C58D103208DF802006D486946B0F88400ADF8000018208DF876
:206B200003005846FFF74CF801F0B6FC112477E701E01EE030E0152C40D1FFF7EBFD032002
:206B40008DF8020060486946B0F8AC00ADF800001C208DF803005846FFF732F816245FE75C
:206B600032E037E04EE04FE053E055E06BE083E089E0162C22D103208DF8020052486946E8
:206B8000B0F8B400ADF800001C208DF803005846FFF716F8172443E78DF8039003208DF869
:206BA000020005EBC40001908088ADF8000055F834006946FFF704F8019800E021E081883C
:206BC00055F8340001221AE0112C6CD1FFF782F8122425E78DF8039003208DF8020005EB39
:206BE000C40001908088ADF8000055F834006946FEF7E6FF01980022818855F83400FFF74E
:206C000064F850E0042000E018208DF8030003203DE08DF80390FAE78DF80390032005EBC0
:206C2000C4018DF8020001918888ADF8000055F834006946FEF7C4FF55F83400C268019994
:206C400089888A4316E014208DF80300032005EBC4018DF8020001918888ADF8000055F8B1
:206C600034006946FEF7ACFF55F83400C268019989880A43C26016E0082C01D0092C12D1B9
:206C80008DF80380C3E728208DF8030002208DF8020005EBC40069468088ADF8000055F86C
:206CA0003400FEF78DFF641C1E2C92DBBDE8FC9F000130000002300000081A00000C0140D6
:206CC00000100140000801403800002010B5134C2068017A022904D0042902D0062905D099
:206CE00015E0FEF72FF82068007A11E04178052909D10178490606D1C07801F055FC084866
:206D00000068006A80470748006880688047082021680872BDE8104001F056B958050020D7
:206D2000600500205C050020F0B500230A24302537261F4611E000BFB4EB107F02D905EB97
:206D4000107C01E006EB107C01F813C001EB430C00015B1C8CF80170DBB29342ECD3F0BD07
:206D6000417819B9817809B9007908B10020704701207047F0B505460120002302EB420683
:206D80001C461A4631F91270521CD2B23C44082AF8D3E21704EB5272D410002231F91270B8
:206DA000521C3F1B07FB0733D2B2082AF6D3DA1703EB5272D2107643964200DA0020072217
:206DC00001EB420333F8023C21F81230521E12F0FF02F5D10D80F0BD014902F019B800003E
:206DE000A0040020014902F013B80000900400202DE9F0474FF0FF363E4C354600200B180B
:206E000093F82030172B21D154F83030DD6804EBC007BF88BD43DD6045B20023CF1897F8A8
:206E20002070182F0ED154F83370D7F80CC004EBC308B8F804804CEA080CC7F80CC01778C0
:206E40007F1C17705B1CDBB21E2BE7D3401CC0B21E28D4D3284F002097F9003001EB000CFF
:206E60009CF820C0BCF1170F3FD1984201DCA8423BD154F83030D3F80CC004EBC008B8F864
