:020000040800F2
:200000002008002001010008FF090008DD080008FD0900089F010008AD170008000000000F
:20002000000000000000000000000000950C000835060008000000007D0B00081901000822
:200040001B0100081B0100081B0100081B0100081B0100081B0100081B0100081B01000880
:200060001B0100081B0100081B0100081B0100081B0100081B0100081B0100081B01000860
:200080001B0100081B0100081B0100081B010008FD1600081B0100081B0100081B01000849
:2000A0001B0100081B0100081B0100081B0100081B0100081B0100081B0100081B01000820
:2000C0001B0100081B0100081B0100081B0100081B0100081B0100081B0100081B01000800
:2000E0001B0100081B0100081B010008DFF80CD000F018F800480047D51700082008002016
:200100000648804706480047FEE7FEE7FEE7FEE7FEE7FEE7FEE7FEE7FEE7FEE755140008D2
:20012000ED000008064C074D06E0E06840F0010394E8070098471034AC42F6D3FFF7DAFF96
:20014000F01800081019000870B58C1810F8015B15F0070301D110F8013B2A1106D110F8F2
:20016000012B03E010F8016B01F8016B5B1EF9D12B0705D40023521E0DD401F8013BFAE7BF
:2001800010F8013BCB1A921C03E013F8015B01F8015B521EF9D5A142D8D3002070BDFEE7EB
:2001A00040BA70472DE9F84F684C4B4E4B4F4E4DDFF830B1002043F63F784AF2A00948F6C4
:2001C0000F7AADF80200606C3080000458BFBDE8F88F308810F00F00387028D054F8201049
:2001E000ADF80210BDF90210B1F1FF3F0DDC54F8201040F68F72114044F820103849387816
:2002000001EB800050F8040C8047BDF802000006D9D5387854F8201001EA0A0144F820105A
:2002200038780BEB800050F8040C8047CBE720682880288800F030006880288800F44050AB
:200240002880206800EA080080EA0900206031882068C90612D5ADF80200BDF8020000052F
:2002600013D4BDF90200B0F1FF3FACDC206840F68F710840206000F0FBFB0DE048F60F7161
:200280000840206000F04AFB06E0206840F68F710840206000F0D2FD20684BF6BF710840F5
:2002A0002988C90448BF80F480502988890448BF80F400506988C90648BF80F01000698834
:2002C000890648BF80F0200048F28001084380B22060BDE8F88F00BF9E0100200402002070
:2002E0007401002058010020E0010020174951F82020520458BF704751F8202040F60F73A1
:200300001A404CF280031A4341F82020704700BF0E4951F82020520658BF704751F82020E7
:2003200040F60F731A4048F2C0031A4341F82020704700BF054940F60F6351F820201A4089
:2003400048F280031A4341F820207047005C0040B0B50C46054600F02DFB0849002009E043
:2003600015F8012B013C424080B2D2B231F8122082EA1020002CF3D180B2B0BD180200200F
:2003800010B5A74909688A8812B10224204610BD0A78062802F07F0208BF012A0AD0212ACF
:2003A000F3D103280DD00928EFD10B48092202700A4A09E08878212805D02228E5D1084AE3
:2003C00002E0044A00E0074A002400204C828A619047DBE70D0400080E0200203D05000893
:2003E0002104000801040008014900F015BF00BF00000020014900F00FBF00BFD40000201B
:20040000014900F009BF00BF4400002008B11948704783480121006801820020704700BF78
:20042000014900F0F9BE00BF680000207C490968C978032984BF00207047024A02EBC101CC
:2004400000F0EABE10010020084318BF02207047014602200B290BD1714909680A7802F0C0
:200460007F02212A18BF7047C878024908600020704700BF0802002010B569480021006870
:2004800041812649C9794172002000F005FC00204FF4007100F0AEFC0020102100F086FCF4
:2004A0000020182100F01AFC0020582100F066FC0020FFF73FFF1A4890F82C10002000F068
:2004C00019FC002000F04EFC01204FF4C061012400F090FC01204FF4807100F04FFC0120D6
:2004E0004FF4827100F0FAFB0120002100F052FC0120402100F0FEFB01204FF4405100F011
:2005000019FC0120202100F051FC002000F0CAFB184804604D48047010BD00BF08000020D1
:20052000DC0000203E480068807A10B111480521016070470F4804210160704708B10448E6
:20054000704737480221006801820020704700BF0C0200207047704710B500F0A5F930485A
:2005600000240068847200F02BFB01F0C9F80148046010BD140200202DE9F843DFF84C8E7F
:20058000D8F80060378ABFB9304610F8081F042912D126490A78012A3AD1C24A244C13681F
:2005A00004EA43031A440023C2F8B4330B701D4930220A8004212FE0B58ABD422C4688BFFD
:2005C0003C46B169204688478146002000F060F901464846224601F0EBF80020214600F092
:2005E000D9FB308A3021AF42A0EB04003082708A204470820B4801800B484FF4405101801E
:200600004FF0040188BF0221D8F80000083003E0044910220A8007210170BDE8F88300BFC0
:20062000B8010020E2010020E0010020B0010020FEFF0100704701E000BF01380028FBD18A
:200640007047000001480121017070470E0100202DE9F04792B002AC0120214601F05CF817
:200660009DF808004C4E4FF400580428C6F8048040F086809DF809009DF80A1041EA002567
:200680001DB3464F78883978E9B3002800F08280C5EB05118900814235D24148B1460F18CE
:2006A00000F0D0F8002005E0A119B819898800F0ABF8B01CC6B23B2EF6D900F09FF8681CC7
:2006C0004E4681B200294DD15AE0BDF80C103348BDF80E20B1F5604F4180828040D8012151
:2006E000017000F0AFF82E4D002405E060193C3000F066F804F58064B4F5604FF6D100F04F
:200700007DF801212EE03978D1B3C8B32449C5EB0510B1468A4601EB800500F093F800207F
:2007200005E0A119A819898800F06EF8B01CC6B23C2EF6D300F062F879880AF13C00FFF703
:2007400007FEBA884FF2020100284E460AD0824208D100204FF4704138700120787001E035
:200760004FF20101042003228DF80500080A8DF807100DF105018DF80600002000F0E2FE36
:2007800001204FF44051C6F8008000F0D3FA12B0BDE8F0873878F3E71010014096010020E9
:2007A000C41F00080448054A41681060006880F308880847704700BF0020000808ED00E06D
:2007C0001F4951F8042CD207FBD10A6841F6FE731A400A600A6842F002020A60486008688B
:2007E00040F04000086051F8040CC007FBD1086841F6FD72104008600420704710480168CB
:2008000041F08001016070470D4A52F8043CDB07FBD1D2F800C041F6FD7303EA0C031360DF
:20082000136843F001031360018052F8040CC007FBD1106841F6FE71084010600420704774
:2008400010200240044805490160054901608168C907FCD1704700BF04200240230167454A
:20086000AB89EFCDBA490A6892B202EBC00001EB4000B0F8B8037047B5490A6892B202EB3B
:20088000C00001EB4000D0F8BC036FF39F207047AF490A6892B202EBC00001EB4000B0F8DE
:2008A000B0037047505C00400A4908688A68801808BF7047B0B5084D4C680822A91C00F0CA
:2008C0005DF805F1120120460422BDE8B04000F055B800BFE8F7FF1F94000020FEE7000047
:2008E0000B48016841F0180101600A48016821F400610160016841F48061016006490A685E
:2009000042F440120A60416841F440314160704718100240000C01400410014010B5A54C7C
:200920002168084610F8082F022A03D0062A07D0042A12D1FFF720FE206810F8081F0DE0D2
:200940004878052804BF08785FEA40600BD07F480068806880472068083008210170BDE8C6
:20096000104000F00DB9C87800F09CF902480068006A8047EBE700BFC001002010B5013160
:200980004FF0000C4FF0370E10E00EEB1073040FB0F1204F81F800C0A2F101024FEA0010E1
:2009A00038BF04F1300301F8013C0231002AECD110BD0000B0B5DFF840C04FF0000E4AF236
:2009C0000101BEF5807F08BFB0BD1FFA8EF30022002009E083EA020581EA520401305B08A1
:2009E000ED0708BF540822460828F3D32CF81E200EF1010EE5E700BF18020020FEE77047B1
:200A000070470000C2781449D2B110B5174A0723126890F801E0847890F800C023EA12224D
:200A20000F23D340C2F1040223400EFA02F21A4301EB0C03120183F80023BDE8104000E07B
:200A400080310078012300F01F02C0F3421003FA02F241F82020704700E100E002490843BB
:200A600002490860704700BF0000FA050CED00E0F8B5504E3768384610F8081F032903D0DF
:200A8000072929D005292DD1388AB8B1B969A9B1BC8A844288BF0446204688470546388A7B
:200AA000001B3882788A204478820020FFF7DAFE01462846224600F04FF8388AA0B13E4826
:200AC0004FF4405101800020002100F063F93B4830210180398A08E01C480068C068804779
:200AE0003068083008210CE00021BA8A3068914204D2083051B10521017002E0032100F89C
:200B0000081F0170BDE8F84000F03AB8062101700E48006880688047306810F8081F082981
:200B200007D125494FF480520A80244910220A80D8E79D4A074C136804EA43031A4400237E
:200B4000C2F8B4331D4A30231380DAE7BC010020505C0040FEFF0100074B013203EB41016A
:200B60000023A3EB520203E008C9013220F8023B002AF9D1704700BF006000407047000073
:200B800080B50B4890F82C10002000F0B3F809480068007A082806D107494FF480520A8025
:200BA000064910220A800938B0FA80F0400980BDDC000020B8010020E0010020E201002070
:200BC000B0B5334C0120074D20600020288020606068002000F01CF94FF4E050288020606C
:200BE0000020B0BD1804002007281CBF274908702648017805293AD8DFE801F00307141825
:200C00001F2A416851B3052132E021494FF6FB730A681A400A604FF43F420A60042101708F
:200C2000012130E002214170032121E0417801394170417889B904211AE015490A6842F0C9
:200C4000100292B20A60052101700A2141707047417801394170417861B170470C494FF6EA
:200C6000FB730A681A400A604FF43F420A6006210170704706494FF6EF730A681A400A6027
:200C80000621017000214160704700BFA8010020405C004070470000434920F0070008601D
:200CA000704700BF10B50C49584A002340F60F7C48F2800E097809E052F8234004EA0C0441
:200CC0001C4344EA0E0442F8234001339942F3D140F08000D06410BD0C010020324A21F09A
:200CE000010113689BB203EBC00002EB4000C0F8B81370472C4A3F29136802F56F729BB297
:200D000003EBC0000DD3CB064FF0FF3C4FEA511308BF0CEB511399B24FF4004343EA81219B
:200D200004E001F0010303EB5101890242F81010704700BF10B5F74C44F2700254F82030F3
:200D400023EA0202CB0448BF82F48052890448BF82F4005248F28001114389B244F8201052
:200D600010BD00BFEB4943F60F7351F820201A404BF280035A4041F8202070470A4A21F026
:200D8000010113689BB203EBC00002EB4000C0F8B0137047044A13689BB203EBC00002EBCB
:200DA0004000C0F8B4137047505C004010B5D94C47F2400254F8203023EA0202CB0648BFE7
:200DC00082F01002890648BF82F0200248F28001114389B244F8201010BD00BFCD4940F6D7
:200DE0003F7351F820201A4048F2B0035A4041F82020704710B5C74C48F68F1254F8203054
:200E00001A40114344F8201010BD00BF005C004001490860704700BF445C00400548042215
:200E2000016841F0040101600348016862F313410160704718100240040801402DE9FC4133
:200E4000EB4EDFF88885B44FB44D306DD8F800100A7A092A01D1C8881EE007EA4000284480
:200E6000D0F8070007EA40008219441992F800240A70425D4A70B4F80300FFF791F9D8F8FA
:200E800000104880B4F80700FFF78AF9D8F800108880B4F80B00C880012200280A724C78DC
:200EA00027D0620842EAC412D2B2052A00F2D880DFE802F003D6D63F4F55022840F0D080DD
:200EC0004888002840F0CC800879002840F0C880087800F07F00022800F0A680012800F035
:200EE000B880002840F0BC808888002840F0B880C8E0087800F07F0002284CD0012851D05F
:200F000000286CD1601E082869D8DFE800F0056853685B6868686500C87801285FD18888FD
:200F200000285CD1487A800659D582480021416035E00878400640F093808878032869D0D8
:200F400002286BD0012840F08B80754800681C3067E00878400640F08380734A93E00A7865
:200F600002F07F02012A7BD18A7A002A78D04A88002A75D1012873D10879002870D14879B7
:200F8000674909688A6900219047002868D1D8F80010644A77E0032C09D0012C1FD100F0EA
:200FA000CDF81BE00B2C1AD100F0F0F916E000F0B3F913E0C878012811D1888878B900F075
:200FC0009DF916E091F90300002810DB887870B9888860B9887A09E000F07AF948B15048B4
:200FE000006841692046884703280ED008B108200CE0306D002107EA40002844C0F80310AE
:201000004D4830210180062000E00920D8F8001008724CE042480068243002E0404800689C
:20102000203002687ABB1BE04F7907F00F033A0656F823004FF0300258BF4FF4405217F0E0
:20104000700F0DD1D04F3F78BB4209D2104019D106E04879DE4909688A690021904760B110
:20106000DB49D8F800000968407809698847044603280DD1D8F8000017E0D8F80010887A16
:201080000028EDD0294A002000248A614C829047D8F800004FF6FF72018A914205D0022C3D
:2010A00018BF002907D1082100E009210172BDE8FC41FFF765BD90F90020B2F1FF3F06DD4B
:2010C000032101721A484FF440510180EFE7C2880192019B8B4202D20199018212E09142F0
:2010E00010D2BB4A126892F82C20914202D21149002206E0B1FBF2F303FB121111B90D49DE
:2011000001220A70B249096891F82C108182FFF733FACCE7005C0040FEFF010001600040ED
:20112000BC01002035120008F911000855120008E0010020B0010020E2010020F8B5A34895
:201140000168087800F07F00022806D048B9487A00F0DF004872002004E0488808B90879D5
:2011600010B1022001B0F0BD4879864F4FF4405500F07F0410F08002834857F8243018BF86
:20118000302506780220B442ECD22B40EAD0887A0028E6D057F824005AB100F030001028CB
:2011A00021D12046FFF7B4F820463021FFF7FEFD19E000F44050B0F5805F14D11CB1204674
:2011C000FFF794F805E00B4890F82C102046FFF791FD57F8240043F60F7108404BF2800175
:2011E000484047F824007B48006840698047B2E7005C0040DC00002040B180B575480068ED
:2012000000688047714800680A3080BD6F48012100680182002070476C4A002813685A8A2F
:2012200002D00868104470478888801A18820020704700BF40B180B566480068806880479C
:20124000624800680C3080BD60480121006801820020704710B55D490028096814D01B4C28
:2012600000202080087800F07F00022810D0012824D058B9487A022101EA1011C0F3801053
:2012800008441249087015E002200882002415E091F905103B4A01F00F00B1F1FF3F52F827
:2012A00020000DDD00F44050B0F5805F02D10748012101704748006800698047204610BD0D
:2012C00000F030001028F2D0F4E700BF100200203E482D4A00685278C178914203D8827818
:2012E0000AB982880AB10220704780B581723948006840688047002080BD00BF80B5334841
:201300000068417A41F02001417232480068C0698047002080BD00BFB0B52C48F34D1A4C38
:201320000368587900F07F0155F821202478A14226D210F0800C4FF440544FF0020018BF81
:20134000302414421BD05A88CAB9987AC0B143F60F70BCF1000F18BF40F63F7055F8212052
:2013600000EA020049F2800218BF48F29002504045F8210017480068806980470020B0BD2F
:201380000220B0BD005C00400C01002010B5104A0E4C12682068C17840799269904701466F
:2013A000022091B921688A7A7AB1087908B9887808B1022010BD07480068C06880472068F1
:2013C000C1784279C2720173002010BDB8010020BC010020C001002080B5F148DFF870E058
:2013E0000023D0F800C007E000EB830252F8402C92B24EF823200133082BF5D14CF4806219
:2014000092B202604FF6FE320CEA020C0CF2014303600CF58063036043685B05FCD54FF6A0
:20142000FF334360002307E05EF8231000EB8302013389B242F8401C082BF5D14CF48161B4
:201440000160016841F0040189B2016080BD00BFE401002082B03648364A016841F0010123
:20146000016041681140344A4160016811400160016821F480210160416821F4FE014160F9
:201480004FF41F018160002101910091016841F480310160016801F4003100910199013128
:2014A0000191009919B90199B1F5A06FF2D10168890354BF0021012100910099012930D17D
:2014C0001E490A6842F010020A600A6822F003020A600A6842F002020A604168416041688D
:2014E0004160416841F480614160416821F47C114160416841F4E8114160016841F08071FC
:20150000016001688901FCD5416821F003014160416841F002014160416801F00C010829F1
:20152000FAD107484FF00061016002B0704700BF001002400000FFF8FFFFF6FE00200240CB
:2015400008ED00E010B5094C207860B108480068052808D1812000F0F1F80120FFF73EFC6A
:201560000020207000E0FF2040B210BD0E0100201402002080B5FFF751FC00F019F8C64811
:20158000016841F400010160BDE88040AFF3008005480221054A0175564900F10C03C0E947
:2015A0000031826008680047B801002030010020E0B54FF4A060FFF751FA0348019001A899
:2015C000FFF720FA8CBD00BF1401000170B588B0464D474C4F4E686C608030886188014027
:2015E000090402D5FEF7DEFD308861880140490506D54FF6FF3068643E484068804730883F
:2016000061880140890444BF4DF6FF71696461880140C90406D54EF6FF7068640020FFF729
:20162000E3FA30886188014009050CD53248007810B1FFF7D1FE02E00220FFF7D5FA4FF27A
:20164000FF706864308861880140890505D54FF6FF51696421780131217061880840C00551
:2016600041D54FF6FF606864A86C000402D40020606035E0606801306060606804282FD352
:20168000286C00072CD4286C002180B2A060684605E055F8212092B240F821200131082987
:2016A000F7D1A16841F00101A160A16889B22964A16821F00101A160A16889B22964696C91
:2016C0004905FCD54FF6FF316964002105E050F8212092B245F8212001310829F7D1C6E780
:2016E0000720FFF781FA08B070BD00BF005C00409C010020DC00002054010020FFF766BFC9
:20170000274800214FF43F42416002490A800260002070471804002070B500F07F050C469F
:201720002846FFF7A9F806462846FFF79BF8014620463246FFF710FA304670BD70B500F084
:201740007F0614460D463046FFF7A2F8A4B201462846224600F02CF830462146FFF71AFBE2
:20176000002070BD0D484FF48011072301600C4800214160032101600A48016841F00401DC
:20178000016009490A6863F313420A604FF480520A61416821F400014160704780E100E037
:2017A000405C00401810024004080140FEE70000074B013203EB41010023A3EB520204E013
:2017C00030F8023B013221F8043B002AF8D1704700600040FFF784F86420FEF72CFF2E4942
:2017E0002E4B2F4A086840F0C0500860D05A48B1176847F4807717600027D752136823F4B2
:20180000807313600A68274B294C22F0C0520A6025491880254A096801F00401598012684C
:20182000224002F16047B7FA87F77F099F8044F24C23984206D029B9B2F1005F02D1FEF7D5
:20184000B1FFFEE7FFF796FE1B481A4C1D4E1F4F4FF40055814619488246194883461A48B3
:201860008046207850B95046C9F80050FEF7E3FE0D48C0F808545846FEF7DDFE30780028DD
:20188000EFD04046FEF7D7FEFFF76CFF3846FEF7D2FEFEF787FFE4E71C10024010FCFFFFD7
:2018A0000070004090010020080C0140002000080000FE2F960100201410014020A1070039
:2018C0008096980097010020A086010040420F0002E008C8121F08C1002AFAD170477047DB
:2018E000002001E001C1121F002AFBD1704700001019000800000020900100004801000814
:20190000181A00089001002090060000E01800082208332029140902291301012580320963
:20192000042B02031214211001140122191607058103401D01070501071410120132021632
:20194000408304BABE1602010203011A1A443209101005010904A1018504090675089502F5
:20196000811B090708133F9132C01A4C24321910080403090420034612721A6502124A1201
:201980006F127912201246126C126112731A68141272141A03531254124D1233F2325A2601
:2019A0001A12691A63281A6F2E1A6C0412633A740E3A6E1812731A316C32121359051408AE
:2019C00079041B0855081A57041381031B0851101A49041AF50C1AE9041A2D0C41324014D7
:2019E0000201011A703C32041AAE0832261A740832201A940819E81113010A1B08254C2934
:201A0000080912042A351C310B184506240A19511C00000000000000FFFFFFFFFFFFFFFFD9
:201A2000FFFFFFFFFFFFFFFFFFFFFFFFFFFFFFFFFFFFFFFFFFFFFFFFFFFFFFFFFFFFFFFFC6
:201A4000FFFFFFFFFFFFFFFFFFFFFFFFFFFFFFFFFFFFFFFFFFFFFFFFFFFFFFFFFFFFFFFFA6
:201A6000FFFFFFFFFFFFFFFFFFFFFFFFFFFFFFFFFFFFFFFFFFFFFFFFFFFFFFFFFFFFFFFF86
:201A8000FFFFFFFFFFFFFFFFFFFFFFFFFFFFFFFFFFFFFFFFFFFFFFFFFFFFFFFFFFFFFFFF66
:020000040800F2
:20200000981E002001210008D3780008F5600008D1780008E33D0008EF9A00080000000006
:2020200000000000000000000000000005820008E14F000800000000757C00086D8D0008DE
:202040001B2100081B2100081B2100081B2100081B2100081B2100081B2100081B21000860
:202060001B2100081B2100081B2100081B21000841470008A54800084D4900084D4A00088E
:202080001B2100081B2100081B2100081B210008819A00081B2100081B2100081B21000841
:2020A0001B2100081B2100081B2100081B2100080D8E00081B2100081B2100081B210008A1
:2020C0001B2100081B210008F96000081B2100081B2100081B2100081B2100081B210008C3
:2020E0001B2100081B2100081B210008DFF80CD000F036FB00480047D59D0008981E002061
:202100000648804706480047FEE7FEE7FEE7FEE7FEE7FEE7FEE7FEE7FEE7FEE7BD8D0008D1
:20212000ED20000840EA01039B0703D009E008C9121F08C0042AFAD203E011F8013B00F81A
:20214000013B521EF9D27047D2B201E000F8012B491EFBD270470022F6E710B513460A4670
:2021600004461946FFF7F0FF204610BD10B5002200E0521C835C8C5CA34201D1002BF8D1F7
:20218000D8B2E1B2401A10BDF0B480EA0102D40F4200B2EB410F02D20246084611464A00CD
:2021A00042D0C30DDDB2C1F3C752AD1A202D35DAC1F3160141F4000204B15242C5F1200697
:2021C00002FA06F12A411044B3EBD05F23D0C4B1012DA0EBC35009DCF0BC4FF0004202EA4E
:2021E000C352DBB200F5000000F02FBA400000F1807000EBC350A0F1807040EAD17049001B
:2022000009E0490841EAC071A0EBC35000F50000400800EBC350F0BC00F00EBA6142012225
:2022200002EB4101001BF6E7F0BC704781F00041AAE780F00040A7E780EA010210B502F06F
:202240000043400022D04A001FD0010E01EB1261C0F35600C2F3560240F4000042F40002E0
:20226000A0FB022000047F39140400D0401C50EA124001D44000491EC2B20C0604EBD01044
:20228000401C4008802A02D003E0002010BD20F00100002900DA0020184310BD30B480EAA4
:2022A000010202F0004530F0004221F0004013D090B1C30DD40DC2F31601C0F31600E41AC9
:2022C00041F4000140F400027D34914201D3641C00E04900002C02DA30BC002070474FF483
:2022E00000000023914201D3891A034340084FEA4101F7D151B1914202D14FF0004105E093
:2023000002D24FF0010101E06FF0010103EBC450284430BC00F090B9420005D0C0F3C752F0
:202320005242914201DC0020704700EBC15070472DE9FE4F81EA030404F0004421F0004170
:2023400000944FF0000B23F0004350EA01045ED052EA03045BD0C3F30A54C1F30A552C44D7
:20236000A4F2F3340194A0FB0254C1F3130141F48011C3F3130343F4801301FB024400FBB9
:20238000034E840A970A44EA815447EA8357A4FB076802958D0A05FB07854FEA932C04FBF0
:2023A0000C542705029D4FEA065847EA1637B5EB08056EEB070C870E920E47EA811742EA9A
:2023C0008312A7FB0201B6EB0B0164EB00042B0D43EA0C335E1844EB1C50DA465146E7FB75
:2023E0000201C5F313044FEA0B3343EA14534FEA0432019C43EA0603A4F10C040294009CE7
:20240000CDE900B400F05EF903B0BDE8F08F00200146F9E72DE9F04D81EA030404F0004BE9
:2024200021F0004514464FF0000A23F0004150EA050220D054EA01021DD0C5F30A5702468F
:20244000C5F31303C1F31300C1F30A5640F4801543F48013A7EB0608101BD64608F2FD382A
:2024600073EB050002D308F1010801E092185B41B8F1000F03DA00200146BDE8F08D0020BD
:202480004FF48011064684460EE0171B73EB050705D3121B63EB050306434CEA010C490890
:2024A0004FEA300092185B4150EA0107EDD152EA030012D082EA040083EA0501084305D049
:2024C000101BAB4106D20122002306E000224FF0004302E06FF0010253101AEB06004CEB54
:2024E000085110EB0A0041EB0B01BDE8F04D00F0DAB870B521F0004303430CD0C1F30A5534
:202500000024D5EB040564EB0403D617AD1AB34102DB0020014670BD201841EB025170BD7B
:20252000C10F80EAE0700844CA079623002100F08CB896230022114600F087B80EB540F290
:20254000334102910021CDE900110A460B4600F0B9F803B000BD00F0004220F00040C10D8A
:20256000C0F3160040F400007F2901DA00207047962903DCC1F19601C84001E0963988409D
:20258000002AF4D040427047C1F30A5210B5C1F3130140F2FF3341F480119A4201DA002076
:2025A00010BD40F233439A42A2F2334203DC524200F032F810BD904010BD00F0004230F078
:2025C00000400AD0C10D01F56071C0F3160042EA0151C208400711437047002001467047CB
:2025E00001F0004330B421F0004150EA010206D00A0DA2F56072C1F31301002A02DC30BC22
:2026000000207047440F44EAC104C100E01830BC00EBC25000F010B8202A04DB203A21FAA5
:2026200002F00021704721FA02F3D040C2F1200291400843194670470029A8BF7047401C06
:20264000490008BF20F00100704710B4B0FA80FC00FA0CF050EA010404BF10BC704749B143
:20266000CCF1200421FA04F411FA0CF118BF012121430843A3EB0C01CB1D4FEA00614FEA60
:20268000102042BF002010BC704700EBC35010440029A4BF10BC7047401C490008BF20F089
:2026A000010010BC704710B5141E73F1000408DA401C41F1000192185B411A4301D120F041
:2026C000010010BD2DE9F04D92469B4611B1B1FA81F202E0B0FA80F22032904600F052F8E0
:2026E00004460F4640EA0A0041EA0B0153465A46084313D0114653EA010019D0C8F14002F0
:202700005046FFF789FF05460E4650465946424600F038F8084305D0012004E0204639461F
:20272000BDE8F08D0020054346EAE0762C4337430A986305E40AA0EB08000022FD0A44EABE
:2027400047540A3002D500200146E9E7010510196941DDE9084500196941BDE8F04DA2E77C
:20276000064C074D06E0E06840F0010394E8070098471034AC42F6D3FFF7BCFC3CA300085F
:202780005CA30008202A04DB203A00FA02F1002070479140C2F1200320FA03F31943904008
:2027A000704770B58C1810F8015B15F0070301D110F8013B2A1106D110F8012B03E010F8DF
:2027C000016B01F8016B5B1EF9D12B0705D40023521E0DD401F8013BFAE710F8013BCB1A27
:2027E000921C03E013F8015B01F8015B521EF9D5A142D8D3002070BD0029816802D041F05E
:20280000010101E021F00101816070472DE9F05F2D490878002854D000202C4C024600BFE4
:2028200024F81020401CC0B20828F9D3DFF8A080264E0025DFF898B0DFF898A0894608F1FC
:2028400008081036CBF8146099F800104746404602F037FA0121384602F06CF9012157465E
:202860005046FFF7C9FF0121384600F0B0F8022002F0E2F90028FAD0022002F043F900217A
:202880003846FFF7B9FF0021404602F053F9002034F8101036F81020114424F81010401C70
:2028A000C0B20828F4D36D1CEDB2082DCAD3002034F81010C90824F81010401CC0B208283E
:2028C000F6D3BDE8F09F000028010020480A002000000240002401400029816802D041F480
:2028E000807101E021F4807181607047014600208968490700D501207047014600208968BB
:20290000090700D50120704710B542680E4B0C791A400B6842EA04221343436083680B4A55
:202920001340D1E9024222434C7943EA44031A438260C26A097C22F47002491EC9B242EA22
:202940000151C16210BD0000FFFEF0FFFDF7F1FF70B5072409290AD9C568A1F10A0606EB40
:202960004606B440A543B3401D43C56007E0056901EB4106B440A543B3401D4305611F2358
:20298000072A09D2446B521E02EB820293409C4391400C43446370BD0D2A09D2046BD21F83
:2029A00002EB820293409C4391400C43046370BDC46A0D3A02EB820293409C4391400C4388
:2029C000C46270BD816841F00801816070470029816802D041F4A00101E021F4A0018160B7
:2029E0007047816841F004018160704700EB4100B0F8110040BA00B270471CB50446C32023
:202A00008DF80400E3208DF80500607B022301AA012103F04FFE00218DF804108DF805103F
:202A2000002806D10091607B022301AA012103F067FC1CBD70B5044601250E468573C32046
:202A400040EA0610E073E320207400206072607B032204F10E0103F0A1FE10B16572257295
:202A600070BDA67270BD38B5044600202072012504EB41020095607B02230021113203F0B7
:202A800005FD002804D06168491C61606572257238BD00002DE9F041124C0E46074600257B
:202AA000204602F0C5F80028FAD1B07BF17B41EA0024C4F30D003880600404D5304607F002
:202AC0004BFA4FF0FF3584EA142080EA101080EA900080EA5000C00701D06FF001052846F3
:202AE000BDE8F0811C00024030B400210172012141720C493F220A70FF224A7090F90B1066
:202B0000094A52F83130DC6802EBC10189888C43DC60012300F10E0130BC0222014805F036
:202B2000F5B90000C90200203800002010B504460021094801F0FEFF94F90B00074951F804
:202B40003020D36801EBC00080880343D36001202072607210BD00001C00024038000020B5
:202B6000008A40BA00B27047704738B504460020207201250095607B042304F10E020C21D9
:202B800003F084FC002803D06168491C6160257238BD000070B514460B00054604D0102271
:202BA0000A491846FFF7BEFA002C0DD00749102210312046FFF7B6FA2846BDE870400349CF
:202BC00010222031FFF7AEBA70BD0000680A002002490A6802604968416070478402002087
:202BE000F0B5594900224FF0FF330A704A708A70CA700A715FF00105C2EB021400EB4404CD
:202C000094F84440E40707D00C7805FA02F634430C704C78641C4C70521CD2B2082AEBD392
:202C20005FF0000202EB4204251895F82F4104F01F04072C1ED0052C1CD0082C1AD0062C31
:202C400018D00C2C1AD00A2C18D00D2C16D00B2C14D0112C16D00F2C14D0122C12D0102C74
:202C600010D0152C12D0132C10D0162C0ED0142C0CD00FE0CC7844F001040AE0CC7844F028
:202C8000020406E0CC7844F0040402E0CC7844F00804CC70CC78C4F3C006C4F380073E44A5
:202CA000C4F340073E4404F0010434440C7195F83041A40706D495F92E41002C02DB8C7819
:202CC000641C8C70521CD2B2802AABD390F82820062A06D190F82920062A02D18C79641C2E
:202CE0008C71002404EB4402024492F82F2102F01F02172A17D19C4215DD91F80550002252
:202D000002EB4206064496F82F6106F01F06182E06D19A4204DD0F2D02D26D1C4D7102E0E8
:202D2000521C802AECDB641C802CDBDB0022831893F82030152B02D1CB795B1CCB71521CC2
:202D4000D2B21E2AF3D3F0BD840200202DE9F04F0546012197B0084604F0D4FF01214FF40B
:202D6000017004F0E7FF0020FF4E421E4FF0010900EB800106EBC101401CCA7281F808902A
:202D80004F4681F809900828F2DBDFF8E0830024281990F92000052810D00B282FD00C28D4
:202DA00045D00D2857D00E2869D00F287FD0102875D0112874D0122873D0DEE098F80110D7
:202DC00000204246C0EB001305EB430393F95230A3420FD108290DD201EB810006EBC00056
:202DE00000230373C472491C51701078401C88F80000C2E0401CC0B20828E3D3BDE098F8F7
:202E000001100020C0EB001305EB430393F95230A34207D1082905D201EB810006EBC0009C
:202E20000773A1E0401CC0B20828EBD3A5E098F801100020C0EB001305EB430393F9523093
:202E4000A34203D1082901D20B2388E0401CC0B20828EFD391E098F801100020C0EB00136F
:202E600005EB430393F95230A34203D1082901D2022374E0401CC0B20828EFD37DE098F82B
:202E800001100020C0EB001305EB430393F95230A34207D1082905D2032360E007E01AE0F3
:202EA0002DE04EE0401CC0B20828EBD365E098F801100020C0EB001305EB430393F9523013
:202EC000A34203D1082901D2042348E0401CC0B20828EFD351E098F801100020C0EB001376
:202EE00005EB430393F95230A34203D1082901D2052334E0401CC0B20828EFD33DE098F828
:202F000001100020C0EB001305EB430393F95230A34211D108290FD201EB810106EBC10184
:202F200006200873CC72002004F0C0FA98F80100401C88F8010020E0401CC0B20828E1D3C4
:202F40001BE098F801100020C0EB001305EB430393F95230A3420CD108290AD20A2301EBCB
:202F6000810006EBC0000373C472491C88F8011003E0401CC0B20828E6D3641C1E2CFFF624
:202F800007AF95F83500192846D195F836001A2842D148246FF0010A5FF00000C0EB001168
:202FA00005EB410191F95220921C1BD191F85810A14217D1C0EB001005EB4000474690F88D
:202FC000581098F8010000EB800006EBC00041730821017380F80BA0FFF70FFD7878401C1A
:202FE000787003E0401CC0B20828D7D3641CE4B24B2CD1D95FF00000C0EB001105EB4107E4
:2030000097F95210891C03D197F85810362910D0401CC0B20828EFD3414698F80080B8F10F
:20302000000F7CD000224F7810468A460023194648E0C0EB001005EB4000444690F8581017
:2030400098F80100B34600EB800206EBC20047F6FF7241730921017380F80BA040F6FF70FE
:203060000090B7F93E000023514206F017FF1FFA80FA40F6FF70009047F6FF72B7F94200A8
:203080000023514206F00AFF82B2607800EB80010BEBC1005146FFF767FD6078401C607057
:2030A000BAE700BF01EB810406EBC40494F80CC0BCF1000F05D194F90BC0844501D1A27295
:2030C0000123491CB942EDDB0BB1521CD2B2401CC0B20828AAD300264FF460208DF820806D
:2030E000CDE90606DFF888808DF8149004968DF8159004A944464046FFF706FC0121204605
:20310000FFF7EAFB0127DFF86C900024281990F82000052818D10020C0EB001100E054E0C6
:2031200005EB410191F95210A14209D13A467F1CFFB219F8341007234046FFF709FC03E005
:20314000401CC0B20828E7D3641C082CDEDB0A4C204601F0FBFC06484C3009900748CDE93E
:203160000A069AF800000BE00809002028010020002401404402002008000240480A0020C1
:20318000CDE90C0680200E9040000F908000CDE91006C000CDE9120609A9204601F074FDF6
:2031A000012144464046FFF727FB2046FFF70AFC2046FFF7A2FB0028FAD12046FFF711FC0E
:2031C0002046FFF793FB0028FAD117B0BDE8F08F2DE9F04F8DB007465FF00004C4EB041032
:2031E00007EB400595F8501095F952000A0995F85830002870DB391891F92010052910D017
:203200000B2950D00C2968D00D2967D00E2965D00F2963D0102961D011297DD012297CD031
:2032200082E1FA4A002100BF01EB810302EBC30393F90B30834203D0491CC9B20829F3D3AE
:2032400095F85300C3081CD001EB810102EBC101C0088A7AEE4931F812206FF0540148431D
:2032600004A912EB400041F8240002D500F6FF7004E0B0F5805F0FDBA0F6FF7041F8240017
:203280000AE001EB810002EBC000817AE04830F8111004A840F8241047F6FF70009004A8BE
:2032A00050F824008BE00021D84A0C9101EB810302EBC30393F90B30834203D0491CC9B2F5
:2032C0000829F3D301EB810802EBC800914606460CA906F093F844E00AE12AE048E000BF74
:2032E00059F83810491C49F8381095F85300C10815D0C008C0EB0010FFF71BF90C99FEF792
:2033000098FFC4490C9088422ED8C349884206DDC249FEF78BFF01E05AE09BE00C90C0491F
:203320000C98FEF789FF0C90FFF715F906F00DFE4BE00021B54A0C9101EB810302EBC303C0
:2033400093F90B30834203D0491CC9B20829F3D301EB810802EBC80691460CA9304606F00F
:20336000F3F80028BCD091E0AC49FEF70DFFD2E7A64B002101EB810603EBC60696F90B6055
:20338000864203D0491CC9B20829F3D395F85300C00801EB810003EBC000114612D003F0CC
:2033A000E9FF22E1B0F5805F04DBA0F6FF7000BF41F8240047F6FF70009051F82400994B11
:2033C0001A0D07E103F0D6FF30E19149303185E000218E4BADF8001001EB810603EBC60689
:2033E00096F90B60864203D0491CC9B20829F3D301EB810803EBC80199460E46684604F060
:2034000023F8E8BB59F83810491C49F8381095F85300C1081BD0C008A0EBC00000EB400095
:20342000BDF8001000EB801001EB400001B27848303011F5004F20F8141003DC4FF6FF7227
:20344000114452E0B1F5004F6EDB491C4DE0BDF80000BAE700216D4BADF8001001EB8106BE
:2034600003EBC60696F90B60864203D0491CC9B20829F3D301EB8108994603EBC80100E03B
:2034800004E00E466846FFF705FB18B17068401C706049E059F83810491C49F8381095F846
:2034A0005300C1081DD0C008A0EBC00000EB4000BDF8001000EB801001EB4000544900B20A
:2034C000303110F5004F21F8140003DC4FF6FF72104403E0B0F5004F26DB401C21F81400C0
:2034E00022E04B48BDF80010303020F814101BE0811C02D0C01C71D016E04449002000BFED
:2035000000EB800601EBC606767B9E4203D0401CC0B20828F4D300EB800001EBC000017B86
:20352000082926D009295AD095F8440004EB840142093748503000EBC101203830F9140037
:2035400002F026FA04A941F8240002F063FC4FF00009019195F9543083464946CA4648461C
:20356000002B05DB95F8592002F00702052A7DD0A0E095F85310C90811461ED0FFF736FA17
:20358000014695F85300C008A0EBC00000EB400000EB801011EB400004A941F8240003D52D
:2035A00047F6FF72104405E0B0F5004F0BDBA0F5FE40FF3841F8240005E0FFF717FA0146B0
:2035C00004A840F8241047F6FF7204A8009250F824005342002106F061FCF6E628E095F801
:2035E0005310C90820D0FFF7BBFA95F853106FF05402C908514310EB410004A941F82400AC
:203600007FF5D0AE00F6FF70D2E6000008090020480A0020000034C3000034430000B44393
:2036200000007A440180FFFFFFF79AFA04A9BFE6FF4B02EB420003EB80004FF4004241685C
:20364000914201DB511E03E011F5004F01DCF949416095F85300C10820D095F850100909BC
:2036600001EB410103EB8101496800E020E0C0086FF05403584311EB400104A840F82410AD
:2036800002D55A0C114404E0914204DBA1F5FE41FF3940F8241030F8240096E695F85000E4
:2036A000000900EB400003EB8000416804A8F0E74FF0010995F95620002A07DB95F859C03D
:2036C0000526B6EB5C1F01D149F00409002B06DB95F8596006F00706032E00D1012195F984
:2036E0005560002E08DB95F859C0CCF3C10CBCF1030F01D141F00201002A08DB95F859C05A
:203700004FF00308B8EB5C1F01D141F00401002B08DB95F859C00CF0070CBCF1040F01D1E4
:203720004FF0010A002A08DB95F859C04FF00408B8EB5C1F01D14AF0040A002B06DB95F870
:20374000593003F00703022B00D10120002E07DB95F85930C3F3C103022B01D140F00200F3
:20376000002A07DB95F859200223B3EB521F01D140F00400B04A04EB440302EBC306009384
:203780003279130963F341023271337B96461A0962F341033373327D4FEA121C6CF3410282
:2037A000327595F954C0BCF1000F0CDBDFF88C8208EBCC0C9CF804C04FEA1C18F44668F313
:2037C000041C86F804C095F95580B8F1000F0ADBDFF868C20CEBC80C9CF804C04FEA1C1CF2
:2037E0006CF30413337395F95630002B08DBDFF84CC20CEBC3031B791B0963F3041232751E
:2038000049EA010252EA0A027ED05FEAC97226D03279DFF82482C2F30013C2F3400C6345C9
:2038200007D94FF4FA731BEB0302009B48F8332038E0920713D5009AC646019B58F8322042
:203840004FF0000CBBEB020863F10003D8F132027CEB030C03DA009A4EF832B022E05FEAB9
:2038600049722CD5327DC2F30013C2F3400C634505D94FF4FA731BEB0302326112E09207B5
:203880001DD53269019BBBEB020263F100034FF032084FF0000CB8EB02027CEB030C0EDA35
:2038A000C6F810B095F857304FF6FF72B2FBF3F3614AC03252F824C0634442F824305FEAE4
:2038C000CA7231D03279DFF87081C2F30013C2F3400C634508D9DDF800C04FF4FA731BEB9B
:2038E000030248F83C2018E092071DD5009A019BC14658F832C04FF03208BBEB0C0263F1A4
:2039000000034FF0000C00E040E0B8EB02027CEB030C09DA009B49F833B095F857304FF641
:20392000FF72B2FBF3F314E05FEA4A721AD5327DC2F30013C2F3400C634536D94FF4FA73BC
:203940001BEB0302326195F857204FF6FF73B3FBF2F3394A02F1C00252F824C0ACEB030378
:2039600042F82430CA0702D03279D20609D48A0702D5327BD20604D4490707D5317DC90648
:2039800004D52D4A0021C03242F8241098B3C1071FD03179C9061CD504A850F8240041424F
:2039A0002548C03040F8241025E09207DAD53369019ABBEB030362F100024FF032084FF001
:2039C000000CB8EB03037CEB020CCBDAC6F810B0A3E7810702D5317BC90604D440070AD538
:2039E000307DC00607D504A8134950F824004042C03141F824001048C03050F82410B1F5CA
:203A0000803F02DB4FF6FF7103E011F5803F02DC0B4940F824100DF1100850F8240058F83D
:203A200024204FF40049104448F82400484509E0F81500200180FFFF580C0020B81100206F
:203A40000100FFFF04DB47F6FF7148F8241006E0414610F5004F02DCC54841F8240095F8D1
:203A6000510001062DD447F6FF7200F07F0000215342CDE90031CDE90220B5F94230B5F98D
:203A80004020B5F93E1058F8240006F019FA48F8240001B205F13E000B2204F0C5FD48F8DF
:203AA000240095F8501001F00F01491C04F0D0FC48F82400014695F8440080074ED549421E
:203AC0001DE0AC4858F8241030F91400081A06F07DF9014695F8510000F07F0202EBC20061
:203AE00081420FD2A44800EB041138F8240000B203F0B2F830B19F48103830F9141048F8F6
:203B000024102BE047F6FF7200205142CDE90010CDE90220B5F94230B5F94020B5F93E103D
:203B200058F8240006F0CCF948F8240001B205F13E000B2204F078FD48F8240095F8501024
:203B400001F00F01491C04F083FC48F8240095F84410890702D5404248F8240095F85A0013
:203B6000642859D095F95410002905DB95F8592002F00702012A15D095F95520002A05DB77
:203B800095F85920C2F3C102012A09D095F95620002A2ADB95F859300122B2EB531F24D133
:203BA000002908DB3179C90605D595F8591001F00701012919D095F95510002908DB317BF9
:203BC000C90605D595F85910C1F3C10101290CD095F9561000291FDB317DC9061CD595F8B8
:203BE00059200121B1EB521F16D195F84410490706D558F824204243642092FBF0F009E037
:203C000058F8241047F6FF7319444143642091FBF0F0C01A48F82400641CE4B2082CFFF425
:203C2000DDAA554C002080344146A4F5F875A4F5E87600BF00EB400204EBC2031A79D206F9
:203C400007D5C0EB001207EB420292F85920520723D01A7BD20608D5C0EB001207EB420209
:203C600092F8592012F0180F17D01A7DD20607D5C0EB001207EB420292F8592052090CD0B9
:203C8000C0EB001207EB420292F85920530754D012F0180F51D052094FD0C0EB001207EB3D
:203CA000420292F8443013F0180F46D0C3F3C10CBCF1010F08D0BCF1020F14D0BCF1030F09
:203CC0002ED051F8202026E092F853205B0702F0070251F8203051F822201A4419D447F651
:203CE000FF731A4415E092F853205B0702F0070251F8203051F8222007D503EBD3735B1006
:203D000002EBD272A3EB620203E09A1AA2F5FE42FF3A41F820204A4509DB47F6FF720AE055
:203D200092F8532002F0070251F82220F1E712F5004F02DC0E4A41F8202031F8202013B2F5
:203D4000C0EB001207EB420225F8103092F84420D20702D026F8103002E0002226F81020CA
:203D6000401CC0B20828FFF465AF0DB0BDE8F08F0180FFFF780A0020D80B00202DE9FF5FC5
:203D8000174688468346002269461046FEF702FF5FF00004C4EBC40108EB410696F8C302BE
:203DA000C8B10025EA4606F2B62910E03878802811D24A463AF91400294601F091FF3A78BA
:203DC0000BF802003878401C6D1C3870EDB296F8C302A842EAD8641CE4B2082CDAD3BDE867
:203DE000FF9FFEE72DE9F047814602F013F82649DFF8988000224E788F7808F1800ABE425F
:203E000006D0B24204D9BA4202D8B9F8B45201E0B9F81C500AEBC20494F804C061466CF35F
:203E2000410118F802C06CF3000121715FEA017C0AD401F00105C1F3400C65451DD04AF808
:203E4000320041F0080117E001F00103C1F3400C63450AD15AF83230C31AAB4205D921F01A
:203E6000080363F38203237107E05AF83230C31AAB4202D921F008012171521CD2B2802A40
:203E8000BDD3BDE8F08700008C020020380D002070B51C4615460E4618B110220B49FEF7E9
:203EA00041F92EB10949102210393046FEF73AF92DB10649102220392846FEF733F9002C0B
:203EC00002D003480078207070BD0000D81500208C0200202DE9F05FDFF878930026DFF891
:203EE00070830446A9F5806AB34694F93603002700280FDA94F9370300280BDA94F938036A
:203F0000002807DA94F93903002803DA94F93A03002846DB5FF0000505EB4500021992F988
:203F20002E01B0422CD192F82F01410928D04709791E0120884098F80010084210D009EBD9
:203F4000C50001790B4661F34103037192F92E210AEBC2010979890861F30003037109E06C
:203F600009EBC5000279D3060AD522F07D02027149F835B0B6492B462246C91D02F090FFEC
:203F80006D1CEDB2802DC7D35FB1002505EB4500204490F92E11B1422AD198F800201AB3B1
:203FA00026E0002505EB4500031993F92E01B04215D109EBC5000279114662F3410101715E
:203FC00093F92E310AEBC3022B461279920862F3000101719E492246C91D02F061FF6D1CCE
:203FE000EDB2802DDED36DE090F82F21520932D0B14207D198F80020D20703D090F82F2143
:020000040800F2
:2040000052097DD0B14207D198F80020920703D590F82F21520939D0B14207D198F8002055
:20402000520703D590F82F2152096AD0B14207D198F80020120703D590F82F21520960D013
:20404000B1423AD198F80010C90636D590F82F01400955D031E009EBC5072B463A79114676
:2040600062F34101397190F92E210AEBC20022460079800860F30001397175493846C91DE7
:2040800019E000BF21F07D0101710EE009EBC5073979CA0611D521F07D01397149F835B0F2
:2040A000384604E022F07D02027149F835B068492B462246C91D02F0F3FE6D1CEDB2802D4C
:2040C000FFF464AF761CF6B2802EFFF40EAF5A4688F800B041460020CB46231893F936338A
:2040E000002B08DB0BEBC3030D781B79C3F3001383402B430B70401CC0B20528EDD301E0CC
:204100007FE077E04FF0E0274FF0805900214FF0010EC7F8809150484F4DD44602624262F6
:204120008262C262026142618261C261026042608260C260002000BF00EB40031E1996F891
:2041400030315FEA837823D496F92E61002E1FDBDB070BEBC0031B795AD043F3001301F0EA
:2041600007065B1C03FA06FA3B4E203606EBD10696F800804AEA08033370374E103606EB6B
:20418000D106491C96F80080C9B24AEA080333700CEBC00300F007061B79C3F38003B34001
:2041A000C0F3C406401C15F80680802843EA0803AB55C1DB7546C7F80091254B0020DB1D84
:2041C00006260727191F4FF004094FF0050A4FF0020B4FF0030EFF2413F800C0BCF10D0F60
:2041E0002FD2DFE80CF02E1A1C1F222E252E282A2E2E2C0009EBC5000279D3063FF552AFB9
:204200005BE709EBC5000179CB063FF53BAF54E7C3F3001301F00706A4E70E5412E001F860
:2042200000900FE001F800A00CE001F800B009E001F800E006E00A5404E00F5402E00D5441
:2042400000E00C54401C0428C6DBBDE8F09F00008C020020B8110020B8150020F8B5044646
:204260000E4600208DF800006A462146304603F0F1FA6A462146304604F0FEFA094D9DF876
:2042800000006A46687021463046FFF777FD9DF80000A8706A462146304604F077FB9DF81A
:2042A0000000F8BD8C020020C1B2000A40EA0120704700002DE9F84F0020ADF80000DFF823
:2042C00034A14BF6BF7648F280074A4D4A4C40F68F7848F60F7BDFF824910AF1440A31E0BA
:2042E0000888474A10F00F00107034D0454901EB8001D1F8002CADF80020BDF8002012046A
:204300000BD5D1F8002C02EA0802C1F8002C3E4901EB800050F8040C8047BDF80000000620
:2043200010D537483749007801EB8001D1F8002C02EA0B02C1F8002C344901EB800050F8B0
:20434000040C8047DAF800004946A9F800000004C6D4BDE8F88F28682080208800F03000C2
:204360006080208800F4405020802868304080F4005080F02000384328600888C006286854
:2043800015D400EA0B00286002F01CFC26E02188890401D580F400506188C90626D461883C
:2043A000890601D580F0200038432860D1E7ADF80000BDF80000000506D5286800EA080091
:2043C000286004F0FDF809E0BDF800000004B9D5286800EA0800286003F06EFB286821889D
:2043E0003040C904D3D580F48050D0E780F01000D5E70000005C00407A0500204A040020F8
:2044000068050020005000407004002054040020810008480844D0F8001C490409D5D0F87F
:20442000001C48F68F7211404CF280021143C0F8001C704700500040810008480844D0F8BC
:20444000001C490609D5D0F8001C48F68F72114048F2C0021143C0F8001C70470050004034
:20446000810006480144D1F8000C48F68F62104048F280021043C1F8000C704700500040B9
:204480001C4910B50A680628117801F07F0101D1012902D0212918D029E09078222802D02B
:2044A000212809D023E0507910B1012802D01EE0114915E0114913E0507910B1012802D033
:2044C00015E00F490CE00F490AE0032802D009280DD101E00C4903E00D4B0C4909201870DE
:2044E00029B10020916150828847002010BD022010BD00006C050020C96C000855450008E3
:20450000BD6C00082D45000839450008E94600088C040020014904F0E9BA00009C040020E2
:20452000014904F0E3BA000094040020014904F0DDBA0000BC04002008B10448704704492A
:20454000012009680882002070470000900400206C050020014904F0C9BA0000AC04002092
:2045600005490968C978042901D300207047034A02EBC10104F0BABA6C050020F404002056
:2045800009B9002800D002207047000006490968097801F07F01212901D10B2801D0022094
:2045A000704700F095B800006C05002070B53848002100688172C1723649C979417200208E
:2045C00003F064FE4FF40071002003F02DFF1021002003F0FFFE1821002003F083FE58210C
:2045E000002003F0D9FE0020FFF73AFF2A4890F82C10002003F086FE002003F0BBFE4FF4A6
:20460000C0642146012003F00FFF4FF48C71012003F0C2FE4FF48E71012003F063FE002101
:20462000012003F0C9FE4021012003F06BFEE5002946012003F086FE2021012003F0CAFEB8
:204640002146022003F0F0FE9821022003F0A4FED821022003F046FE0021022003F0ACFE4E
:204660004021022003F04EFE2946022003F06AFE2021022003F0AEFE002003F00FFE07491A
:2046800001200860064908700649087070BD00006C050020DF020020C40400203C050020FB
:2046A000CB020020CC02002004480068807A002802D0034905200860704700006C05002056
:2046C0003C05002001490420086070473C050020034804490068C0784860002070470000D4
:2046E0006C0500208C04002008B10448704704490220096808820020704700008D040020CB
:204700006C0500207047704710B501F0C3FC01F087FB01F0D9FC01F09FFB064900248880E6
:2047200005480068847203F0D5FA05F0ABF90348046010BDA40400206C0500203C0500203D
:2047400070B5202000F088FA00281BD0202000F0E5F90021504800F0EDF9504801890906A1
:20476000FCD44F4E002400BF04EB840006EBC00595F90B00002801DB287A20B1641CE4B29A
:20478000082CF1D370BD082CFCD204EB840006EBC000007B01280ED00B2812D0022816D027
:2047A00003281AD004281FD0052826D0062830D00A2834D03AE0641C2846E4B204F092FE20
:2047C00032E0641C2846E4B204F018FF2CE0641C2846E4B202F01EFE26E0284602F01AFE1C
:2047E000A87A98B9012106E0284602F013FEA87A032808D30AE0284644E0284602F00AFEC1
:20480000A87A072802D2401CC1B2F4E7641CE4B20AE0641C2846E4B202F0CAFF04E0641C26
:204820002846E4B2FEF782F9082CABD204EB840006EBC00090F90B100029E7DB017A0029FC
:20484000E4D0417A0029E1D0017B012911D00B2913D0022915D0032913D0042911D0052916
:204860000FD0062912D00A29D0D1BDE87040FEF73BB9BDE8704004F009BEBDE8704004F0DD
:20488000A1BE0021BDE8704002F088BDBDE870400146002002F056BF1C000240003001407A
:2048A0000809002038B54FF40074204600F0D4F900281BD0204600F031F900211F4800F0F5
:2048C00039F91F48018901890906FCD41D49002000EB800201EBC20494F90B20002A01DBE9
:2048E000627A22B1401CC0B20828F1D338BD00EB800001EBC0000122427200202072207B17
:20490000012804D104F11000062103F071FB207B0B28EBD103208DF802002020ADF80000F5
:2049200004208DF803006946074801F0D9F804F110000122042103F05BFB38BD300002400E
:204940000030014008090020000C01402DE9F0474FF4FA784FF4005400274646204600F0C6
:204960006BF9002835D0204600F0CCF8DFF8CC900021484601F014FC0021314800F0DAF84D
:204980002E4801252F4C14300188490702D4761EFAD118E0BEB146460121C846484601F00C
:2049A0001DFC40460188890502D5761EFAD10AE04EB1002000EB800104EBC10191F90B2030
:2049C000921C08D009E007EB870004EBC00045720572BDE8F087497A21B1401CC0B2082863
:2049E000E8D3F6E700EB800104EBC101401C4D72C5B2154E1EE000BF05EB850004EBC0002C
:204A000090F90B10891C13D1017A89B1417A79B1017B092902D0082903D009E0FEF7A5F8D0
:204A200002E0817AFEF71FF8F061F0690028D0D06D1CEDB2082DDFD3CBE7000000580040C2
:204A40004400024008090020040000202DE9F0414FF4003600244FF4FA75304600F0ECF89B
:204A600000282AD0304600F04DF8224F0021384601F096FB0021204800F05CF8012138466A
:204A800001F0ACFB1D4801263988890502D56D1EFAD10CE05DB100254FEA000405EB8501A4
:204AA00004EBC10090F90B20921C08D01DE004EB840100EBC10046720672BDE8F081027A2D
:204AC0009AB954F83120521C44F831200672017B08290AD1817A032901D2491C00E000218B
:204AE000C9B2FDF7A7FF0649C8616D1CEDB2082DD4D3E2E7005800405800024008090020F9
:204B000004000020C10002D50249086070470249486070470404024000000240C10002D5A1
:204B200002490860704702494860704704040240000002400029016802D041F0010102E05C
:204B40004FF6FE72114001607047000001684FF6FE72114001600021016041608160C16042
:204B60003149314A0839904203D1486840F00F0006E02D4A1432904204D1486840F0F00050
:204B800048607047284A2832904203D1486840F47060F5E7244A3C32904203D1486840F44E
:204BA0007040EDE7204A5032904203D1486840F47020E5E71C4A6432904203D1486840F419
:204BC0007000DDE7184A7832904203D1486840F07060D5E7154A111F904203D1086840F0AE
:204BE0000F0006E0114A1432904204D1086840F0F000086070470D4A2832904203D1086802
:204C000040F47060F5E7094A3C32904203D1086840F47040EDE7054A50329042EAD1086857
:204C200040F47020E5E700000800024008040240406880B27047000001460020CA0001D5B4
:204C4000034A00E0034A12680A4200D001207047000402400000024001460020CA0001D5DD
:204C6000034A00E0034A12680A4200D0012070470004024000000240002A026801D00A4312
:204C800000E08A430260704730B5036847F6F07293430C6A8A682243D1E904452C432243E5
:204CA0008C692243CC6922434C6A22438C6A22431A430260CA6842600A6882604968C160D1
:204CC00030BD4160704700002DE9F047DFF89480254F4FF03009D8F8001001F11005088AF2
:204CE0000E7A08B9042E04D0AC88A04215D8042614E01E480178012903D007261020388053
:204D00002BE01B4A002112681A4B120403EBD2325160A7F8009001701FE00226844200D904
:204D20000446A968204688478246002000F0CAFF01462246504604F0DBFE2146002003F0B6
:204D40003BFB2888001B2880688820446880A7F8009009494FF440500880D8F8000006724A
:204D6000BDE8F0876C0500207C05002060050020505C0040006000407A0500202DE9F047E8
:204D80002A4EDFF8AC802B4F35684FF0300935F8100FA968A9B100B3AC88844200D9044682
:204DA0002046884782462888001B2880688820446880002000F066FF01462246504602F09B
:204DC0009FFE288848B14FF44051A8F800100021084603F0F1FAA7F800902888A9888842E2
:204DE00001D3032001E020B1052031680872BDE8F0873168062008720F480068806880470F
:204E00003068007A08280AD00C49002009680C4A090402EBD131486048463880E7E74FF43F
:204E20008051A8F800101020F7E700006C0500207A0500207C05002070050020505C004091
:204E400000600040F8B55D4C5D4D09262068002729684278062A05D0AAB1082A4DD00A2AA6
:204E600050D06BE00278520668D18078012804D0022804D0032804D060E0C96956E0096AAF
:204E800054E0496A52E04288B2BBC288022A55D102798ABB0278530601D1838833B102F0E0
:204EA0007F02012A04D0022A0CD047E045493DE08A69407900219047F0B92068807A0028A1
:204EC000F4D13BE0417901F00F0001F070020B063D4901EB8001D1F8001C03D5C1F301114E
:204EE000090102E0C1F301310903384B1B78834224D90AB90029D9D120E0007840061DD1BA
:204F0000334913E0027802F07F02012A16D1827AA2B1428892B9027982B9C288012A0DD1B6
:204F20008A6940790021904740B92A4931B120684782816100208847002006E0296820683E
:204F4000096940788847032813D021680A8AA2F57F43FF3B0BD002280ED06AB10878000616
:204F600026D5C888009082420AD9088218E00E72F8BD20680672F8BD4FF008000872F8BDCD
:204F80000ED22868144B90F82C00824201D21F7006E0B2FBF0F400FB142008B90120187058
:204FA000286890F82C008882BDE8F840FFF78CBE03200872094900030880F8BD6C050020C6
:204FC00070050020318B00080050004014050020C58A0008098B0008600500207A05002098
:204FE000704700000249086008680028FCD170472800002000EB800000E0401E0028FCDC3A
:20500000704701004FF0000000D101207047000010B5002808D0054A00214FF462735458F7
:205020004450091D9942FAD310BD000000FC00082DE9F0410546FFF7E4FF002813D10B4E6D
:2050400000F088FC304600F023FC00244FF462772959301900F056FC241DBC42F8D3BDE85B
:20506000F04100F047BCBDE8F081000000FC000810B501440A4A91F8203002EBC00152F8C3
:2050800030008988022B04D000F0A8FD28B1002010BDBDE8104000F0A1BD012010BD000042
:2050A000380000200149012008707047CB0200204FF44051012003F045B9000001490120C0
:2050C00048707047CB0200202DE9F041A4B000F0A1FE4FF4FA6140186049086069464FF055
:2050E000020004F0DFFC9DF800005D4D4FF0240805F55974032806D001266946042828D073
:20510000052844D191E09DF80160002E3FD00F2E3DD85348FFF77CFF402110A8FDF71BF82B
:2051200003208DF840008DF8416010A80F2E0CD0C6EB461105EB41013E22801CB1F13E0179
:20514000FCF7F0FF402210A91EE021464246801CF6E79DF8010004270F2819D060B1C0EB4F
:20516000401005EB40003E223E38891CFCF7DAFF9DF801000F2810D2C0B2401C8DF8807076
:205180008DF88100022220A9022004F053FB58E020464246891CFCF7C5FF28884FF4B8711A
:2051A000B1EB101F31D08DF88470FE208DF88500022221A9104604F03DFB10208DF88300DA
:2051C0008DF882604002274DADF8800020A9284600F086FCA814ADF8800020A9224800F0E0
:2051E0007FFC214E0024214F0C36306880F480503060E86880F40050E8603846FFF7FAFEBB
:20520000641CE4B2062CF0D31BE041F2037028801348FFF70DFF16480168164A01F4E06180
:2052200011430160BFF34F8FFEE713A420AD1DCC85E81D0020A8491CFCF798FF08B912487B
:20524000067040216846FCF786FF4FF44051022003F078F824B0BDE8F08100000C000020E2
:20526000D016002000100140000C0140400D03000CED00E00400FA05626F6F746C6F61640A
:2052800065722072756E0000000000202DE9F34FFF480C4693B090F90910002907DB90F938
:2052A0000A10002903DBFB49B1F900104160012101EB410200EB820292F90930002B7DDB27
:2052C00092F90A208046002A78DB00200490059006900790089009900A9004AE451E08AFC9
:2052E0000B9035543D54401C1028FADB4FF0000AD14600F08FFD834600214FF0010E4046F6
:2053000001EB410200EB820292F9093003EB4303234493F82FC15FEA5C1812D005EB5C1812
:205320000EFA08FCDFF8708398F800801CEA080F07D093F82EC106F80AC00AF1010303F05F
:20534000FF0A92F90A2002EB4202131993F82F215FEA521C12D005EB521C0EFA0CF2DFF883
:2053600038C39CF800C012EA0C0F07D093F82E3107F8093009F1010202F0FF09491C102939
:20538000BEDB01214FEA000A01EB41020AEB820090F909C05FEA0C097ED490F90AC0CDF84F
:2053A00038C0BCF1000F77DB037A9B064FEA136C09EB490380F808C0234400E034E00F9394
:2053C00093F92E81B54B13F8083013B14CF001030372DDF838C00CEB4C0CA444CDF840C00D
:2053E0009CF92E81DFF8B4C21CF808C0BCF1000F05D090F808C04CF0020C80F808C0037A58
:20540000009303F0030CC3F381039C457CD0631893F87833012B0ED0022B009B03F00F0308
:2054200019D0DFF87CC20DE0491C1029FFF640AF15B0BDE8F08F009BDFF864C203F00F0379
:205440000CF1100C1CF903300C93002B7ED007DD4FF0010805E0DFF848C20CF1200CF1E7E0
:20546000A84690F90B3068F30303C3725AF82280ABEB080CBCF1320F04D843F30308B8EB98
:20548000231F73D10C9B002B2EDD0F9B93F82F315FEA531C0DD000E035E105EB531C0EFA22
:2054A0000CF3DFF8F4C19CF800C013EA0C0F0CD115E0DDF83CC000239CF92EC116F9038019
:2054C000C4450CD05B1C102BF8DBDDF84CC00CEBC90393F804C04CF0100C83F804C0C37A9B
:2054E00023F0F00310332AE0109B93F82F315FEA531C0AD005EB53130EFA03FC664B1B7890
:205500001CEA030F0DD117E08FE0DDF840C000239CF92EC117F90380C4450DD05B1C102B88
:20552000F8DBDDF84CC00E9B0CEBC30393F804C04CF0100C83F804C0C37A43F0F003C372D3
:205540004AF822B0D0F804C00C9B00E053E063444360B3F5004F02DB47F6FF7303E013F539
:20556000004F66DC4F4B436063E0FFE74AF822B0D0F804C00CEB231CC0F804C0DDF800C04D
:205580001B114FEA8C0C80F808C0002B22DD0F9B93F82F315FEA531C0FD005EB531C0EFA11
:2055A0000CF3DFF8F4C09CF800C013EA0C0F48D0DDF84CC00CEBC9031EE0DDF83CC0002347
:2055C0009CF92EC116F90380C44532D05B1C102BF8DBEDE7109B93F82F315FEA531C12D021
:2055E00005EB531C0EFA0CF3DFF8ACC09CF800C013EA0C0F13D124E093F804C04CF0100C07
:2056000083F804C015E0DDF840C000239CF92EC117F90380C4450CD05B1C102BF8DBDDF808
:205620004CC00E9B0CEBC303E6E7009B9B08037207E090F90930002B65DB90F90A30002B76
:2056400061DB90F909300E9303EB4303234493F830315B09012B27D0022B28D0032B29D051
:2056600094F81E3090F90A8008EB4808A04498F830814FEA5818B8F1010F1ED0B8F1020FCB
:205680001ED0B8F1030F43D094F81E801AE00000F8150020242C01408C020020380D002059
:2056A000970200200180FFFFB4F8AE32DAE7B4F8B032D7E7B4F8B232D4E7B4F8AE8201E011
:2056C000B4F8B082C1465AF82280ABEB080C9C450AD9DDF84CC00E9B0CEBC30393F804C0ED
:2056E0002CF0100C83F804C05AF82230ABEB03034B4508D990F90A20139800EBC2000279FC
:2057000022F010020271491C1029FFF63DAE8FE6B4F8B282D6E700002DE9F04707464FF089
:20572000FF3080460021434D88B04FF0010944460E4600BF01EB410305EB8302491C5072D9
:205740009072167245F823601029F3DB97F82800062833D197F8290006282FD10821697225
:205760000921A97203A802F0F1FA0121C80202F0E1FA4FF6FF70ADF80400ADF80060102011
:20578000DFF8B4A0ADF80200ADF806606946504603F0DCFD97F878034FF0020302281A4643
:2057A00001D0012100E00321504603F0CDFC2248243006800121504603F0B1FC5FF00001B4
:2057C00001EB4100384490F82F0100F01F00172829D1414527DD002000EB40023A4492F841
:2057E0002F2102F01F02182A1AD1A04218DDB9F1100F15D209EB490205EB82024BB253721D
:2058000044B29472D07A984620F00F00401C20F0F0001030D07209F1010000F0FF0902E092
:20582000401C8028D8DB491C8029C9DB08B0BDE8F0870000F8150020002C01400F48C16910
:2058400041F0C051C1610E490A6842F480720A600C4B44F24C221A800A6822F480720A6010
:20586000C16921F0C051C16107480168074A01F4E06111430160BFF34F8FFEE700100240FF
:2058800000700040106C00400CED00E00400FA0570B505464FF43026304600F067F80428C6
:2058A00011D1094C206940F0020020616561206940F040002061304600F058F8216941F6BE
:2058C000FD721140216170BD0020024008490420CA68D20701D001207047CA68520701D56D
:2058E00002207047C968C906FBD5032070470000002002400248016941F080010161704744
:20590000002002402DE9F841064600204FF4005700900D46384600F029F8042816D10C4CF3
:20592000206940F0010020613580B846384600F01DF8BF1E042806D1B61C280C00963080CA
:20594000404600F013F8216939402161BDE8F88100200240034802494160034941607047E6
:205960002301674500200240AB89EFCD00B50346FFF7ACFF03E000BFFFF7A8FF5B1E012885
:2059800003D0002B00D1052000BD002BF4D1FAE730B5082A71D2DFE802F0A004182E445AEA
:2059A00071864E4BB3F900204243132001EB400434F9024C21F8104033F91050401E04FBD6
:2059C000052210F0FF00F1D182E0444B2833B3F9002042435FF0130001EB400434F9024C35
:2059E00021F8104033F91050401E04FB052210F0FF00F1D16CE0394B5033B3F900204243C9
:205A00005FF0130001EB400434F9024C21F8104033F91050401E04FB052210F0FF00F1D13F
:205A200056E02E4B7833B3F9002042435FF0130001EB400434F9024C21F8104033F91050B9
:205A4000401E04FB052210F0FF00F1D140E0234BA033B3F9002042435FF0130001EB4004BD
:205A600034F9024C21F8104033F91050401E04FB052210F0FF00F1D12AE02EE0174BC833FC
:205A8000B3F900204243132001EB400434F9024C21F8104033F91050401E04FB052210F05E
:205AA000FF00F1D114E00D4BF033B3F9002042435FF0130001EB400434F9024C21F81040EF
:205AC00033F91050401E04FB052210F0FF00F1D1642092FBF0F000B2088030BD2A01002092
:205AE000F0B5CA78002502F00F03D20601D58A7813430A784FF00F0E12F0FF0F4FF0010260
:205B00001CD004680F8802FA05F63740B74211D14FEA850C0EFA0CF724EA070703FA0CF45F
:205B20003C43CF78282F02D0482F02D002E0466100E006616D1C082DE4D304600C88FF2CC5
:205B40001ED944685FF0000606F1080702FA07F50F882F40AF420FD14FEA860C0EFA0CF7A2
:205B6000BC4303FA0CF73C43CF78282F00D14561CF78482F00D10561761C082EE4D344607A
:205B8000F0BD0000F0B5144C002801DAE36900E06368420D120185B2C0F301579540C0F32D
:205BA0000346032F05D0C2020AD50322B240934307E023F07062636823F07063636002E0E3
:205BC000AB4343F0706201B12A43002801DAE261F0BD6260F0BD00000000014002460020A8
:205BE00092680A4200D0012070470AB1016170474161704730B589B00121042002F08EF8AE
:205C00000121082002F096F811200024ADF814001A4DADF81040ADF81640ADF8124004A9B1
:205C2000284603F093FB6020ADF800000120ADF802000920ADF80600ADF8084069462846AA
:205C400003F0B0FA0821284603F0F2FA0121284603F058FA4020ADF81C0018208DF81F005F
:205C600003208DF81E0007A90548FFF739FF0121284603F054FA09B030BD00000008004074
:205C8000000C01400549096889B201EBC000044901EB4000008980B270470000505C00403A
:205CA000006000400549096889B201EBC000044901EB40008089C0F309007047505C0040BD
:205CC000006000400449096889B201EBC000034931F8100080B27047505C00400060004085
:205CE00030B5034647F6FF74234414780020C4EB04455478C3EB0323C4EB04449D4203D86A
:205D00009C4201D300297DD09C4206D29478C4EB04449C4201D3012979D09478C4EB04447A
:205D20009C4206D2D478C4EB04449C4201D302296DD0D478C4EB04449C4206D21479C4EB1B
:205D400004449C4201D3032961D01479C4EB04449C4206D25479C4EB04449C4201D304290F
:205D600055D05479C4EB04449C4206D29479C4EB04449C4201D3052949D09479C4EB044483
:205D80009C4206D2D479C4EB04449C4201D306293DD0D479C4EB04449C4206D2147AC4EBE4
:205DA00004449C4201D3072931D0147AC4EB04449C4206D2547AC4EB04449C4201D30829D5
:205DC00025D0547AC4EB04449C4206D2947AC4EB04449C4201D3092919D0947AC4EB04447C
:205DE0009C4206D2D47AC4EB04449C4201D30A290DD0D47AC4EB04449C4209D2127BC2EBAE
:205E0000024200E003E09A4202D30B2900D1012030BD000001498868C9687047280000204D
:205E200030B5ADF5637D6846FFF7F2F81A230949002004460DF10202155C01F8105001EBBC
:205E40004005401CC0B26C709842F5D30DF5637D30BD0000FB0300202DE9FC5F6846FCF7B2
:205E6000B7FE8A49052301200B70487009248C700422CA70A1220A71487185228A71C871C3
:205E8000022608219DF802204FF075094FF0950A812702B37D4909250B724D7219258D7295
:205EA000C87229250D734A7315258D730025CD7325250D74521ED517487402EB557281F86E
:205EC0001290D210C874D20081F814A008324A758F75CE7518219DF80120B2F1000B64D0F2
:205EE0006A4D02466B54491C002368549DF800C011F1010102FA03F81CEA080F08D06C549B
:205F0000491C89B203F1300805F80180491C89B25B1CDBB2062BEDD306234FF03608AE4608
:205F200002FA03F51CEA050F07D00EF80140491C89B20EF80180491C89B25B1CDBB2082B37
:205F4000EED316250EF80150491C89B280220EF80100491C89B273460EF80120491C89B285
:205F600026220EF80120491C89B2FF220EF80120491C89B27F225A54491C89B2102203F80E
:205F80000190491C89B25A54491C89B203F801A0491C89B203F801B0491C89B25F54491CE2
:205FA00089B20EF80160491C89B29DF80430002B61D0364A4FF0390815255454491C89B2F8
:205FC0004FF0250C02F80180491C89B25554491C89B200255554491C89B202F801C0491C5F
:205FE00089B24FF0070C02F801C0491C89B24FF0350C02F801C0491C89B25554491C89B295
:020000040800F2
:2060000046255554491C89B23B255554491C89B265255054491C89B25554491C89B21225D5
:206020005554491C89B2082502F80190491C89B25554491C89B2454602F801A0491C89B2B0
:206040005054491C88B21754401C80B21654401C81B201200DE05454491C89B25554491CA7
:2060600089B25754491C89B25654491C401C89B2C0B28342EFD8054AC0205054491C044A70
:20608000C8B2090A50769176BDE8FC9F21030020DF0200200A4810B50168001D0468001DFB
:2060A000006808180BD00822064900F0B9FD054920460422BDE81040103100F0B1BD10BD23
:2060C000E8F7FF1F2F04002000B5ADF5637D6846FEF79EFF0648BDF83C130172090A41726E
:2060E000BDF83E138172090AC1720DF5637D00BDCD020020FEE70000184882B000210288B1
:206100000092520504D5028822F4806202800091009A920504D5028822F480620280009189
:20612000009AD20504D5028822F4807202800091009A120504D5028822F4006202800091D1
:2061400006481438018841F400410180018821F40041018002B000F079BA00001458004044
:206160000029018802D041F4806101E021F480610180704702460020938A128B43EA0243E2
:2061800023F07F42914300D1012070470029018802D041F0010101E021F0010101807047CB
:2061A0000029818802D041F4006101E021F40061818070470029818802D041F4805101E04B
:2061C00021F48051818070470029018802D041F4807101E021F480710180704700290188A6
:2061E00002D041F4007101E021F40071018070470CB50246002000920A0F21F07F41019250
:2062000002D0009A143202E0009A090C1832009212680A4200D001200CBD002A828801D0DA
:206220000A4300E08A4382807047000070B50446808886B00D4620F03F06684601F086FD34
:2062400027490298B0FBF1F189B20E43A680228822F001022280234B2A689A421CD8520072
:20626000B0FBF2F080B2042800D20420491C2184A083208840F00100208021884FF6F53084
:206280000140A8886A89104308432080A88929890843208106B070BDEB88A3F53F46FF3EDD
:2062A0000BD002EBC20303EB0212B0FBF2F080B240F48040020506D007E002EB4202B0FBFC
:2062C000F2F080B2F6E740F001004FF4967251434FF47A72B1FBF2F140F40040C6E70000DE
:2062E00040420F00A0860100B1F5006F018803D021F400610180704741F40061FAE7000050
:206300002DE9FF5F5E4F8B4681464FF4FA741E46254600213846FFF743FF01213846FFF7D7
:206320001FFF01213846FFF74FFFDFF85881BA46474641465046FFF71DFFA0B3002D31D06E
:206340004FEA4909254609F0FF010022D046504600F072F9DFF830A140465146FFF70AFF61
:2063600028B3002D1ED025465946404600F06CF9DFF814A10AF1020A51464046FFF7FAFEA4
:20638000C0B1002D78D0254601214046FFF726FFC2464FF4003841465046FFF729FF60B11A
:2063A0006D1EF8D168E0FFE76D1EC1D164E06D1ED2D161E06D1EDFD15EE03DB32546012195
:2063C0005046FFF701FF39465046FFF7D3FED8B1E5B1274609F0FF0101225546504600F08C
:2063E0002BF9DFF8A09009F1010949462846FFF7C1FE60B157B1DFF88C90002709F13F0947
:20640000A346A6F1020A20E06D1EDCD134E07F1EEBD131E049462846FFF7ACFE20B314B303
:2064200017485C46103000880299C8550E9850B1574508D100212846FFF792FE4FF2FF71F9
:206440002846FFF751FF7F1CFFB2B742E2D301212846FFF7C3FE464631462846FFF7C8FE1A
:2064600028B1641EF8D107E0641ED3D104E01CB1002004B0BDE8F09F4FF0FF30F9E70000E4
:206480000058004001000300820007002DE9FF4F654E82464FF4FA748BB0994690462746EA
:2064A00000213046FFF77CFE604D00212846FEF741FB5E485838816DC907FCD14FF47020D4
:2064C000FEF720FB584880211030CDE900080020CDE902090A900790CDE905100490089064
:2064E0004801AB46099069465846FEF7CDFB012202212846FEF7C0FB02210F2001F05EFAC0
:206500000F2001F0F3F94FF4003529463046FFF76FFE10B17F1EF8D100E04FB9308840F4B4
:2065200000403080308820F40040308000F08EF81898274618B101213046FFF73BFE01216A
:20654000B0463046FFF740FE394E40463146FFF711FE90B3002F64D04FEA4A07A146F9B250
:206560000022404600F068F8DFF8C8A040465146FFF700FE28B3FCB101214046FFF706FEA9
:2065800040460C9900F060F8C2462A495046891CFFF7F0FDC0B17CB1C8464C460121D14678
:2065A0005046FFF71BFEAA464D4651462846FFF71FFE60B1641EF8D133E0FFE77F1EC4D114
:2065C0002FE0641ED2D12CE0641EDED129E02CB301212846FFF7E4FD01215846FEF7AAFAA2
:2065E00001212846FFF7F0FD31462846FFF7C2FD90B19CB14446F9B20122284600F01CF836
:206600000B4E761C31462846FFF7B4FD38B12CB100200FB0BDE8F08F641EE5D101E0641E9F
:20662000F0D14FF0FF30F4E70058004058000240010003008200070012B141F0010101E0BA
:2066400001F0FE0101827047018270471FB50121880501F063FB0121084601F053FB4FF412
:206660008060ADF80A000001ADF80C00ADF806000020ADF804000D4907200D4C0091ADF859
:20668000080069462046FFF7D1FD01212046FFF77DFD012211022046FFF7BFFD222001F0A0
:2066A00025F90221222001F089F91FBD801A0600005800402DE9FF5F354D07464FF4FA74DC
:2066C00098469246264600212846FFF769FD01212846FFF745FD01212846FFF775FDDFF816
:2066E000B4904FF0FF3B49462846FFF743FDF0B1FEB17806010E264600222846FFF79CFF40
:20670000254F28463946FFF735FD98B18EB1264628460199FFF798FF1F4FBF1C3946284631
:20672000FFF728FD48B126B10026A14616E0761ED9D12BE0761EE4D128E0761EEED125E079
:206740001AF806102846FFF77FFF39462846FFF711FD98B1D4B1761C4C46B6B24645EFD397
:2067600001212846FFF73AFD4FF4003631462846FFF73EFD28B1641EF8D107E0641EE4D18B
:2067800004E01CB1002004B0BDE8F09F5846FAE70058004001000300820007002DE9F04353
:2067A0008BB080463448CDE900011020CDE9020200200A9080210790CDE9051004900890D2
:2067C00048012E4F4FF4FA740990264669463846FEF75AFA012202213846FEF74DFA0221A4
:2067E0000E2001F0EBF80E2001F080F8224D4FF40039103D49462846FFF7FAFC10B1761E8A
:20680000F8D100E04EB9288840F400402880288820F400402880FFF719FF26460121384636
:20682000FEF788F901212846FFF7BAFC01212846FFF7CAFC124F4FF0FF3939462846FFF79F
:2068400099FC90B1B6B14FEA4860010E00222846FFF7F2FE0B4E28463146FFF78BFC38B1F1
:2068600044B100200BB0BDE8F083761EE5D101E0641EF0D14846F5E710580040440002402A
:2068800001000300820007002DE9FC5F07460121084601F04FFA0121C348FFF773F9012152
:2068A000C248FFF76FF90121C148FFF76BF90121042001F03FFA0121082001F03BFA0121E9
:2068C000102001F037FA4FF48050ADF800004FF01009B84D8DF8039001268DF8026069467C
:2068E0002846FFF7FDF86814B34CADF8000069462046FFF7F5F8AF4A4FF496780C324FF45C
:20690000B8730AE0106880F480501060E06880F40050E0604046FEF765FB3888B3EB101F82
:20692000F0D1A6494FF044300860091D0860A34B4FF0000A0C33C3F800A0AB4628609D4BCC
:206940001B1D1860C2F800A020606060C4F80CA09B4D54464FF04808381990F92000012851
:2069600041D0022832D004283DD003283ED0052840D0072841D0092853D0082864D01928F2
:206980007AD01A2876D00B2875D00C2873D00D2871D00E286FD00F286DD010286BD011282B
:2069A00069D0122867D00A287BD0132863D0142878D0152877D0162876D0172875D01828F2
:2069C00074D0062873D0002872D025E028200EE08DF8026005EBC40069468088ADF8000066
:2069E00055F8340016E08DF80380F1E714208DF80300EDE78DF803A0EAE703208DF802000D
:206A000005EBC40069468088ADF8000018208DF803005846FFF764F8641C1E2C9CDBBDE8D0
:206A2000FC9F0F2CF8D103208DF8020064486946B0F87C00ADF8000004208DF8030058469F
:206A4000FFF74EF8102487E7102CE5D103208DF802005B486946B0F88400ADF80000182061
:206A60008DF803005846FFF73BF801F08FFB112472E701E01DE035E0152CCDD1FFF7E6FD13
:206A800003208DF802004E486946B0F8AC00ADF800001C208DF803005846FFF721F8162463
:206AA0005AE719E036E037E03BE03DE054E06CE072E0162CB0D103208DF8020040486946C1
:206AC000B0F8B400ADF800001C208DF803005846FFF706F817243FE7112C9DD1FFF78AF8DB
:206AE000122439E78DF8039003208DF8020005EBC40001908088ADF8000055F8340069465C
:206B0000FEF7EEFF01980122818855F83400FFF76CF881E7042000E018208DF803000320A4
:206B20003EE08DF80390FAE78DF80390032005EBC4028DF8020001929088ADF8000055F829
:206B400034006946FEF7CCFF55F83400C168019A92889143C1605FE714208DF80300032019
:206B60008DF8020005EBC40001908088ADF8000055F834006946FEF7B3FF55F83410CA6802
:206B8000019880880243CA6046E7082C01D0092CBFD18DF80380C2E728208DF8030002204B
:206BA0008DF8020016E70000000130000002300000081A00000C01400010014000080140E5
:206BC0003800002010B5134C2068017A022904D0042902D0062905D015E0FEF775F8206855
:206BE000007A11E04178052909D10178490606D1C07801F053FB08480068006A804707481B
:206C0000006880688047082021680872BDE8104001F032B86C0500207405002070050020A3
:206C2000F0B500230A24302537261F4611E000BFB4EB107F02D905EB107C01E006EB107CB4
:206C400001F813C001EB430C00015B1C8CF80170DBB29342ECD3F0BDF0B5054601200023BE
:206C600002EB42061C461A4631F91270521CD2B23C44082AF8D3E21704EB5272D410002250
:206C800031F91270521C3F1B07FB0733D2B2082AF6D3DA1703EB5272D2107643964200DAD5
:206CA0000020072201EB420333F8023C21F81230521E12F0FF02F5D10D80F0BD014901F0E8
:206CC00015BF0000B4040020014901F00FBF0000A40400202DE9F0474FF0FF363E4C354671
:206CE00000200B1893F82030172B21D154F83030DD6804EBC007BF88BD43DD6045B20023FD
:206D0000CF1897F82070182F0ED154F83370D7F80CC004EBC308B8F804804CEA080CC7F8C6
:206D20000CC017787F1C17705B1CDBB21E2BE7D3401CC0B21E28D4D3284F002097F90030BD
:206D400001EB000C9CF820C0BCF1170F3FD1984201DCA8423BD154F83030D3F80CC004EB05
:206D6000C008B8F804804CEA080CC3F80CC0DFF870800023A246CC1894F82040182C15D17A
:206D80007C7818F804C0641C7C70BCF1000F5AF833C0DCF80C900AEBC304A48802D029EA81
:206DA000040901E049EA0409CCF80C905B1CDBB21E2BE0D311787A78914201D80021797014
:206DC000A84202D13E70BDE8F0873870FBE7401CC0B21E28B4D3F6E738000020C7020020E9
:206DE000B8160020F0B50F4D0F4B00200C1894F82040162C10D114782C5D002C53F83040FB
:206E0000E66803EBC007BF8801D03E4300E0BE43E6601478641C1470401CC0B21E28E5D353
:206E2000F0BD0000B81600203800002030B50F4B0F4C002100EB410595F94823002A0FDB66
:206E400095F8495303EBC20205F007051279012D02D0C2F3001202E042F30012521C6254B7
:206E6000491CC9B21829E5D330BD0000B8110020B816002018B5044600208DF80000204653
