:020000040800F2
:2000000018080020010100080B0A0008E1080008090A00089F010008B917000800000000ED
:20002000000000000000000000000000A10C00083506000800000000890B0008190100080A
:200040001B0100081B0100081B0100081B0100081B0100081B0100081B0100081B01000880
:200060001B0100081B0100081B0100081B0100081B0100081B0100081B0100081B01000860
:200080001B0100081B0100081B0100081B010008091700081B0100081B0100081B0100083C
:2000A0001B0100081B0100081B0100081B0100081B0100081B0100081B0100081B01000820
:2000C0001B0100081B0100081B0100081B0100081B0100081B0100081B0100081B01000800
:2000E0001B0100081B0100081B010008DFF80CD000F018F800480047E9170008180800200A
:200100000648804706480047FEE7FEE7FEE7FEE7FEE7FEE7FEE7FEE7FEE7FEE761140008C6
:20012000ED000008064C074D06E0E06840F0010394E8070098471034AC42F6D3FFF7DAFF96
:20014000FC1800081C19000870B58C1810F8015B15F0070301D110F8013B2A1106D110F8DA
:20016000012B03E010F8016B01F8016B5B1EF9D12B0705D40023521E0DD401F8013BFAE7BF
:2001800010F8013BCB1A921C03E013F8015B01F8015B521EF9D5A142D8D3002070BDFEE7EB
:2001A00040BA70472DE9F84F684C4B4E4B4F4E4DDFF830B1002043F63F784AF2A00948F6C4
:2001C0000F7AADF80200606C3080000458BFBDE8F88F308810F00F00387028D054F8201049
:2001E000ADF80210BDF90210B1F1FF3F0DDC54F8201040F68F72114044F820103849387816
:2002000001EB800050F8040C8047BDF802000006D9D5387854F8201001EA0A0144F820105A
:2002200038780BEB800050F8040C8047CBE720682880288800F030006880288800F44050AB
:200240002880206800EA080080EA0900206031882068C90612D5ADF80200BDF8020000052F
:2002600013D4BDF90200B0F1FF3FACDC206840F68F710840206000F001FC0DE048F60F715A
:200280000840206000F050FB06E0206840F68F710840206000F0D8FD20684BF6BF710840E9
:2002A0002988C90448BF80F480502988890448BF80F400506988C90648BF80F01000698834
:2002C000890648BF80F0200048F28001084380B22060BDE8F88F00BF9A0100200002002078
:2002E0007401002058010020DC010020174951F82020520458BF704751F8202040F60F73A5
:200300001A404CF280031A4341F82020704700BF0E4951F82020520658BF704751F82020E7
:2003200040F60F731A4048F2C0031A4341F82020704700BF054940F60F6351F820201A4089
:2003400048F280031A4341F820207047005C0040B0B50C46054600F033FB0849002009E03D
:2003600015F8012B013C424080B2D2B231F8122082EA1020002CF3D180B2B0BD1402002013
:2003800010B5A74909688A8812B10224204610BD0A78062802F07F0208BF012A0AD0212ACF
:2003A000F3D103280DD00928EFD10B48092202700A4A09E08878212805D02228E5D1084AE3
:2003C00002E0044A00E0074A002400204C828A619047DBE70D0400080A0200203D05000897
:2003E0002104000801040008014900F01BBF00BF00000020014900F015BF00BFD40000200F
:20040000014900F00FBF00BF4400002008B11948704783480121006801820020704700BF72
:20042000014900F0FFBE00BF680000207C490968C978032984BF00207047024A02EBC101C6
:2004400000F0F0BE10010020084318BF02207047014602200B290BD1714909680A7802F0BA
:200460007F02212A18BF7047C878024908600020704700BF0402002010B569480021006874
:2004800041812649C9794172002000F00BFC00204FF4007100F0B4FC0020102100F08CFCE2
:2004A0000020182100F020FC0020582100F06CFC0020FFF73FFF1A4890F82C10002000F05C
:2004C0001FFC002000F054FC01204FF4C061012400F096FC01204FF4807100F055FC0120BE
:2004E0004FF4827100F000FC0120002100F058FC0120402100F004FC01204FF4405100F0FD
:200500001FFC0120202100F057FC002000F0D0FB184804604D48047010BD00BF08000020BF
:20052000DC0000203E480068807A10B111480521016070470F4804210160704708B10448E6
:20054000704737480221006801820020704700BF080200207047704710B500F0A7F930485C
:2005600000240068847200F031FB01F0CFF80148046010BD100200202DE9F843DFF8588E6B
:20058000D8F80060378ABFB9304610F8081F042912D126490A78012A3AD1C34A244C13681E
:2005A00004EA43031A440023C2F8B4330B701D4930220A8004212FE0B58ABD422C4688BFFD
:2005C0003C46B169204688478146002000F062F901464846224601F0F1F80020214600F08A
:2005E000DFFB308A3021AF42A0EB04003082708A204470820B4801800B484FF44051018018
:200600004FF0040188BF0221D8F80000083003E0044910220A8007210170BDE8F88300BFC0
:20062000B4010020DE010020DC010020AC010020FEFF0100704701E000BF01380028FBD19A
:200640007047000001480121017070470E0100202DE9F04792B002AC0120214601F062F811
:200660009DF808004C4E4FF400580428C6F8048040F085809DF809009DF80A1041EA002568
:200680001DB3464F78883978E9B3002800F08180C5EB05118900814235D24148B1460F18CF
:2006A00000F0D2F8002005E0A119B819898800F0ADF8B01CC6B23B2EF6D900F0A1F8681CC1
:2006C0004E4681B200294DD159E0BDF80C103348BDF80E20B1F5604F4180828040D8012152
:2006E000017000F0B1F82E4D002405E060193C3000F068F804F58064B4F5604FF6D100F04B
:200700007FF801212EE03978C9B3C0B32449C5EB0510B1468A4601EB800500F095F800208B
:2007200005E0A119A819898800F070F8B01CC6B23C2EF6D300F064F879880AF13C00FFF7FF
:2007400007FEBA884FF2020100284E460AD0824208D100204FF4704138700120787001E035
:200760004FF2010104208DF80500080A8DF8071003218DF806000DF1050000F0E9FE012030
:200780004FF44051C6F8008000F0DAFA12B0BDE8F0873878F3E700BF10100140900100204A
:2007A000C41F000810B50548054944680860006801F016F82046BDE81040004700200008A9
:2007C00008ED00E01F4951F8042CD207FBD10A6841F6FE731A400A600A6842F002020A60CE
:2007E0004860086840F04000086051F8040CC007FBD1086841F6FD72104008600420704774
:200800001048016841F08001016070470D4A52F8043CDB07FBD1D2F800C041F6FD7303EAA0
:200820000C031360136843F001031360018052F8040CC007FBD1106841F6FE7108401060CD
:200840000420704710200240044805490160054901608168C907FCD1704700BF042002403F
:2008600023016745AB89EFCDBC490A6892B202EBC00001EB4000B0F8B8037047B7490A6898
:2008800092B202EBC00001EB4000D0F8BC036FF39F207047B1490A6892B202EBC00001EB93
:2008A0004000B0F8B0037047505C00400A4908688A68801808BF7047B0B5084D4C68082297
:2008C000A91C00F061F805F1120120460422BDE8B04000F059B800BFE8F7FF1F940000206F
:2008E000FEE700000D48016841F0180101600C48016821F480610160016841F40061016036
:20090000C16821F00401C16006490A6842F440120A60416841F440314160704718100240B3
:20092000000C01400410014010B5A54C2168084610F8082F022A03D0062A07D0042A12D132
:20094000FFF71AFE206810F8081F0DE04878052804BF08785FEA40600BD07F4800688068DA
:2009600080472068083008210170BDE8104000F00DB9C87800F09CF902480068006A804703
:20098000EBE700BFBC01002010B501314FF0000C4FF0370E10E00EEB1073040FB0F1204F94
:2009A00081F800C0A2F101024FEA001038BF04F1300301F8013C0231002AECD110BD0000E3
:2009C000B0B5DFF840C04FF0000E4AF20101BEF5807F08BFB0BD1FFA8EF30022002009E0A5
:2009E00083EA020581EA520401305B08ED0708BF540822460828F3D32CF81E200EF1010E49
:200A0000E5E700BF14020020FEE7704770470000C2781449D2B110B5174A0723126890F856
:200A200001E0847890F800C023EA12220F23D340C2F1040223400EFA02F21A4301EB0C039B
:200A4000120183F80023BDE8104000E080310078012300F01F02C0F3421003FA02F241F883
:200A60002020704700E100E00249084302490860704700BF0000FA050CED00E0F8B5504EDC
:200A80003768384610F8081F032903D0072929D005292DD1388AB8B1B969A9B1BC8A844203
:200AA00088BF0446204688470546388A001B3882788A204478820020FFF7D6FE014628468F
:200AC000224600F04FF8388AA0B13E484FF4405101800020002100F063F93B4830210180A7
:200AE000398A08E01C480068C06880473068083008210CE00021BA8A3068914204D20830CD
:200B000051B10521017002E0032100F8081F0170BDE8F84000F03AB8062101700E48006891
:200B200080688047306810F8081F082907D125494FF480520A80244910220A80D8E79D4A5A
:200B4000074C136804EA43031A440023C2F8B4331D4A30231380DAE7B8010020505C00409E
:200B6000FEFF0100074B013203EB41010023A3EB520203E008C9013220F8023B002AF9D18D
:200B8000704700BF006000407047000080B50B4890F82C10002000F0B3F809480068007A4E
:200BA000082806D107494FF480520A80064910220A800938B0FA80F0400980BDDC00002057
:200BC000B4010020DC010020DE010020B0B5334C0120074D2060002028802060606800203B
:200BE00000F01CF94FF4E050288020600020B0BD1404002007281CBF2749087026480178B7
:200C000005293AD8DFE801F0030714181F2A416851B3052132E021494FF6FB730A681A408F
:200C20000A604FF43F420A6004210170012130E002214170032121E04178013941704178FE
:200C400089B904211AE015490A6842F0100292B20A60052101700A21417070474178013954
:200C60004170417861B170470C494FF6FB730A681A400A604FF43F420A6006210170704786
:200C800006494FF6EF730A681A400A600621017000214160704700BFA4010020405C0040B7
:200CA00070470000434920F007000860704700BF10B50C49584A002340F60F7C48F2800E94
:200CC000097809E052F8234004EA0C041C4344EA0E0442F8234001339942F3D140F0800040
:200CE000D06410BD0C010020324A21F0010113689BB203EBC00002EB4000C0F8B81370475A
:200D00002C4A3F29136802F56F729BB203EBC0000DD3CB064FF0FF3C4FEA511308BF0CEB21
:200D2000511399B24FF4004343EA812104E001F0010303EB5101890242F81010704700BF3B
:200D400010B5F74C44F2700254F8203023EA0202CB0448BF82F48052890448BF82F40052BC
:200D600048F28001114389B244F8201010BD00BFEB4943F60F7351F820201A404BF280039F
:200D80005A4041F8202070470A4A21F0010113689BB203EBC00002EB4000C0F8B01370474D
:200DA000044A13689BB203EBC00002EB4000C0F8B4137047505C004010B5D94C47F24002BB
:200DC00054F8203023EA0202CB0648BF82F01002890648BF82F0200248F28001114389B296
:200DE00044F8201010BD00BFCD4940F63F7351F820201A4048F2B0035A4041F82020704763
:200E000010B5C74C48F68F1254F820301A40114344F8201010BD00BF005C0040014908608B
:200E2000704700BF445C004005480422016841F0040101600348016862F313410160704774
:200E400018100240040801402DE9FC41EB4EDFF88885B44FB44D306DD8F800100A7A092A33
:200E600001D1C8881EE007EA40002844D0F8070007EA40008219441992F800240A70425DF6
:200E80004A70B4F80300FFF78BF9D8F800104880B4F80700FFF784F9D8F800108880B4F80D
:200EA0000B00C880012200280A724C7827D0620842EAC412D2B2052A00F2D880DFE802F03B
:200EC00003D6D63F4F55022840F0D0804888002840F0CC800879002840F0C880087800F0D1
:200EE0007F00022800F0A680012800F0B880002840F0BC808888002840F0B880C8E0087886
:200F000000F07F0002284CD0012851D000286CD1601E082869D8DFE800F0056853685B68DC
:200F200068686500C87801285FD1888800285CD1487A800659D582480021416035E00878E7
:200F4000400640F093808878032869D002286BD0012840F08B80754800681C3067E00878A3
:200F6000400640F08380734A93E00A7802F07F02012A7BD18A7A002A78D04A88002A75D1A4
:200F8000012873D10879002870D14879674909688A6900219047002868D1D8F80010644A3E
:200FA00077E0032C09D0012C1FD100F0CDF81BE00B2C1AD100F0F0F916E000F0B3F913E085
:200FC000C878012811D1888878B900F09DF916E091F90300002810DB887870B9888860B917
:200FE000887A09E000F07AF948B15048006841692046884703280ED008B108200CE0306D58
:20100000002107EA40002844C0F803104D4830210180062000E00920D8F8001008724CE02B
:2010200042480068243002E040480068203002687ABB1BE04F7907F00F033A0656F823002C
:201040004FF0300258BF4FF4405217F0700F0DD1D04F3F78BB4209D2104019D106E0487940
:20106000DE4909688A690021904760B1DB49D8F800000968407809698847044603280DD12B
:20108000D8F8000017E0D8F80010887A0028EDD0294A002000248A614C829047D8F80000AB
:2010A0004FF6FF72018A914205D0022C18BF002907D1082100E009210172BDE8FC41FFF7C3
:2010C00065BD90F90020B2F1FF3F06DD032101721A484FF440510180EFE7C2880192019BE4
:2010E0008B4202D20199018212E0914210D2BB4A126892F82C20914202D21149002206E02D
:20110000B1FBF2F303FB121111B90D4901220A70B249096891F82C108182FFF72DFACCE75C
:20112000005C0040FEFF010001600040B8010020411200080512000861120008DC010020A9
:20114000AC010020DE010020F8B5A3480168087800F07F00022806D048B9487A00F0DF0041
:201160004872002004E0488808B9087910B1022001B0F0BD4879864F4FF4405500F07F047D
:2011800010F08002834857F8243018BF302506780220B442ECD22B40EAD0887A0028E6D0DA
:2011A00057F824005AB100F03000102821D12046FFF7AEF820463021FFF7FEFD19E000F4D0
:2011C0004050B0F5805F14D11CB12046FFF78EF805E00B4890F82C102046FFF791FD57F832
:2011E000240043F60F7108404BF28001484047F824007B48006840698047B2E7005C004051
:20120000DC00002040B180B57548006800688047714800680A3080BD6F48012100680182FC
:20122000002070476C4A002813685A8A02D00868104470478888801A18820020704700BF73
:2012400040B180B56648006880688047624800680C3080BD6048012100680182002070478C
:2012600010B55D490028096814D01B4C00202080087800F07F00022810D0012824D058B938
:20128000487A022101EA1011C0F3801008441249087015E002200882002415E091F90510A2
:2012A0003B4A01F00F00B1F1FF3F52F820000DDD00F44050B0F5805F02D1074801210170B8
:2012C0004748006800698047204610BD00F030001028F2D0F4E700BF0C0200203E482D4AD5
:2012E00000685278C178914203D882780AB982880AB10220704780B58172394800684068C1
:201300008047002080BD00BF80B533480068417A41F02001417232480068C0698047002020
:2013200080BD00BFB0B52C48F34D1A4C0368587900F07F0155F821202478A14226D210F081
:20134000800C4FF440544FF0020018BF302414421BD05A88CAB9987AC0B143F60F70BCF130
:20136000000F18BF40F63F7055F8212000EA020049F2800218BF48F29002504045F82100DA
:2013800017480068806980470020B0BD0220B0BD005C00400C01002010B5104A0E4C1268FE
:2013A0002068C1784079926990470146022091B921688A7A7AB1087908B9887808B1022059
:2013C00010BD07480068C06880472068C1784279C2720173002010BDB4010020B8010020DB
:2013E000BC01002080B5F148DFF870E00023D0F800C007E000EB830252F8402C92B24EF839
:2014000023200133082BF5D14CF4806292B202604FF6FE320CEA020C0CF2014303600CF575
:201420008063036043685B05FCD54FF6FF334360002307E05EF8231000EB8302013389B2FE
:2014400042F8401C082BF5D14CF481610160016841F0040189B2016080BD00BFE001002042
:2014600082B03648364A016841F00101016041681140344A4160016811400160016821F48D
:2014800080210160416821F4FE0141604FF41F018160002101910091016841F480310160B4
:2014A000016801F400310091019901310191009919B90199B1F5A06FF2D10168890354BF29
:2014C0000021012100910099012930D11E490A6842F010020A600A6822F003020A600A6888
:2014E00042F002020A604168416041684160416841F480614160416821F47C1141604168C3
:2015000041F4E8114160016841F08071016001688901FCD5416821F003014160416841F013
:2015200002014160416801F00C010829FAD107484FF00061016002B0704700BF001002409A
:201540000000FFF8FFFFF6FE0020024008ED00E010B5094C0A460146207858B10748006862
:20156000052807D1812000F0EFF80120FFF73CFC0020207010BD00BF0E0100201002002002
:2015800080B5FFF751FC00F019F8C748016841F400010160BDE88040AFF3008005480221CC
:2015A000054A0175564900F10C03C0E90031826008680047B401002030010020E0B54FF456
:2015C000A060FFF751FA0348019001A8FFF720FA8CBD00BF1401000170B588B0464D474C94
:2015E0004F4E686C6080308861880140090402D5FEF7D8FD308861880140490506D54FF6BA
:20160000FF3068643E4840688047308861880140890444BF4DF6FF71696461880140C904F1
:2016200006D54EF6FF7068640020FFF7E3FA30886188014009050CD53248007810B1FFF7E3
:20164000D1FE02E00220FFF7D5FA4FF2FF706864308861880140890505D54FF6FF516964CA
:2016600021780131217061880840C00541D54FF6FF606864A86C000402D40020606035E0AF
:20168000606801306060606804282FD3286C00072CD4286C002180B2A060684605E055F839
:2016A000212092B240F8212001310829F7D1A16841F00101A160A16889B22964A16821F0D9
:2016C0000101A160A16889B22964696C4905FCD54FF6FF316964002105E050F8212092B22D
:2016E00045F8212001310829F7D1C6E70720FFF781FA08B070BD00BF005C00409801002003
:20170000DC00002054010020FFF766BF274800214FF43F42416002490A800260002070473A
:201720001404002070B500F07F050C462846FFF7A5F806462846FFF797F801462046324621
:20174000FFF710FA304670BD70B500F07F0614460D463046FFF79EF8A4B20146284622462A
:2017600000F02CF830462146FFF71AFB002070BD0D484FF48011072301600C480021416056
:20178000032101600A48016841F00401016009490A6863F313420A604FF480520A61416870
:2017A00021F400014160704780E100E0405C00401810024004080140FEE70000074B01327D
:2017C00003EB41010023A3EB520204E030F8023B013221F8043B002AF8D1704700600040B6
:2017E00080F3088870470000FFF77CF86420FEF722FF2D482D4B2E4A016841F0C0510160BA
:20180000D15A91B1176847F4807717600027D752136823F480731360026822F0C0520260FB
:2018200044F24C20814204D111E0016821F0C051016020480068400709D41F481F49006866
:201840000840B0F1005F02D1FEF7ACFFFEE7FFF797FE1E481A4D1E4C164E4FF400594FF4E3
:20186000805780461B4882461B488346287860B91448C0F800901448F760FEF7DCFE40460F
:20188000C6F80894B760FEF7D6FE20780028EDD05046FEF7D0FEFFF76BFF5846FEF7CBFE7C
:2018A000FEF780FFE2E700BF1C10024010FCFFFF00700040080C0140002000080000FE2F5A
:2018C000900100201410014020A107008096980091010020A086010040420F0002E008C860
:2018E000121F08C1002AFAD170477047002001E001C1121F002AFBD17047000020190008A9
:20190000000000209001000048010008281A00089001002088060000EC1800080000000030
:2019200022083320291409022913010125807D09042B02031214211001140122191607057B
:201940008103401D010705010714101201320216408304BABE1602010203011A1A443209FF
:20196000101005010904A1018504090675089502811B090708133F9132C01A4C2432191078
:20198000080403090420034612721A6502124A126F127912201246126C126112731A6814BF
:2019A0001272141A03531254124D1233F2325A261A12691A63281A6F2E1A6C0412633A74D3
:2019C0000E3A6E1812731A316C3212135905140879041B0855081A57041381031B0851109F
:2019E0001A49041AF50C1AE9041A2D0C413240140201011A703C32041AAE0832261A740886
:201A000032201A940819E811130D0A1B08254C29080912041A351C32010B184506240A194B
:201A2000511C000000000000FFFFFFFFFFFFFFFFFFFFFFFFFFFFFFFFFFFFFFFFFFFFFFFF51
:201A4000FFFFFFFFFFFFFFFFFFFFFFFFFFFFFFFFFFFFFFFFFFFFFFFFFFFFFFFFFFFFFFFFA6
:201A6000FFFFFFFFFFFFFFFFFFFFFFFFFFFFFFFFFFFFFFFFFFFFFFFFFFFFFFFFFFFFFFFF86
:201A8000FFFFFFFFFFFFFFFFFFFFFFFFFFFFFFFFFFFFFFFFFFFFFFFFFFFFFFFFFFFFFFFF66
:201AA000FFFFFFFFFFFFFFFFFFFFFFFFFFFFFFFFFFFFFFFFFFFFFFFFFFFFFFFFFFFFFFFF46
:020000040800F2
:202000005028002001210008A59E0008317E0008A19E0008AF4A000849CE00080000000095
:2020200000000000000000000000000025B10008C1640008000000005DA1000875C0000852
:202040001B2100081B2100081B2100081B2100081B2100081B2100081B2100081B21000860
:202060001B2100081B2100081B2100081B210008915A0008815D00081B2100081B210008EF
:202080001B2100081B2100081B2100081B210008B5CD00081B2100081B2100081B210008DA
:2020A0001B2100081B2100081B2100081B21000851C100081B2100081B2100081B2100082A
:2020C000357E00081B2100081B2100081B2100081B2100081B2100081B2100081B21000869
:2020E0001B2100081B2100081B210008DFF80CD000F024FB0048004779D4000850280020D6
:202100000648804706480047FEE7FEE7FEE7FEE7FEE7FEE7FEE7FEE7FEE7FEE7F1C000086A
:20212000ED20000840EA01039B0703D009E008C9121F08C0042AFAD203E011F8013B00F81A
:20214000013B521EF9D27047D2B201E000F8012B491EFBD270470022F6E710B513460A4670
:2021600004461946FFF7F0FF204610BD10B5002200E0521C835C8C5CA34201D1002BF8D1F7
:20218000D8B2E1B2401A10BD034611F8012B00F8012B002AF9D118467047F0B480EA01023F
:2021A000D40F4200B2EB410F02D20246084611464A0042D0C30DDDB2C1F3C752AD1A202DB0
:2021C00035DAC1F3160141F4000204B15242C5F1200602FA06F12A411044B3EBD05F23D057
:2021E000C4B1012DA0EBC35009DCF0BC4FF0004202EAC352DBB200F5000000F014BA40000B
:2022000000F1807000EBC350A0F1807040EAD170490009E0490841EAC071A0EBC35000F581
:202220000000400800EBC350F0BC00F0F3B96142012202EB4101001BF6E7F0BC704781F04F
:202240000041AAE780F00040A7E780EA010210B502F00043400022D04A001FD0010E01EBA1
:202260001261C0F35600C2F3560240F4000042F40002A0FB022000047F39140400D0401CAC
:2022800050EA124001D44000491EC2B20C0604EBD010401C4008802A02D003E0002010BDF1
:2022A00020F00100002900DA0020184310BD30B480EA010202F0004530F0004221F0004087
:2022C00013D090B1C30DD40DC2F31601C0F31600E41A41F4000140F400027D34914201D3D2
:2022E000641C00E04900002C02DA30BC002070474FF400000023914201D3891A034340082C
:202300004FEA4101F7D151B1914202D14FF0004105E002D24FF0010101E06FF0010103EB28
:20232000C450284430BC00F075B92DE9FE4F81EA030404F0004421F0004100944FF0000BD6
:2023400023F0004350EA01045ED052EA03045BD0C3F30A54C1F30A552C44A4F2F334019463
:20236000A0FB0254C1F3130141F48011C3F3130343F4801301FB024400FB034E840A970A8B
:2023800044EA815447EA8357A4FB076802958D0A05FB07854FEA932C04FB0C542705029D45
:2023A0004FEA065847EA1637B5EB08056EEB070C870E920E47EA811742EA8312A7FB02018B
:2023C000B6EB0B0164EB00042B0D43EA0C335E1844EB1C50DA465146E7FB0201C5F31304DD
:2023E0004FEA0B3343EA14534FEA0432019C43EA0603A4F10C040294009CCDE900B400F05F
:202400004FF903B0BDE8F08F00200146F9E72DE9F04D81EA030404F0004B21F000451446A2
:202420004FF0000A23F0004150EA050220D054EA01021DD0C5F30A570246C5F31303C1F3BD
:202440001300C1F30A5640F4801543F48013A7EB0608101BD64608F2FD3873EB050002D374
:2024600008F1010801E092185B41B8F1000F03DA00200146BDE8F08D00204FF480110646D5
:2024800084460EE0171B73EB050705D3121B63EB050306434CEA010C49084FEA300092189D
:2024A0005B4150EA0107EDD152EA030012D082EA040083EA0501084305D0101BAB4106D26D
:2024C0000122002306E000224FF0004302E06FF0010253101AEB06004CEB085110EB0A00E5
:2024E00041EB0B01BDE8F04D00F0CBB8C10F80EAE0700844CA079623002100F094B89623D9
:202500000022114600F08FB800F0004220F00040C10DC0F3160040F400007F2901DA00201B
:202520007047962903DCC1F19601C84001E096398840002AF4D040427047C1F30A5210B581
:20254000C1F3130140F2FF3341F480119A4201DA002010BD40F233439A42A2F2334203DC79
:20256000524200F047F810BD904010BD00F0004230F000400AD0C10D01F56071C0F3160064
:2025800042EA0151C20840071143704700200146704701F0004330B421F0004150EA0102DC
:2025A00006D00A0DA2F56072C1F31301002A02DC30BC00207047440F44EAC104C100E01833
:2025C00030BC00EBC25000F025B80000002801DBC0F10040002901DBC1F1004181427047DE
:2025E000002801DBC0F10040002901DBC1F1004188427047202A04DB203A21FA02F00021BC
:20260000704721FA02F3D040C2F1200291400843194670470029A8BF7047401C490008BF29
:2026200020F00100704710B4B0FA80FC00FA0CF050EA010404BF10BC704749B1CCF1200492
:2026400021FA04F411FA0CF118BF012121430843A3EB0C01CB1D4FEA00614FEA102042BF30
:20266000002010BC704700EBC35010440029A4BF10BC7047401C490008BF20F0010010BC0D
:20268000704710B5141E73F1000408DA401C41F1000192185B411A4301D120F0010010BD60
:2026A0002DE9F04D92469B4611B1B1FA81F202E0B0FA80F22032904600F052F804460F462F
:2026C00040EA0A0041EA0B0153465A46084313D0114653EA010019D0C8F140025046FFF723
:2026E00089FF05460E4650465946424600F038F8084305D0012004E020463946BDE8F08DAA
:202700000020054346EAE0762C4337430A986305E40AA0EB08000022FD0A44EA47540A302B
:2027200002D500200146E9E7010510196941DDE9084500196941BDE8F04DA2E7064C074DCB
:2027400006E0E06840F0010394E8070098471034AC42F6D3FFF7CEFCC8D90008E8D9000888
:20276000202A04DB203A00FA02F1002070479140C2F1200320FA03F3194390407047420036
:2027800005D0C0F3C7525242914201DC0020704700EBC150704770B58C1810F8015B15F098
:2027A000070301D110F8013B2A1106D110F8012B03E010F8016B01F8016B5B1EF9D12B0782
:2027C00005D40023521E0DD401F8013BFAE710F8013BCB1A921C03E013F8015B01F8015B20
:2027E000521EF9D5A142D8D3002070BD21B1826842F00102826003E0826822F00102826029
:202800007047000010B52D2008F04AF92F480078002857DD002005E000212D4A22F8101092
:20282000411CC8B20828F7DB002439E029482A494861264801782848083003F022FC012133
:202840002548083003F018FB01212448FFF7CEFF0121224800F0EDF800BF022003F0BEFB8E
:202860000028FAD0022003F0EBFA00211B48FFF7BDFF00211848083003F0FEFA00200BE087
:20288000134931F81010134A32F810201144104A22F81010411CC8B20828F1DB601CC4B22E
:2028A000082CC3DB00200BE0094A32F81010CA1701EB5272D210064B23F81020411CC8B2B8
:2028C0000828F1DB2D2007F0E9FF10BD44020020540A0020640A00200000024000240140EA
:2028E00021B1826842F48072826003E0826822F4807282607047014600208A6802F0040253
:202900000AB1012000E000207047014600208A6802F008020AB1012000E00020704700003C
:2029200030B502460020002350680F4C20400D790C6844EA05242043506090680B4C2040A1
:20294000D1E902542C434D7944EA450420439060D06A20F470000C7C641EE4B2234340EA7A
:202960000350D06230BD0000FFFEF0FFFDF7F1FFF0B504460D4600200021092D11DDE06826
:20298000A5F10A0606EB4607072606FA07F18843A5F10A0606EB460603FA06F10843E06001
:2029A0000CE0206905EB4507072606FA07F1884305EB450603FA06F108432061072A0FDA61
:2029C000606B561E06EB86071F2606FA07F18843561E06EB860605FA06F10843606322E03B
:2029E0000D2A0FDA206BD61F06EB86071F2606FA07F18843D61F06EB860605FA06F10843FE
:202A0000206310E0E06AA2F10D0606EB86071F2606FA07F18843A2F10D0606EB860605FAAB
:202A200006F10843E062F0BD816841F008018160704721B1826842F4A002826003E0826867
:202A400022F4A00282607047816841F004018160704710B502464800401C02F10B031B5C45
:202A600002F10B0010F8110043EA002000B210BD7CB50446C3208DF80400E3208DF80500FF
:202A8000A07A022301AA012105F044FC054600208DF804008DF805003DB90090A07A0223B2
:202AA00001AA012105F010FB05467CBD7CB504460D4600200090A07A022301AA002105F047
:202AC00003FB06465EB904F10B00022101FB0500BDF8041001802068401C206002E0606819
:202AE000401C606030467CBDF8B504460D46C32040EA0510C0B28DF80000E3208DF801001F
:202B0000A07A02236A46012105F004FC064684F825503046F8BD01468A7B487B42EA0020EC
:202B200000B2704770477CB5044601200090A07A042301AA0C2105F0C7FA054635B90198A8
:202B4000C4F80B002068401C206002E06068401C606028467CBD000070B506460D461446BF
:202B600025B1102208492846FFF7DCFA24B1102206492046FFF7D6FA24B110220449304676
:202B8000FFF7D0FA70BD0000740A0020840A0020940A002002490A88028089788170704736
:202BA000880200200021804A11705170917090F84813002976D0002112E0C1EB011300F127
:202BC0003E0202EB4302927902F0010232B1764A127801238B401A43734B1A704A1CD1B2D9
:202BE0000829EADB0021D2E001EB410300F597721A44527802F01F02072A1DD001EB410355
:202C000000F597721A44527802F01F02052A13D001EB410300F597721A44527802F01F0200
:202C2000082A09D001EB410300F597721A44527802F01F02062A06D15B4A927842F0010235
:202C4000594B9A708CE001EB410300F597721A44527802F01F020C2A1DD001EB410300F5A9
:202C600097721A44527802F01F020A2A13D001EB410300F597721A44527802F01F020D2A59
:202C800009D001EB410300F597721A44527802F01F020B2A07D1444A927842F00202424B8A
:202CA0009A705DE077E001EB410300F597721A44527802F01F02112A1DD001EB410300F5C0
:202CC00097721A44527802F01F020F2A13D001EB410300F597721A44527802F01F02122AEF
:202CE00009D001EB410300F597721A44527802F01F02102A06D12C4A927842F004022A4B54
:202D00009A702DE001EB410300F597721A44527802F01F02152A1DD001EB410300F59772D9
:202D20001A44527802F01F02132A13D001EB410300F597721A44527802F01F02162A09D0B6
:202D400001EB410300F597721A44527802F01F02142A05D1144A927842F00802124B9A70EB
:202D600001EB410300F597721A449278C2F340025AB901EB410300F59772D256002A04DB54
:202D8000094A5278521C084B5A704A1CD1B28029FFF62AAF06E0FF21034A117080215170F5
:202DA0000F219170704700008802002030B50346002000BF08E01C5C01F810400025440062
:202DC000641C0D55441CE0B29042F4DB30BD00002DE9F04192B004460121084607F016FA47
:202DE00001214FF4047007F031FA002014E0FF2100EB8002FE4B03EBC2021172012100EBAC
:202E0000800203EBC20282F8231000EB800203EBC20282F82410401C0828E8DB002530E27E
:202E200004F12000405D052830D100202BE0C0EB001204F13E0101EB420191F91410A942CE
:202E40001FD1EC49097808291BDA0021E94A127802EB8202E64B03EBC202517269B2E54A67
:202E6000127802EB820203EBC2021172E1490978491CE04A1170E0490978491CDE4A1170AF
:202E800003E0411CC8B20828D1DBF9E104F12000405D0A282BD1002026E0C0EB001204F10A
:202EA0003E0101EB420191F91410A9421AD1D1490978082916DA0121CE4A127802EB82022F
:202EC000CB4B03EBC202517269B2CA4A127802EB820203EBC2021172C6490978491CC54A04
:202EE000117003E0411CC8B20828D6DBC8E104F12000405D0C282BD1002026E0C0EB001248
:202F000004F13E0101EB420191F91410A9421AD1B8490978082916DA0221B64A127802EB8D
:202F20008202B34B03EBC202517269B2B14A127802EB820203EBC2021172AE490978491C77
:202F4000AC4A117003E0411CC8B20828D6DB97E104F12000405D0D282BD1002026E0C0EB33
:202F6000001204F13E0101EB420191F91410A9421AD1A0490978082916DA03219D4A127838
:202F800002EB82029A4B03EBC202517269B2994A127802EB820203EBC202117295490978D9
:202FA000491C944A117003E0411CC8B20828D6DB66E104F12000405D0E282BD1002026E061
:202FC000C0EB001204F13E0101EB420191F91410A9421AD187490978082916DA0421854AE7
:202FE000127802EB8202824B03EBC202517269B2804A127802EB820203EBC20211727D49B9
:203000000978491C7B4A117003E0411CC8B20828D6DB35E104F12000405D0F282BD10020CE
:2030200026E0C0EB001204F13E0101EB420191F91410A9421AD16F490978082916DA052166
:203040006C4A127802EB8202694B03EBC202517269B2684A127802EB820203EBC202117299
:2030600064490978491C634A117003E0411CC8B20828D6DB04E104F12000405D102833D121
:2030800000262EE0C6EB061104F13E0000EB410090F91400A84222D15648007808281EDA1D
:2030A00006205449097801EB8101514A02EBC101487268B24F49097801EB810102EBC1010A
:2030C00008724C49097801EB810102EBC10006F04DFC48480078401C4649087003E0701C2B
:2030E000C6B2082ECEDBCBE03320005D172890D13420005D18288CD1482749E0002642E050
:20310000C6EB061104F13E0000EB410090F91400801CA8BBC6EB061104F13E0000EB4100C5
:20312000807EB8422DD1C6EB061104F13E0000EB4100807E2F49097801EB81012C4A02EBAA
:20314000C101887208202B49097801EB810102EBC1014872FE202749097801EB810102EB55
:20316000C10108722349097801EB810102EBC100FFF77EFC1F480078401C1E49087004E09C
:20318000FFE7701CC6B2082EBADB00BF781CC7B24B2FB3DD002670E0C6EB061104F13E0033
:2031A00000EB410090F91400801C38BBC6EB061104F13E0000EB4100807E36285AD1C6EB58
:2031C000061104F13E0000EB4100807E0949097801EB8101064A02EBC101887209200549CA
:2031E000097801EB810102EBC1014872FE2006E01409002045020020440200203BE077498E
:20320000097801EB810102EBC101087240F6FF70C6EB061204F13E01009031F91200002305
:2032200047F6FF7251420AF08BF987B240F6FF70C6EB061204F13E0101EB42010090B1F98B
:203240000400002347F6FF7251420AF079F91FFA80F86249097801EB8101614A02EBC10016
:2032600042463946FFF75EFC5C480078401C5B49087004E000BF701CC6B2082E8CDB00BF60
:203280006D1C1E2DFFF6CCAD5648007800287DDD0027002122E00022002016E000EB800364
:2032A0004F4D05EBC3035B7A73B900EB800305EBC30393F908308B4206D100EB800305EBD1
:2032C000C30383F825700122401C444B1B789842E4DB0AB1781CC7B2481CC1B20829DADB59
:2032E00000200D9001208DF838008DF839004FF460200F90002010903A4800788DF8440090
:203300000DA93948FFF70CFB01213748FFF7E8FA4FF00108002522E004F12000405D0528B2
:203320001CD1002617E0C6EB061104F13E0000EB410090F91400A8420BD14246531C03F00F
:20334000FF082A4810F8351007232748FFF710FB03E0701CC6B2082EE5DB00BF6D1C082DB3
:20336000DADB234802F094FD1F484C30029021480390002004901B4800780590002006905F
:203380008020079040000890800000E022E0099000200A904FF400500B9000200C9002A9D4
:2033A000134802F050FE01210F48FFF71FFA0E48FFF73AFB00BF0C48FFF7A7FA0028FAD1CC
:2033C0000948FFF741FB00BF0748FFF794FA0028FAD100BF12B0BDE8F081000045020020E7
:2033E0001409002044020020002401404802002008000240540A00202DE9F04F8FB00546B4
:203400002E2007F04DFB0024FEE3C4EB041105F13E0000EB410090F91480C4EB041105F11F
:203420003E0000EB4100807C00090590C4EB041105F13E0000EB4100807E0490B8F1000F1A
:2034400075DB05F1200010F80800052871D1002600BF0BE006EB8600F74901EBC00090F9CB
:203460000800404500D103E0701CC6B2082EF1DB00BFC4EB041105F13E0000EB4100407D65
:20348000C008002836DD06EB8600EB4901EBC00090F82500E94931F81010C4EB041205F1EF
:2034A0003E0000EB4200407DC00800EB001000EB8000A1EB400007A941F8240007A850F8E6
:2034C0002400002807DA07A850F8240000F6FF7041F824001BE007A850F82400B0F5805F48
:2034E00015DB07A850F82400A0F6FF7007A941F824000CE006EB8600CF4901EBC00090F800
:203500002500CE4931F8100007A941F8240047F6FF7007A9009051F82400C94B1A0D002174
:203520000AF00EF800B2C74921F814006BE300E2FFE705F1200010F808000A2877D10020C6
:203540000690002600BF0BE006EB8600BA4901EBC00090F90800404500D103E0701CC6B211
:20356000082EF1DB00BF06EB8601B34A02EBC10006A909F071F980BB06EB8600AE4951F863
:203580003000401C06EB8601AB4A42F83100C4EB041105F13E0000EB4100407DC0080028F6
:2035A00026DDC4EB041205F13E0101EB4201497DC908C1EB0110FEF799FF07460699FEF71D
:2035C00041FE0690A0490698FFF700F806D29F490698FEF7E2FD06900AE019E09C49069873
:2035E000FEF7FEFF04D299490698FEF728FE069098490698FEF729FE06900698FEF784FF8B
:2036000007460AF000F800B28E4921F814000CE006EB8600884901EBC0004068401C06EBE0
:203620008601854A02EBC1014860ECE2FFE705F1200010F808000C286BD1002600BF0BE0C3
:2036400006EB86007C4901EBC00090F90800404500D103E0701CC6B2082EF1DB00BFC4EB44
:20366000041105F13E0000EB4100407DC008002834DD06EB8601704A02EBC100002106F020
:203680007FF8C4EB041205F13E0101EB4201497DC90801EB011101EB8101A0EB410007A90B
:2036A00041F8240007A850F82400002807DA07A850F8240000F6FF7041F8240019E007A804
:2036C00050F82400B0F5805F13DB07A850F82400A0F6FF7007A941F824000AE006EB86017D
:2036E000554A02EBC100002106F04AF807A941F8240047F6FF7007A9009051F82400504B23
:203700001A0D002109F01CFF00B24E4921F8140079E205F1200010F808000D280BD005F150
:20372000200010F808000E2805D005F1200010F808000F286BD1002600BF0BE006EB86006E
:203740003D4901EBC00090F90800404500D103E0701CC6B2082EF1DB00BFC4EB041105F1EE
:203760003E0000EB4100407DC008002834DD06EB8601314A02EBC100059906F001F8C4EB44
:20378000041205F13E0101EB4201497DC90801EB011101EB8101A0EB410007A941F82400D3
:2037A00007A850F82400002807DA07A850F8240000F6FF7041F8240019E007A850F82400F4
:2037C000B0F5805F13DB07A850F82400A0F6FF7007A941F824000AE006EB8601164A02EB9B
:2037E000C100059905F0CCFF07A941F8240047F6FF7007A9009051F82400114B1A0D0021A0
:2038000009F09EFE00B20F4921F81400FBE105F1200010F808001028F8D100260020039000
:2038200000BF1BE006EB8600034901EBC00090F90800404510D113E014090020540A0020BA
:203840000180FFFF840A0020000034C30000B4430000344300007A44701CC6B2082EE1DB22
:2038600000BF06EB8600FE4A02EBC00103A8059A06F040F8C0BB06EB8600F94951F83000F7
:20388000401C06EB8601F64A42F83100C4EB041105F13E0000EB4100407DC008002833DDC8
:2038A000C4EB041105F13E0000EB4100407DC00840F255514843BDF80C10A1EB400000B2AD
:2038C000E84921F81400084630F9140010F5004F0BDC084630F814004FF6FF71084400B287
:2038E000E04921F8140023E015E0DE4830F91400B0F5004F1CDBDB4830F81400401C00B2BF
:20390000D84921F8140013E0BDF80C0000B2D54921F814000CE006EB8600D14901EBC0007F
:203920004068401C06EB8601CD4A02EBC101486069E108F10200002875D1002600BF0BE01A
:2039400006EB8600C64901EBC000817A0498814200D103E0701CC6B2082EF1DB00BF06EB71
:203960008600BF4901EBC000407A08285CD1C4EB041105F13E0000EB4100407DC008002825
:2039800036DD06EB8601B64A02EBC1000599FFF760F8C4EB041205F13E0101EB4201497D13
:2039A000C90840F255525143A0EB410007A941F8240007A850F82400002809DA07A850F8D3
:2039C000240047F6FF71084407A941F824001AE007A850F82400B0F5004F14DB07A850F8CE
:2039E0002400A0F5FE40FF3807A941F824000AE006EB86019A4A02EBC1000599FFF729F8E3
:203A000007A941F8240047F6FF7007A9009051F82400954B5A0C002109F092FD00B29149C5
:203A200021F814005FE05FE006EB86008C4901EBC000407A092856D1C4EB041105F13E00D9
:203A400000EB4100407DC008002833DD06EB8601834A02EBC100FFF75EF8C4EB041205F183
:203A60003E0101EB4201497DC90801EB011101EB8101A0EB410007A941F8240007A850F805
:203A80002400002807DA07A850F8240000F6FF7041F8240018E007A850F82400B0F5805F85
:203AA00012DB07A850F82400A0F6FF7007A941F8240009E006EB8601694A02EBC100FFF734
:203AC0002AF807A941F8240047F6FF7007A9009051F82400644B1A0D002109F031FD00B28E
:203AE000604921F814008EE008F10300F0BBC4EB041205F13E0101EB4201897C080900EBB1
:203B000040015A4A02EB81014968B1F5004F07DB47F6FF7100EB4002544B03EB820251602D
:203B200000EB4001514A02EB8101496811F5004F06DC4D4900EB40024C4B03EB82025160EA
:203B4000C4EB041205F13E0101EB4201497DC90800293FDDC4EB041205F13E0101EB420137
:203B6000897C090901EB4101404A00E04BE002EB8101C4EB04134A6805F13E0101EB43011F
:203B8000497DC90801EB011101EB8101A2EB410107AA42F8241007A951F82410002909DAFB
:203BA00007A951F8241047F6FF72114407AA42F8241020E007A951F82410B1F5004F1ADB9F
:203BC00007A951F82410A1F5FE41FF3907AA42F8241010E0C4EB041205F13E0101EB420173
:203BE000897C090901EB4101204A02EB8101496807AA42F8241007A931F8241009B2194AAC
:203C000022F8141000BF00E0FEE3C4EB041605F13E0303EB46039B795A0904EB8403144E60
:203C200006EBC3010F4B33F9140003F029FD07A941F82400C4EB041105F13E0000EB4100EB
:203C4000C07CC009F0BBC4EB041105F13E0000EB4100C07C00F07F0047F6FF71002209E02D
:203C600014090020840A00200180FFFFE4150020A40A00204B42C4EB041705F13E0606EB71
:203C80004706CDE90032CDE90210B6F90430C4EB041705F13E0606EB4706B6F90220C4EB82
:203CA000041705F13E0636F9171007AE56F8240009F05EFC07A941F8240007AA32F82420B3
:203CC00011B200E031E0C4EB041305F13E0202EB43000B2207F0CEFC07A941F82400C4EB5A
:203CE000041305F13E0202EB4302927C02F00F02511C07AA32F8242010B207F08BFB07A9B9
:203D000041F82400C4EB041105F13E0000EB41008079C0F34000002806DD07A850F8240010
:203D2000404207A941F8240094E0C4EB041105F13E0000EB4100C07CC00978B307A951F833
:203D40002410FE4A32F91420881A09F08DFBC4EB041205F13E0101EB4201C97C01F07F0186
:203D600001EBC10188421AD2C4EB041605F13E0303EB4603DB7C03F07F02F14B03EB04119E
:203D800007AB33F8243018B204F03DFE30B1ED4830F9140007A941F824005BE0FFE7002058
:203DA00047F6FF714B42CDE90030C4EB041705F13E0606EB4706CDE90210B6F90430C4EB47
:203DC000041705F13E0606EB4706B6F90220C4EB041705F13E0636F9171007AE56F82400FE
:203DE00009F0C6FB07A941F8240007AA32F8242011B2C4EB041305F13E0202EB43000B22C1
:203E000007F038FC07A941F82400C4EB041305F13E0202EB4302927C02F00F02511C07AA0D
:203E200032F8242010B207F0F5FA07A941F82400C4EB041105F13E0000EB41008079C0F38F
:203E40004000002806DD07A850F82400404207A941F82400C4EB041105F13E0000EB410049
:203E6000007F64287DD0C4EB041105F13E0000EB410090F9160000280ADBC4EB041105F160
:203E80003E0000EB4100C07E00F00700012829D0C4EB041105F13E0000EB410090F917009D
:203EA00000280ADBC4EB041105F13E0000EB4100C07EC0F3C100012814D0C4EB041105F158
:203EC0003E0000EB410090F91800002866DBC4EB041105F13E0000EB4100C07E0121B1EB4E
:203EE000501F5BD1C4EB041105F13E0000EB410090F91600002813DB04EB4400924901EB54
:203F0000C0000079C0F3001050B1C4EB041105F13E0000EB4100C07E00F0070001283DD015
:203F2000C4EB041105F13E0000EB410090F91700002813DB04EB4400834901EBC000007B81
:203F4000C0F3001050B1C4EB041105F13E0000EB4100C07EC0F3C10001281FD0C4EB0411EB
:203F600000E02CE005F13E0000EB410090F91800002824DB04EB4400734901EBC000007D15
:203F8000C0F30010D8B1C4EB041105F13E0000EB4100C07E0121B1EB501F10D107A850F86E
:203FA0002400C4EB041205F13E0101EB4201097F4843642190FBF1F007A941F8240003F0B0
:203FC00045FE06460F464FF00009CA46CB4600200390C4EB041105F13E0000EB410090F934
:203FE000160000280CDBC4EB041105F13E0000EB4100C07E00F00700052801D149F0010901
:020000040800F2
:20400000C4EB041105F13E0000EB410090F9180000280CDBC4EB041105F13E0000EB4100A8
:20402000C07E0521B1EB501F01D149F00409C4EB041105F13E0000EB410090F9160000280E
:204040000CDBC4EB041105F13E0000EB4100C07E00F00700032801D14AF0010AC4EB04111A
:2040600005F13E0000EB410090F9170000280CDBC4EB041105F13E0000EB4100C07EC0F31C
:20408000C100032801D14AF0020AC4EB041105F13E0000EB410090F9180000280CDBC4EB99
:2040A000041105F13E0000EB4100C07E0321B1EB501F01D14AF0040AC4EB041105F13E000C
:2040C00000EB410090F9160000280CDBC4EB041105F13E0000EB4100C07E00F00700042881
:2040E00001D14BF0010BC4EB041105F13E0000EB410090F9180000280CDBC4EB041105F119
:204100003E0000EB4100C07E0421B1EB501F01D14BF0040BC4EB041105F13E0000EB410087
:2041200090F91600002817DBC4EB041105F13E0000EB4100C07E00F0070007E0840A0020D8
:20414000E40B0020740A0020640C0020022803D1039840F001000390C4EB041105F13E00CD
:2041600000EB410090F9170000280EDBC4EB041105F13E0000EB4100C07EC0F3C100022862
:2041800003D1039840F002000390C4EB041105F13E0000EB410090F9180000280EDBC4EB66
:2041A000041105F13E0000EB4100C07E0221B1EB501F03D1039840F00400039004EB4400B5
:2041C000FE4901EBC0000079010904EB4400FB4A02EBC000007961F3410004EB440102EB15
:2041E000C101087104EB4400114601EBC000007B010904EB440002EBC000007B61F34100D9
:2042000004EB440102EBC101087304EB4400114601EBC000007D010904EB440002EBC000A3
:20422000007D61F3410004EB440102EBC1010875C4EB041105F13E0000EB410090F9160049
:20424000002818DBC4EB041105F13E0000EB410090F91600DA4901EBC0000079010904EB3F
:20426000440002EBC000007961F3041004EB440102EBC1010871C4EB041105F13E0000EB2D
:20428000410090F91700002819DBC4EB041105F13E0000EB410090F91700C94901EBC0009F
:2042A0000079010904EB4400C44A02EBC000007B61F3041004EB440102EBC1010873C4EB9D
:2042C000041105F13E0000EB410090F91800002819DBC4EB041105F13E0000EB410090F9FF
:2042E0001800B74901EBC0000079010904EB4400B24A02EBC000007D61F3041004EB440182
:2043000002EBC1010875B9F1000F05DCBAF1000F02DCBBF1000F78DD09F0010058B304EB3B
:204320004400A64901EBC0000079C0F3001004EB4401A24A02EBC1010979C1F34001884252
:2043400019DD4FF4FA70301804EB440142F83100C4EB041105F13E0000EB4100407E4FF6AC
:20436000FF7191FBF0F0974951F824100844954941F8240094E009F0010060B304EB4400C9
:204380008E4901EBC0000079C0F3400018B304EB440051F83000321A67F10000322300219D
:2043A0009A1A814117DA04EB4400844941F83060C4EB041105F13E0000EB4100407E4FF6A6
:2043C000FF7191FBF0F07F4951F8241008447D4941F8240064E009F0040078B304EB4400AE
:2043E000764901EBC000007DC0F3001104EB4400724A02EBC000007DC0F3400081421EDD47
:204400004FF4FA70301801E0BCE145E104EB440102EBC1010861C4EB041105F13E0000EBD4
:204420004100407E4FF6FF7191FBF0F0654951F824100844634941F8240031E0FFE709F0EC
:20444000040068B304EB44005C4901EBC000007DC0F3400020B304EB440001EBC00000692E
:20446000321A67F10000322300219A1A814117DA04EB4400514901EBC0000661C4EB041117
:2044800005F13E0000EB4100407E4FF6FF7191FBF0F04C4951F8241008444A4941F824008F
:2044A0000BF0010060B304EB4400444901EBC0000079C0F3001004EB4401404A02EBC101D8
:2044C0000979C1F3400188421ADD4FF4FA70301804EB440142F83100C4EB041105F13E0018
:2044E00000EB4100407E4FF6FF7191FBF0F0354951F82410A1EB0000324941F8240099E0D9
:204500000BF0010060B304EB44002C4901EBC0000079C0F3400018B304EB440051F8300055
:20452000321A67F10000322300219A1A814117DA04EB4400214941F83060C4EB041105F1DA
:204540003E0000EB4100407E4FF6FF7191FBF0F01C4951F82410081A1A4941F8240069E005
:204560000BF0040080B304EB4400144901EBC000007DC0F3001104EB4400104A02EBC00052
:20458000007DC0F34000814223DD4FF4FA70301804EB440102EBC1010861C4EB041105F1ED
:2045A0003E0000EB4100407E4FF6FF7191FBF0F0044951F82410A1EB000006E0640C0020E6
:2045C000C4110020240D002003E0FE4941F8240030E00BF0040068B304EB4400FA4901EB82
:2045E000C000007DC0F3400020B304EB440001EBC0000069321A67F10000322300219A1AA2
:20460000814117DA04EB4400EF4901EBC0000661C4EB041105F13E0000EB4100407E4FF642
:20462000FF7191FBF0F0E74951F82410081AE54941F824000AF0010068B104EB4400E249D2
:2046400001EBC0000079C0F3001020B10020DD4941F8240020E00AF0020068B104EB4400B6
:20466000D94901EBC000007BC0F3001020B10020D44941F824000FE00AF0040060B104EBD6
:204680004400D14901EBC000007DC0F3001018B10020CC4941F82400039800283DDD0398FD
:2046A00000F0010080B104EB4400C74901EBC0000079C0F3001038B107A850F82400404227
:2046C000C04941F8240028E0039800F0020080B104EB4400BC4901EBC000007BC0F300108C
:2046E00038B107A850F824004042B64941F8240013E0039800F0040078B104EB4400B249FF
:2047000001EBC000007DC0F3001030B107A850F824004042AB4941F82400AA4850F8240080
:20472000B0F5803F04DB4FF6FF70A64941F82400A44850F8240010F5803F03DCA348A14966
:2047400041F8240007A850F824009E4951F82410084407A941F8240007A850F82400B0F564
:20476000004F03DB47F6FF7041F8240007A850F8240010F5004F03DC954807A941F82400CB
:20478000601CC4B2082CFEF640AE002047E100EB40018D4A02EBC1010979C1F3001149B1D6
:2047A000C0EB001205F13E0101EB4201C97E01F00701E9B300EB4001834A02EBC101097BD0
:2047C000C1F3001149B1C0EB001205F13E0101EB4201C97EC1F3C10151B300EB40017A4A48
:2047E00002EBC101097DC1F3001141B1C0EB001205F13E0101EB4201C97E4909C1B1C0EBF6
:20480000001205F13E0101EB4201C97E01F00701F1B3C0EB001205F13E0101EB4201C97ED6
:20482000C1F3C101A1B3C0EB001205F13E0100E004E001EB4201C97E490949B3C0EB001277
:2048400005F13E0101EB42018979C1F3C101F9B1C0EB001205F13E0101EB42018979C1F3FB
:20486000C101012904D0022939D0032972D172E0C0EB001205F13E0101EB42018979C1F3AC
:204880008001A9B107A951F82020C0EB001300E088E005F13E0101EB4301497D01F00701DA
:2048A00007AB53F82110114407AA42F8201015E007A951F82020C0EB001305F13E0101EB4D
:2048C0004301497D01F0070107AB53F82110114447F6FF72114407AA42F820104BE0C0EB5E
:2048E000001205F13E0101EB42018979C1F38001C9B107AB53F8202002EBD2735C10C0EB0B
:20490000001605F13E0303EB46035B7D03F0070307AE56F8231001EBD173A4EB630307AC30
:2049200044F8203015E007A951F82020C0EB001305F13E0101EB4301497D01F0070107AB29
:2049400053F82110511AA1F5FE41FF3907AA42F8201010E00EE0C0EB001205F13E0101EB8C
:204960004201497D01F0070107AA52F8211042F8201000E000BF00BF07A951F82010B1F572
:20498000004F05DB47F6FF7107AA42F8201009E007A951F8201011F5004F03DC0C4907AAD4
:2049A00042F820101C2101228A400A4B4C0943F8242000BF07A931F8201009B2064A22F84D
:2049C00010100BE0240D0020640C00200100FFFF0180FFFF80E100E0740A0020C0EB0012D1
:2049E00005F13E0101EB4201897901F0010131B10F4931F810100F4A22F8101003E0002144
:204A00000C4A22F810101C2101228A404B099B0003F1E023C3F8002100BF411CC8B2082854
:204A2000FFF6B5AE2E2005F039FF0FB0BDE8F08F740A0020940A00202DE9FF4180460E46F4
:204A40001546002269461046FEF786F800242AE0C4EB041106F2B6200844807B08B3002778
:204A600016E02878802810DAC4EB041306F2B6215A183DF91400394603F038F8297808F87A
:204A800001002878401C287000E009E0781CC7B2C4EB041106F2B6200844407BB842E0DC5C
:204AA00000BF601CC4B2082CD2DBBDE8FF8100BFFEE7000070B5044603F0C8F8054600200E
:204AC0009BE050490978504A127891420AD04D490978884206DD4C490978884202DCB4F842
:204AE000B46200E0A68B494901EBC0010979474A02EBC002127961F34102444901EBC00132
:204B00000A7143490A5C414901EBC001097962F300013E4A02EBC00211713C4901EBC0012E
:204B20000979C1F3C001D9B9384901EBC001097901F00101354A02EBC0021279C2F3400299
:204B400091420DD0314941F8305001EBC001097921F0080108312D4A02EBC00211714AE01E
:204B60002A4901EBC0010979C1F3C00161B3274901EBC001097901F00101244A02EBC0025B
:204B80001279C2F3400291421ED1204951F83010691AB14218D91D4901EBC001097921F0D2
:204BA00008011A4A02EBC0021171184901EBC0010979164A02EBC002127961F382021349F9
:204BC00001EBC0010A7116E0104901EBC0010979C1F3C00179B10D4951F83010691AB1423B
:204BE00009D90A4901EBC001097921F00801074A02EBC0021171411CC8B28028FFF661AF31
:204C000070BD00009402002095020020C40D0020440D002070B506460C46154626B1802201
:204C200007493046FDF77EFA24B1102205492046FDF778FA14B104480078287070BD0000D3
:204C4000440D0020C4150020930200202DE9F0470546302005F024FF002702E34FF00008E2
:204C600095F93E0300280FDA95F93F0300280BDA95F94003002807DA95F94103002803DAC6
:204C800095F9420300287DDB002493E004EB440105F5977010F90190B94541D104EB440117
:204CA00008444078400900283AD004EB440105F59770084440784FEA5018A8F101000121DF
:204CC00001FA00F0FB490978084050B3FA4800EBC4000079F84901EBC401097960F3410166
:204CE000F54800EBC400017104EB440105F597704056F24901EBC00000798108EE4800EB81
:204D0000C400007961F30000EB4901EBC4010871E94901EBC40023462A46E94903F0ECFFD9
:204D200046E0E54800EBC4000079C0F3001050B3E14800EBC400007920F06000DE4901EB5E
:204D4000C4010871DC4800EBC400007920F00400D94901EBC4010871D74800EBC400007922
:204D600020F00800D44901EBC4010871D24800EBC400007920F01000CF4901EBC401087130
:204D8000CD4801E019E013E000EBC400007920F00100C94901EBC40108710020C64941F854
:204DA000340001EBC40023462A46C54903F0A4FF601CC4B2802CFFF669AFB8F1000F37D127
:204DC000002432E004EB440105F597704056B84229D1B94800EBC4000179B74800EBC40006
:204DE000007961F34100B44901EBC401087104EB440105F597704056B04901EBC000007995
:204E00008108AD4800EBC400007961F30000AA4901EBC4010871A84901EBC40023462A4601
:204E2000A74903F069FF601CC4B2802CCADB16E2002411E204EB440105F597704056B84210
:204E400036D19C48007890BB04EB440105F5977008444078400950BB974800EBC400007910
:204E6000954901EBC401097960F34101924800EBC400017104EB440105F5977040568F49EE
:204E800001EBC000007981088B4800EBC400007961F30000884901EBC4010871864901EB5F
:204EA000C40023462A46864903F026FFD2E1FFE704EB440105F597704056B84254D17D4826
:204EC000007800F00100E0B304EB440105F59770084440784009A0BB774800EBC400007912
:204EE000C0F300100028E1D0734800EBC400007920F06000704901EBC40108716E4800EB3F
:204F0000C400007920F004006B4901EBC4010871694800EBC400007920F00800664901EBD6
:204F2000C4010871644800EBC400007920F01000614901EBC40108715F4800EBC40000799C
:204F400000E011E020F001005B4901EBC40108710020594941F8340001EBC40023462A46E9
:204F6000574903F0C9FE75E104EB440105F597704056B84254D14F48007800F00200E0B303
:204F800004EB440105F59770084440784009A0BB494800EBC4000079C0F30010002885D03B
:204FA000454800EBC400007920F06000424901EBC4010871404800EBC400007920F0040053
:204FC0003D4901EBC40108713B4800EBC400007920F00800384901EBC4010871364800EB4A
:204FE000C400007920F01000334901EBC4010871314800EBC400007900E011E020F001002B
:205000002D4901EBC401087100202B4941F8340001EBC40023462A46294903F06DFE19E19C
:2050200004EB440105F597704056B8425CD12148007800F00400E0B304EB440105F59770E1
:20504000084440784009A0BB1B4800EBC4000079C0F30010002886D0174800EBC400007955
:2050600020F06000144901EBC4010871124800EBC400007920F004000F4901EBC401087121
:205080000D4800EBC400007920F008000A4901EBC4010871084800EBC400007920F0100066
:2050A000054901EBC4010871034800EBC400007908E019E093020020C4110020C40D002089
:2050C0008F02002020F00100CC4901EBC40108710020CA4941F8340001EBC40023462A46A6
:2050E000C74903F009FEB5E004EB440105F597704056B84254D1C348007800F00800E0B319
:2051000004EB440105F59770084440784009A0BBBA4800EBC4000079C0F3001000283ED08F
:20512000B64800EBC400007920F06000B34901EBC4010871B14800EBC400007920F004007E
:20514000AE4901EBC4010871AC4800EBC400007920F00800A94901EBC4010871A74800EB04
:20516000C400007920F01000A44901EBC4010871A24800EBC400007900E011E020F00100C7
:205180009E4901EBC401087100209C4941F8340001EBC40023462A46994903F0ADFD59E04B
:2051A00004EB440105F597704056B84252D19548007800F01000E8B304EB440105F59770E2
:2051C000084440784009A8BB8C4800EBC4000079C0F3001070B3894800EBC400007920F034
:2051E0006000864901EBC4010871844800EBC400007920F00400814901EBC40108717F4893
:2052000000EBC400007920F008007C4901EBC40108717A4800EBC400007920F01000774995
:2052200001EBC4010871754800EBC400007920F0010000E00EE0714901EBC401087100207C
:205240006E4941F8340001EBC40023462A466C4903F052FD601CC4B2802CFFF6EBAD781CEB
:20526000C7B2802FFFF6FAAC00206649087000BF1DE005F23E310956002916DB002112E076
:2052800005F23E3212568A420BD15C4A02EBC1021279C2F3001282405A4B1B781A43594BF4
:2052A0001A704A1CD1B28029EADB411CC8B20528DFDB0026002063E000EB400205F5977197
:2052C00011448978C1F34001B9BB00EB400205F597718956002952DB1C2101228A404A4BEC
:2052E0004C0943F8242000BF484901EBD601097806F0070301229A409143444A02EBD60222
:20530000117000EB400205F597711144897801F0010199B9394901EBC0010979C1F30011CC
:2053200006F007029140394A02EBD60212781143364A02EBD602117014E020E02F4901EB59
:20534000C0010979C1F3001181F0010106F0070291402E4A02EBD602127811432B4A02EB85
:20536000D6021170711CCEB21C2101228A404B099B0003F1E023C3F8002100BF00BF401C01
:20538000802899DB002032E01D49095C0D2928D2DFE801F027070B0F132717271B1F2727C4
:2053A000230006211A4A11541FE00421184A11541BE00521164A115417E00221144A11542C
:2053C00013E00321124A11540FE00021104A11540BE007210E4A115407E001210C4A115492
:2053E00003E0FF210A4A115400BF00BF401C0428CADB302005F052FABDE8F087C4110020A4
:205400008F0200209302002080E100E0C41500208B02002038B504460D462F2005F040FB36
:20542000002000906A462146284604F0F7FC6A462146284606F0A4FA9DF800000A490870D7
:205440006A4621462846FFF7F7FA9DF80000074908706A462146284606F052FB2F2005F077
:205460001DFA9DF8000038BD94020020950200200146CAB20B1243EA0220704708B500205B
:20548000009022E19748008800F00F00964908700846007800287CD19448006894490880D8
:2054A0000846008800F03000924908809048008800F440508E4908808C4909684BF6BF7298
:2054C00001EA020080F4005080F0200040F4004141F08001854A11608248008800F01000D2
:2054E00090BB1046006848F60F7108401146086003F032FA7D4909684BF6BF7201EA020029
:205500007B49098801F4805109B180F480507849098801F4005109B180F40050754909880D
:2055200001F0100109B180F010007249098801F0200109B180F0200081B241F4004141F0AD
:2055400080016A4A116008BDFFE76848006880B20090BDF8000000F40060B0B363480068A1
:20556000C0F30E0048F68F7108406049086006F025F85E4909684BF6BF7201EA02005C49A4
:20558000098801F4805109B180F480505849098800E056E001F4005109B180F4005055490C
:2055A000098801F0100109B180F010005149098801F0200109B180F0200081B241F40041EE
:2055C00041F08001494A1160BDE7FFE7BDF8000000F40040002878D044480068C0F30E007D
:2055E00048F68F7108404149086004F073FD3F4909684BF6BF7201EA02003D49098801F46B
:20560000805109B180F480503949098801F4005109B180F400503749098801F0100109B117
:2056200080F010003349098801F0200109B180F0200081B241F4004141F080012B4A116040
:2056400081E7294800782C4901EB8000D0F8000C80B20090BDF8000000F40040C0B12248BE
:20566000007801EB8000D0F8000CC0F30E0048F68F7108401C4909781F4A02EB8101C1F8B4
:20568000000C19490978491E1C4A52F821008047BDF8000000F08000B8B11348007816495C
:2056A00001EB8000D0F8000C48F60F7108400E490978114A02EB8101C1F8000C0A49097869
:2056C000491E0F4A52F82100804708484430006880B20449088000F4004000287FF4D2AE56
:2056E00000BF30E73404002044050020005C0040580500205A050020005000405C0400206B
:20570000400400202DE9F04305460E46174698463C464FF0000908E04846421C02F0FF096A
:20572000295C204604F068FB0446C145F4DBE043C4B2B44202D10120BDE8F0830020FBE76B
:205740000B4A02EB8001D1F8001C01F4804171B102EB8001D1F8001C48F68F7211404CF2A8
:2057600080021143024B03EB8002C2F8001C7047005000400B4A02EB8001D1F8001C01F0E0
:20578000400171B102EB8001D1F8001C48F68F72114048F2C0021143024B03EB8002C2F8FC
:2057A000001C704700500040084A02EB8001D1F8001C48F68F62114048F280021143034B03
:2057C00003EB8002C2F8001C704700000050004070B5054620480068808808B1022070BDEC
:2057E0000024062D14D11C480068007800F07F0001280DD1184800688078222801D1174C74
:205800001BE0154800688078212816D1144C14E011480068007800F07F0021280DD1032D4D
:2058200002D0092D07D101E00E4C05E00E4C09200E49087000E000BF00BF0CB90220CEE71C
:2058400005480068846100210348006841820020A0470020C3E7000048050020C9580008B0
:2058600099580008AD5800083D5A00087D04002010B504460249204606F034FA10BD000031
:20588000E004002010B504460249204606F02AFA10BD0000D804002010B5044602492046A1
:2058A00006F020FA10BD0000F0040020014629B90120034A12681082002070470148FCE751
:2058C000480500207804002010B504460249204606F008FA10BD0000E804002070B50546BE
:2058E00006480068C478042C01DB002070BD044800EBC401284606F0F5F9F7E748050020C4
:20590000F80400200246002901DD02207047002A01DD0220FAE70020F8E7000000B502463C
:2059200006480068007800F07F00212804D10B2A02D100F077F800BD0220FCE74805002016
:2059400010B5002029490968887228490968C8722748C079254909684872002005F048FCCF
:205960004FF40071002005F03DFD1021002005F0FFFC1821002005F06BFC5821002005F0A0
:20598000D9FC0020FFF710FF1A4890F82C10002005F070FC002005F0B3FC4FF4C06101201D
:2059A00005F020FD4FF48071012005F0C3FC4FF48271012005F04CFC0021012005F0CAFC3B
:2059C0004021012005F056FC4FF44051012005F077FC2021012005F0CBFC002005F010FC62
:2059E0000120054908600549087010BD48050020E00200208404002018050020C8020020FF
:205A000003480068807A10B105200249086070474805002018050020042001490860704752
:205A20001805002003480068C178034801600020704700004805002078040020014629B988
:205A40000220034A12681082002070470148FCE7480500207E0400207047704710B502F094
:205A6000B3F902F0F9F802F0C9F902F007F9002005490968887204F0A5FB07F0A5F90020CF
:205A80000249086010BD0000480500201805002010B5222005F004F80024202000F0B4FAE2
:205AA000002878D0202000F0D9F90021B14800F0E3F900BFB048008900F080000028F9D1EC
:205AC000002412E004EB8400AC4901EBC00090F90800002807DB04EB840001EBC00090F85A
:205AE000230000B903E0601CC4B2082CEADB00BF082C11DA04EB8400A04901EBC000407A5C
:205B000001280AD12146621CD4B201EB81019B4A02EBC10006F020FFAFE004EB840097491E
:205B200001EBC000407A02280AD12146621CD4B201EB8101914A02EBC10003F0B9FE9CE072
:205B400004EB84008D4901EBC000407A032826D104EB8401894A02EBC10003F0A9FE04EBF6
:205B60008400864901EBC00090F82500012813DA04EB84020B4603EBC20292F82520521CAE
:205B8000D1B204EB840203EBC20003F01DFE222004F084FE10BDE8E0601CC4B26DE004EBD4
:205BA0008400764901EBC000407A042825D104EB8401724A02EBC10003F07AFE04EB84005E
:205BC0006E4901EBC00090F82500032812DA04EB84020B4603EBC20292F82520521CD1B266
:205BE00004EB840203EBC20003F0EEFD222004F055FECFE7601CC4B23FE004EB84005F4937
:205C000001EBC000407A052825D104EB84015B4A02EBC10003F04CFE04EB8400574901EBF8
:205C2000C00090F82500072812DA04EB84020B4603EBC20292F82520521CD1B204EB84022F
:205C400003EBC20003F0C0FD222004F027FEA1E7601CC4B211E004EB8400484901EBC0006E
:205C6000407A062809D12146621CD4B201EB8101424A02EBC10004F073F81C2001218140D1
:205C80004209920002F1E022C2F8001100BF68E004EB8400394901EBC00090F90800002806
:205CA0005DDB04EB840001EBC00090F82300E0B304EB840001EBC00090F82400A8B304EB3A
:205CC000840001EBC000407A01280AD104EB84012A4A02EBC10006F00DFE222004F0DEFD2E
:205CE00058E704EB8400254901EBC000407A022814D004EB840001EBC000407A03280DD02F
:205D000004EB840001EBC000407A042806D004EB840001EBC000407A05280DD104EB840150
:205D2000164A02EBC100002100E018E003F04CFD222004F0B3FD2DE704EB84000F4901EB6F
:205D4000C000407A06280AD104EB84010B4A02EBC10003F0C5FF222004F0A0FD1AE7601C42
:205D6000C4B2082C94DB01F087FE222004F096FD00BF0FE71C00024000300140140900200A
:205D800010B5232004F08CFE00244FF4007000F03BF9002849D04FF4007000F05FF8002126
:205DA000244800F069F800BF2348008900F080000028F9D1002436E004EB84001F4901EB10
:205DC000C00090F9080000282BDB04EB840001EBC00090F8240020BB012004EB8401174AA8
:205DE00002EBC10181F82400002004EB840102EBC10181F8230004EB8400114601EBC00002
:205E0000407A012809D104EB840102EBC10101F10C000022052105F061F8232004F03EFD9C
:205E200010BD601CC4B2082CC6DB232004F036FD00BFF5E7300002400030014014090020A9
:205E400000F0805111B10349086001E00249486070470000040402400000024000F0805133
:205E600011B10349086001E00249486070470000040402400000024021B1026842F0010224
:205E8000026004E002684FF6FE731A400260704701684FF6FE721140016000210160416036
:205EA0008160C1604B49884208D14A490839496841F00F01474A083A51608AE04549143122
:205EC000884208D143490839496841F0F001414A083A51607DE03F492831884208D13D499A
:205EE0000839496841F470613A4A083A516070E038493C31884208D136490839496841F4AC
:205F00007041344A083A516063E032495031884208D130490839496841F470212D4A083A93
:205F2000516056E02B496431884208D129490839496841F47001274A083A516049E02549C9
:205F40007831884208D123490839496841F07061204A083A51603CE01F49884206D1011FF3
:205F6000096841F00F01021F116032E01A491431884208D11849091F096841F0F001164A04
:205F8000121F116025E014492831884208D11249091F096841F470610F4A121F116018E014
:205FA0000D493C31884208D10B49091F096841F47041094A121F11600BE00749503188422D
:205FC00007D10549091F096841F47021024A121F1160704708000240080402400146002098
:205FE000002201F0805313B1054B1A6801E0054B1A6802EA01030BB1012000E000207047EE
:020000040800F2
:20600000000402400000024001460020002201F0805313B1054B1A6801E0054B1A6802EA76
:2060200001030BB1012000E00020704700040240000002401AB103680B43036002E003680C
:206040008B430360704710B50022026847F6F0739A430C6A8B6823430C6923434C692343C5
:206060008C692343CC6923434C6A23438C6A23431A430260CB6843600B6883604B68C360F1
:2060800010BD4160704700002DE9F0472848006800F110052E8826480068077AD6B9042FE1
:2060A00018D12448007801280FD100212248006880B2801C214A42F8101030202049088043
:2060C00000BF00201B49087003E0072710201C49088027E0AC88A64201D8042000E00220B5
:2060E0000746B44200D93446A0B2A96888478046002001F0EBFC8146A2B24946404606F0F4
:20610000A5FEA1B2002005F025F92888001B28806888204468803020094908800002094929
:20612000088000BF024909680F72BDE8F08700004805002040050020505C00400060004061
:206140005A050020580500202DE9F0413048006800F110042688A068C0B1BEB1A588B5425D
:2061600000D93546A8B2A168884707462088401B2080608828446080002001F085FC80461D
:20618000AAB24146384603F0CDFF00BF208850B14FF440501F4908800021084605F0DAF87E
:2061A00030201D4908802088A188884204DB032017490968087228E02088002804DD0520DB
:2061C00013490968087220E02088F0B9062010490968087211490968886880470C4800687F
:2061E000007A082806D140020A49088010200A4908800AE000210A48006880B2801C094A10
:2062000042F81010302004490880BDE8F081000048050020580500205A0500204C0500200F
:20622000505C0040006000402DE9F84F9B48006845780027BA46062D1BD198480068007867
:2062400000F07F00002813D1944909688878012803D193490968CF690AE0022803D1904932
:2062600009680F6A04E0032802D18D4909684F6A94E0002D64D189480068408800285FD123
:2062800086480068C08802285AD1844800680079002855D181480068007800F07F0028B937
:2062A0007E480068808808B97E4F77E07B480068007800F07F00012810D1784909684879B4
:2062C000774909688A6900219047002866D173480068807A002861D0724F5FE06F480068AE
:2062E000007800F07F00022858D16C480068407900F00F0669480068407900F070096748A0
:206300000068407900F0800038B1674901EB8600D0F8000C00F0300806E0634901EB8600E1
:20632000D0F8000C00F4405860480078B04235D9B9F1000F32D1B8F1000F2FD0594F2DE0B5
:20634000082D07D155480068007800F07F0028BB574F23E00A2D21D150480068007800F027
:206360007F0001281AD14D480068807AB0B14B480068408890B949480068007970B94748FC
:206380000068C088012809D1444909684879444909688A690021904700B9464F57B13F48C5
:2063A0000068A0F812A03D48006887610020B84700240FE0394A12685078394A12681169E8
:2063C00088470446032C05D10920344909680872BDE8F88F31480068008A4FF6FF718842F8
:2063E00004D109202D4909680872F1E7022C03D02A480068008A20B90820284909680872A4
:20640000E6E726480068007800F08000E0B323480068C088009021480068008A00998842F5
:2064200004D91E4900980968088223E01B480068008A1A490968C98888421BDA1748006882
:20644000008A1749096891F82C10884203DA0020194908700EE011480068008A1049096878
:2064600091F82C1090FBF1F201FB120010B90120114908700A48006890F82C1007480068EA
:206480008182FFF701FE07E0FFE7032003490968087200030949088000BF99E74805002054
:2064A0004C05002035BD00080050004080040020B9BC000809BD0008400500205805002010
:2064C000704700000349086000BF024909680029FBD170473000002000EB800100E0491E27
:2064E0000029FCDC70470146002001B90120704710B501460B4601B910BD054A002002E0B6
:2065000014581C50001DB0F5657FF9D300BFF3E700FC00082DE9F041064637463046FFF718
:20652000E2FF08B1BDE8F081094D01F089F8284601F006F8002404E03959281901F04AF878
:20654000241DB4F5657FF7D301F03AF800BFE9E700FC000870B504460D4605F12000005DB8
:20656000022809D10B4A02EBC4029188094A52F8340001F027FA70BD064A02EBC4029188CA
:20658000044A52F8340001F01DFA08B90120F2E70020F0E734000020012001490870704787
:2065A000C80200202DE9F047A4B0022401F04EFB4FF4FA614018F849086004A94FF0010064
:2065C00006F014FC9DF810A0BAF1020F06D0BAF1030F72D0BAF1040F70D1E6E39DF81180F1
:2065E000B8F1000F01DD012000E00020B8F1100F01DC012100E00021084000287BD002253A
:20660000E648FFF775FF402114A8FBF7A4FD02208DF850008DF85180B8F1110F6CD2DFE817
:2066200008F06B09304E6C88A0B1C2D3E4F5F3F2F1F0EF0014A82844D84909880180A81CE9
:20664000C5B214A948191A22D449891CFBF76AFD05F11A00C5B214A82844D049C9690160F3
:20666000281DC5B214A948191E22CC492031FBF759FD05F11E00C5B2402114A806F03CFA7E
:20668000A3E1002610E03246731CDEB2C2EB0213C24A3E3202EB430114AA50191E22FBF701
:2066A00041FD05F11E00C5B2C5F140001E28EAD8402114A806F020FA87E189E1BBE302264E
:2066C00010E03246731CDEB2C2EB0213B34A3E3202EB430114AA50191E22FBF723FD05F164
:2066E0001E00C5B2C5F140001E28EAD8402114A806F002FA69E16AE166E1042610E032468A
:20670000731CDEB2C2EB0213A44A3E3202EB430114AA50191E22FBF705FD05F11E00C5B223
:20672000C5F140001E28EAD8402114A806F0E4F94BE114A948191E229849F231FBF7F2FCFD
:2067400005F11E00C5B214A948191E229449FBF7E9FC05F11E00C5B2402114A806F0CCF939
:2067600033E114A948193C228D491E31FBF7DAFC8A48B0F8AE02ADF88E00402114A806F02C
:20678000BBF922E114A948193C2285495A31FBF7C9FC8248B0F8B002ADF88E00402114A842
:2067A00006F0AAF911E114A948193C227C499631FBF7B8FC7948B0F8B202ADF88E004021EF
:2067C00014A806F099F900E114A948193C227449D231FBF7A7FC7148B0F8B402ADF88E0079
:2067E000402114A806F088F9EFE014A948193C226C49FBF797FC402114A806F07DF9E4E033
:20680000D4E0ADE05EE030E00CE0FFE714A948193C2264493C31FBF785FC402114A806F0FB
:206820006BF9D2E014A9481918225E497831FBF779FC05F11800C5B214A948190F225949BD
:206840009831FBF76FFC05F10F00C5B214A948190F225449A731FBF765FC05F10F00C5B203
:20686000402114A806F048F9AFE014A948190F224C49B631FBF756FC05F10F00C5B214A9ED
:2068800048190F224749C531FBF74CFC05F10F00C5B214A948190F224249D431FBF742FC1B
:2068A00005F10F00C5B214A948190F223D49E331FBF738FC05F10F00C5B2402114A806F0BE
:2068C0001BF982E014A948190F223649F231FBF729FC05F10F00C5B214A948190F223249F4
:2068E000FBF720FC05F10F00C5B200260BE014A841192D480F3000EB860000680860281DAD
:20690000C5B2701CC6B2042EF1DB002609E014A8411925481F30805D0870681CC5B2701C41
:20692000C6B2052EF3DB14A841191C48B0F844030880A81CC5B214A841191848B0F846034B
:206940000880A81CC5B214A84119144890F848030870681CC5B2402114A806F0CDF834E0D0
:2069600014A8411910482A3002680A6042684A600089088105F10A00C5B214A9481930222E
:2069800009493431FBF7CEFB05F13000C5B2402114A806F0B1F818E008000020BC1600201A
:2069A000CC170020DA180020DB19002014A948191022FE49FBF7B6FB05F11000C5B2402196
:2069C00014A806F099F800E000BF00BF00BF33E29DF81100112875D2DFE800F074092C4478
:2069E0005C758996A3B0BDC4CCF9F7F6F50004A80119EF4809880180A01CC4B204A8011925
:206A00001A22EB48801CFBF78DFB04F11A00C4B204A80119E6480968C161201DC4B204A886
:206A200001191E22E2482030FBF77CFB04F11E00C4B27DE1002710E004AA11193A467B1C2C
:206A4000DFB2C2EB0213DA4A3E3202EB43001E22FBF768FB04F11E00C4B2C4F140001E28C6
:206A6000EAD865E1022710E004AA11193A467B1CDFB2C2EB0213CE4A3E3202EB43001E22BB
:206A8000FBF750FB04F11E00C4B2C4F140001E28EAD84DE1042710E004AA11193A467B1CFB
:206AA000DFB2C2EB0213C24A3E3202EB43001E22FBF738FB04F11E00C4B2C4F140001E28AE
:206AC000EAD835E133E104A801191E22B848F230FBF728FB04F11E00C4B204A801191E22FE
:206AE000B448FBF71FFB04F11E00C4B220E104A801193C22AF481E30FBF714FBAC48BDF8F1
:206B00004E10A0F8AE1213E104A801193C22A9485A30FBF707FBA648BDF84E10A0F8B012DD
:206B200006E104A801193C22A2489630FBF7FAFA9F48BDF84E10A0F8B212F9E004A80119BF
:206B40003C229C48D230FBF7EDFA9948BDF84E10A0F8B412ECE004A801193C229648FBF706
:206B6000E1FAE5E004A801193C2293483C30FBF7D9FADDE004A8011918228F487830FBF717
:206B8000D1FA04F11800C4B204A801190F228A489830FBF7C7FA04F10F00C4B204A8011923
:206BA0000F228548A730FBF7BDFA04F10F00C4B204A801190F227D48AF38FBF7B3FA04F1A6
:206BC0000F00C4B2B4E0A8E08FE029E0FFE704A801190F227548AF38FBF7A4FA04F10F0087
:206BE000C4B204A801190F227048A038FBF79AFA04F10F00C4B204A801190F226B48913825
:206C0000FBF790FA04F10F00C4B204A801190F2266488238FBF786FA04F10F00C4B287E0CC
:206C200004A801190F2261487338FBF77BFA04F10F00C4B204A801190F225C486438FBF7FF
:206C400071FA04F10F00C4B200270BE05748553800EB870004A9214409680160201DC4B208
:206C6000781CC7B2042FF1DB04A801195048097880F83E13601CC4B204A801194C48097893
:206C800080F83F13601CC4B204A801194848097880F84013601CC4B204A8011944480978D1
:206CA00080F84113601CC4B204A801194048097880F84213601CC4B204A801193C480988AD
:206CC000A0F84413A01CC4B204A8011938480988A0F84613A01CC4B204A8011934480978D6
:206CE00080F84813601CC4B222E004A801192F483A380A6802604A6842600989018104F1ED
:206D00000A00C4B204A80119302228483038FBF709FA04F13000C4B20AE004A80119102291
:206D20002248FBF7FFF904F11000C4B200E000BF00BF9DF8110010280EDA9DF81100401C5E
:206D400000F0FF0903208DF80C008DF80D90022103A805F0D1FE5FE0154800884FF6F07109
:206D60000840B0F5B15F41D003208DF80C00FE208DF80D00022103A805F0BEFE10208DF86D
:206D80000B0001208DF80A004003ADF8080002A90A4800F043FD4FF48050ADF8080002A9B0
:206DA000074800F03BFD00251DE036E03F1A0020BC160020CC170020DA1800200010014053
:206DC000000C01402348006880F48050214908602148C06880F400501F49C8601F48FFF73B
:206DE0007BFB681CC5B2062DECDB15E041F223601B4908800846FFF78DFB00BF194800683D
:206E000000F4E06018490843001D16490860BFF34F8F00BF00BFFEE70EE014A30FCB8DE8C7
:206E20000F000DF111016846FBF7A0F910B901201249087000E000BF00BF402104A8FBF7E0
:206E40008AF94FF44051012004F03AFA24B0BDE8F08700000C0C014000100140400D0300A8
